:020000040800F2
:100000000004002091030008D1040008D104000876
:10001000D1040008D1040008D1040008D10400086C
:10002000D1040008D1040008D1040008010500082B
:10003000D1040008D1040008D1040008E10500083B
:10004000D104000881220008D1040008C12300085F
:10005000D1040008D10400084120000871200008E4
:10006000A1200008D1200008012100087119000812
:10007000B1190008F1190008311A0008711A0008B6
:10008000B11A0008F11A0008D1040008D1040008D0
:10009000D1040008D1040008D1040008312100086F
:1000A000D1040008D1040008D1040008D1040008DC
:1000B000D1040008D1040008D1040008D1290008A7
:1000C000F1290008312A0008512A0008D10400084B
:1000D000D1040008D1040008F1300008D104000860
:1000E000D1210008C122000801230008D104000822
:1000F000D1040008D1040008D1040008311B000815
:10010000D1040008D1040008D1040008D10400087B
:10011000D1040008D1040008D1040008D10400086B
:10012000711B0008B11B0008F11B0008311C0008FE
:10013000711C0008D104000841230008D104000804
:10014000D1040008D1040008D1040008D10400083B
:10015000B11C0008F11C0008311D0008D104000882
:10016000912A0008B12A0008D1040008D10400082F
:1001700081230008D1040008D1040008D10400083C
:08018000D1040008D1040008BD
:100190002DE9F04F87B001F0F3F900F0A1FA40F635
:1001A000186043F69031C2F20000C0F6000101F081
:1001B0001FFA40F68860C2F20000002101F038FB0F
:1001C0000020C4F20200042140F2823202F0F8F969
:1001D00000200821C4F2020040F2823240F6107A78
:1001E00002F0EEF9C2F2000A40F618602A2201235A
:1001F000C2F2000040F604748AF800208AF8013048
:10020000C2F2000401F07CFA0021042340F61860D9
:100210000191029352460094C2F200001C21022375
:1002200001F026FA054640F61860C2F2000001F01F
:100230007FFA002D40F08D8040F60073C2F200037B
:10024000059340F6147940F61678C2F2000940F69C
:100250000C754FF48066C2F20008CB46C2F200056E
:10026000C4F2020657463EE0A078E27894F800C057
:1002700094F804E06178637902EB002243F6A03041
:1002800001EB0C2103EB0E23C0F60000A9F80010CF
:10029000A8F800202B8003F03BF8BBF9000003F026
:1002A00047F843F6A430C0F6000003F031F840F6FA
:1002B0001673C2F20003B3F9000003F039F843F6F5
:1002C000AC30C0F6000003F023F8B5F9000003F0ED
:1002D0002FF843F6B431C0F60001244802224FF053
:1002E000FF3301F0EDF8736983F480737361642068
:1002F00000F046FE40F618604FF0010AC2F200001E
:1003000087F800A001F0FCF94FF0060E042140F63A
:10031000186040F61072534602918DE81040C2F208
:100320000000C2F200021C2101F0A2F9824640F650
:100330001860C2F2000001F0FBF9BAF1000F93D08F
:1003400040F61860C2F2000001F082F9059B1860C7
:100350008AE740F61860C2F2000001F079F940F631
:100360000073C2F20003059318606AE7B80E00201C
:10037000704700BFAFF30080AFF30080AFF30080A1
:10038000FEE700BFAFF30080AFF30080AFF3008063
:1003900072B640F60000C2F2000080F30988022322
:1003A00083F31488BFF36F8F40F2000340F20042E2
:1003B000C2F20003C2F2000293420BD2D9431144AD
:1003C00021F0030119444FF05532043B43F8042F48
:1003D0008B42FBD140F20043C2F2000383420CD2B5
:1003E00037491A1D891A21F0030119444FF055327B
:1003F000043B43F8042F8B42FBD102F079FF40F617
:10040000000140F60003C2F20001C2F2000399426B
:100410000ED2CC431C4424F0030443F6B830043419
:10042000C0F600000023C258CA500433A342FAD1D8
:1004300040F6000340F61872C2F20003C2F2000256
:1004400093420AD2D943114421F0030119440022F6
:10045000043B43F8042F8B42FBD1FFF789FF40F2A6
:10046000881540F28813C0F60005C0F600039D42CF
:100470000BD2EE431E44B6080136043D002401347D
:1004800055F8043F9847B442F9D1FFF781FE40F296
:10049000881540F28813C0F60005C0F600039D429F
:1004A0000BD2EE431E44B6080136043D002401344D
:1004B00055F8043F9847B442F9D1FFF761FF00BFF8
:1004C00003080020AFF30080AFF30080AFF300809B
:1004D000FEE700BFAFF30080AFF30080AFF3008012
:1004E00072B6FEE7AFF30080AFF30080AFF3008099
:1004F00000F086F900F08CFC00F0A2F900DF00BFEC
:1005000000B5EFF30983203383F3098800F030F856
:100510005DF804FBAFF30080AFF30080AFF3008021
:1005200008B54FF46D43CEF200034FF44072C0F2B1
:10053000FA52002199600720DA60102100F0A8F833
:100540000A20202100F0A4F80B208021BDE80840FB
:1005500000F09EB8AFF30080AFF30080AFF30080EF
:10056000202383F311887047AFF30080AFF300803E
:10057000002383F311887047AFF30080AFF300804E
:1005800000B5FFF7EDFF4FF46D43CEF200035B685B
:100590001B051FD5EFF30982A2F1200383F309881D
:1005A00040F62C53C2F200034FF0807019689B692B
:1005B00089689B6842F8040C99428BBF40F2F14372
:1005C00040F2FC43C0F60003C0F6000342F8083CCA
:1005D0005DF804FBFFF7CCFF5DF804FBAFF3008090
:1005E00008B500F08DF9FFF7BBFF00F049F900F006
:1005F000B7F800F065F9FFF7BBFF00F0A9F9BDE817
:100600000840FFF7BDBF00BFAFF30080AFF300802D
:100610002DE9F04FC1F80CD0D0F80CD0BDE8F08F28
:1006200008B500F00DF9FFF7A3FF2846A04700F03A
:10063000E7FC08BDAFF30080AFF30080AFF30080AC
:1006400020F0030303F1604303F56143F0B400F0CD
:1006500003024409D3F80053D200FF26A4009640B9
:1006600004F1604404F5614425EA06050127914040
:1006700000F01F0007FA00F045EA0102C3F800236A
:10068000C4F880012060F0BC704700BFAFF3008069
:1006900020F0030303F1604303F56D4300F0030012
:1006A00010B4C0009A69FF24844022EA0402814009
:1006B0000A439A615DF8044B704700BFAFF30080B6
:1006C00040F62C52C2F2000243F2C0339269C0F6E7
:1006D00000039361FEE700BFAFF30080AFF300803B
:1006E00010B582B0FFF71CFF00F07AFA00F010FAA4
:1006F00000F02EFF00F094F940F600004021C2F215
:10070000000000F08DFB40F2004240F62C53012126
:10071000C2F20002C2F2000380F82010C2619861A8
:1007200000F056F8002383F3118862B640F62C538C
:10073000C2F2000343F230529C69C0F6000200216D
:1007400040F6480040F2C163A261C0F60003009188
:100750000122C021C2F2000000F0E2FB02B010BD95
:10076000F8B500F01DF940F62C52C2F2000240F636
:100770001C539269516AC2F2000301315162DA6876
:100780001C6801329C42DA601BD0A768013FA76059
:10079000BFB91E462268E568E76053601A6000F042
:1007A0008FF8FFF7E5FE2069A847FFF7D9FE00F0B4
:1007B00067F83468A26840F61C53C2F20003002AAE
:1007C000E8D0F8BDAFF30080AFF30080AFF3008056
:1007D00040F60813C2F200031B682BB940F614530D
:1007E000C2F200031B6853B140F61853C2F2000373
:1007F00043F2E032C0F600021A60FFF771BE7047A4
:1008000040F60813C2F2000310B51B6840F61454FA
:10081000C2F200040BB9236853B140F61853C2F278
:10082000000343F2E832C0F600021A60FFF758FEF8
:100830000123236010BD00BFAFF30080AFF3008041
:1008400040F60813C2F2000310B51B6840F61454BA
:10085000C2F200042BB92368002B02DD00232360C1
:1008600010BD40F61853C2F2000343F2F032C0F656
:1008700000021A60FFF734FE0023236010BD00BFA2
:1008800040F60813C2F2000310B51B6840F614547A
:10089000002BC2F2000401DD236853B140F6185367
:1008A000C2F2000343F2F832C0F600021A60FFF70A
:1008B00017FE0123236010BDAFF30080AFF300806B
:1008C00040F60813C2F2000310B51B6840F614543A
:1008D000002BC2F2000405DD2368002B02DD00239B
:1008E000236010BD40F61853C2F2000343F20042E9
:1008F000C0F600021A60FFF7F3FD0023236010BD6D
:1009000010B5FFF72DFE40F60814C2F2000422686D
:10091000002A05DB40F61453C2F200031B685BB1EA
:1009200040F61853C2F2000343F20842C0F6000238
:100930001A60FFF7D5FD226801322260FFF718FE2A
:1009400010BD00BFAFF30080AFF30080AFF30080B5
:1009500010B5FFF705FE40F60814C2F20004226845
:10096000002A05DD40F61453C2F200031B685BB198
:1009700040F61853C2F2000343F21042C0F60002E0
:100980001A60FFF7ADFD2268013A2260FFF7F0FD23
:1009900010BD00BFAFF30080AFF30080AFF3008065
:1009A00040F60813C2F200031B68002B07DB40F679
:1009B0001453C2F200031B68002B00DD704740F6A1
:1009C0001853C2F2000343F21842C0F600021A6044
:1009D000FFF786BDAFF30080AFF30080AFF3008078
:1009E00040F60813C2F200031B683BB940F61453EB
:1009F000C2F200031B68002B00DD704740F618535D
:100A0000C2F2000343F22042C0F600021A60FFF770
:100A100067BD00BFAFF30080AFF30080AFF300808D
:100A200040F60C13C2F200031A46402142F8081B9C
:100A30005A607047AFF30080AFF30080AFF30080DF
:100A400010B440F60C1340F61C5440F62C51C2F280
:100A50000003C2F20004C2F200015A68E468896926
:100A600014605160816A916090F8204002F1100199
:100A700003F58160814214732ABF03F108025960B3
:100A80005A605DF8044B7047AFF30080AFF300800D
:100A900040F61853C2F200031860FFF721BD00BFF3
:100AA00010B40B4603E09C688268944202D31B6832
:100AB0008B42F8D15A685DF8044B0360426058607D
:100AC00010607047AFF30080AFF30080AFF3008099
:100AD0004B6880E80A00486018607047AFF30080F8
:100AE0000346006802681A6053607047AFF30080E5
:100AF00090E80600116003685A607047AFF3008009
:100B00000346006802681A60704700BFAFF30080B8
:100B100040F61C53C2F200034FF0FF3100225B602D
:100B20001B609960DA607047AFF30080AFF300801C
:100B3000F8B5054616460C461F46FFF731FF002E56
:100B400018BF002D1CD0DCB140F61C51C2F20001D0
:100B50002F610B68EE609A68944204D91B68A41A4E
:100B60009A68A242FAD35A682B606A608B425D6031
:100B70001560AC601EBF9A68C4EB02049C60F8BDAF
:100B800043F23040C0F60000FFF782FFDCE700BF11
:100B900010B50446FFF704FF9CB1E368C3B12368B6
:100BA00040F61C52C2F2000293421FBF9968A2682D
:100BB00052189A6062681360236800215A60E160ED
:100BC00010BD43F24040C0F60000FFF761FFE4E7CC
:100BD00043F25040C0F60000FFF75AFFDFE700BFC6
:100BE00040F62C53C2F2000300225B601B605B6185
:100BF0001B619A60704700BFAFF30080AFF30080C5
:100C000010B50446FFF7CCFE94F82030002B18BF37
:100C10000E2B12D0002240F62C53A16884F820201D
:100C2000C2F200031B689A688A42FBD25A682360AA
:100C3000626020465C60146010BD43F27040C0F6F4
:100C40000000FFF725FFE5E7AFF30080AFF300807A
:100C500010B50446FFF784FCFFF712FE94F820302D
:100C6000032B0DD00D2B0FD02BB14FF0FF33A36210
:100C70002046FFF7C5FFFFF723FEFFF779FC10BD05
:100C8000A36A9A6801329A602046FFF731FFECE7C9
:100C900070B540F62C54C2F200040646FFF7A0FEE1
:100CA000A569204685F82060FFF71AFF0122034658
:100CB00080F820202846A361FFF7C2FEEB69ADF162
:100CC0002402934205D943F28440C0F60000FFF7A6
:100CD000DFFEA0692946BDE87040FFF799BC00BF60
:100CE00070B50D4686B00646FFF77AFE6B1C18D02D
:100CF00040F62C54C2F2000440F65142A369294642
:100D000001A8C0F60002FFF713FF3046FFF7C0FF4F
:100D1000049B13B101A8FFF73BFFA369986A06B0D3
:100D200070BD40F62C54C2F200043046FFF7B0FF0D
:100D3000A369986A06B070BDAFF30080AFF300807E
:100D400070B540F62C55C2F2000504460E46FFF77A
:100D500047FEA869A3688268A662934213D9FFF789
:100D60004FFF0123064684F82030AC61FFF768FE90
:100D7000F369ADF1240293420AD820463146BDE81A
:100D80007040FFF745BC2046BDE87040FFF738BF14
:100D900043F28440C0F60000FFF77AFE2046314659
:100DA000BDE87040FFF734BCAFF30080AFF30080C4
:100DB000F8B540F62C56C2F200063046B569FFF78A
:100DC0008FFE01230022AC6880F820303746B061E6
:100DD000334685F820201B689A68A242FBD85A68DF
:100DE0002B606A6028465D601560FFF729FEEB699D
:100DF000ADF12402934205D943F28440C0F60000CD
:100E0000FFF746FEB8692946BDE8F840FFF700BC89
:100E1000FFF7CEBFAFF30080AFF30080AFF30080E9
:100E20002DE9F00140F62C52C2F20002002455696F
:100E300080F8214000F130064FF0020800F1480729
:100E400000F12C0C45610261816080F8208004640F
:100E5000C46344628461416450612861C761466330
:100E60000663C0F82CC0BDE8F0017047AFF3008006
:100E70002DE9F04F04460D4683B090469946FFF7A2
:100E80008FFD002C18BFAF2D09D9D9F1010338BF50
:100E90000023B8F17F0F88BF43F001032BB143F269
:100EA000A040C0F60000FFF7F3FD40F62C56C2F25A
:100EB0000006A5F124007369271801930C9BE760D5
:100EC00040F2216144F800907B60019B002504F111
:100ED0003002C0F600014FF0020B04F12C0A04F1BD
:100EE000480C20463962C4F8088026616361C4F862
:100EF000448084F820B0746184F821502564E5634F
:100F00006562A5611C61C4F82CA062632263C4F809
:100F10001CC003B0BDE8F08FAFF30080AFF30080DA
:100F20002DE9F04F83B080460C9F894693469A4640
:100F300000F148050446FF2604F8016BA542FBD1E9
:100F400008EB0904A54204D2552605F8016BA54219
:100F5000FBD1FFF705FBFFF753FC5A4653464946C2
:100F600000974046FFF784FF00210446FFF7E8FEA4
:100F7000FFF766FCFFF7FCFA204603B0BDE8F08FF0
:100F800010B5044628B943F2E040C0F60000FFF770
:100F90007FFDFFF7E5FAFFF733FC21460620FFF758
:100FA0009FFEFFF74DFCFFF7E3FA10BDAFF30080A3
:100FB00038B540F62C53C2F200039D69EB6AA86273
:100FC00005F12C04A34207D02046FFF799FDFFF757
:100FD00017FEEB6AA342F7D195F821309B0704D1A5
:100FE0002A696B691A612A6953610E20FFF750FE66
:100FF00043F2F040C0F60000BDE83840FFF748BDBE
:1010000010B50446FFF7ACFAFFF7FAFB2046BDE83F
:101010001040FFF7CDBF00BFAFF30080AFF30080FB
:1010200010B5044620B1002364602460A36010BDA5
:1010300043F25050C0F60000FFF72AFDF3E700BF6F
:1010400040F62C53C2F2000370B505469E69FFF7C7
:10105000C7FC002D47D0AC68002C3FD0B368A26815
:101060009A4206D294F82020A36072B3042A204644
:101070001BD030462946FFF713FDB5620420FFF769
:1010800007FEAB68B34205D043F27050C0F60000D3
:10109000FFF7FEFC336CAB4224D043F28450C0F621
:1010A0000000BDE87040FFF7F3BCFFF721FDA16A27
:1010B000FFF7F6FCA26AB3689468A2689A42D8D295
:1010C00094F82020A360002AD0D1012384F8203096
:1010D0002046FFF70DFDFFF793FDCAE7336CAE60C6
:1010E000EB60356470BD43F26050C0F60000FFF75E
:1010F000CFFCB0E7AFF30080AFF30080AFF3008028
:1011000010B50446FFF72CFAFFF77AFB2046FFF7ED
:1011100097FFFFF795FBFFF72BFA10BDAFF30080A9
:1011200038B540F62C53C2F200039D69FFF718FA58
:10113000FFF766FB2C6C002C33D0A368AB4206D0C3
:1011400043F2C050C0F60000FFF7A2FC2C6C2268EE
:10115000E368A2422B641CD0696C4BB11A689A42B6
:1011600003D09268914238BF1146DB68002BF5D15D
:10117000A9602046FFF7B4FC026CA060E260002189
:101180000464FFF7DDFDFFF75BFBFFF7F1F9204695
:1011900038BD0023A360FFF753FBFFF7E9F92046B2
:1011A00038BD43F2AC50C0F60000FFF771FC2C6C68
:1011B000C3E700BFAFF30080AFF30080AFF3008060
:1011C00038B504460D46FFF7EBFBC4B1E26B94F86B
:1011D000203045EA0201082BE1630CD0092B00D036
:1011E00038BDA36A19408B42FAD12046FFF708FDAB
:1011F0000023836238BDA36A1942F6D138BD43F299
:101200002C60C0F60000FFF743FCDFE7AFF300807F
:1012100070B505460E46FFF7C3FB65B12C68A542C5
:1012200008D0201D0BC83343E360FFF7C9FF2468D3
:10123000A542F6D170BD43F24060C0F60000FFF752
:1012400027FCEBE7AFF30080AFF30080AFF3008043
:1012500010B50C4679B140F62C53C2F2000301469A
:101260009B6998621846FFF733FC21460D20BDE8C4
:101270001040FFF735BD4FF0FF3010BDAFF30080D9
:1012800030B4029C406000250A448560046202611B
:10129000006041618161C160C36130BC704700BFC3
:1012A00038B504460D46FFF77BFB6369A269A16868
:1012B00093421BD05A1C01316261A1601D706269AA
:1012C00023699A420BD22368A3420DD02046FFF730
:1012D00007FCFFF795FC00238362184638BDE368DE
:1012E00063612368A342F1D1002038BD0029E1D019
:1012F0006FF0030038BD00BFAFF30080AFF3008094
:1013000070B504460D46FFF72BF9FFF779FAE3694C
:1013100033B12046984703E0FFF79AFF061E10DB23
:10132000A36820462946002BF6D0A16925694A1CEE
:10133000013BAA42A36028BFE368A2610E7828BFE0
:10134000A361FFF77DFAFFF713F9304670BD00BFC8
:101350002DE9F047044615460F461E46D0F81C807E
:10136000002A39D0FFF7FCF8FFF74AFA07EB050A25
:101370004FF000090137B8F1000F05D02046C047F3
:1013800002E0FFF765FF00BBA56820463146002D4F
:10139000F7D0A369013D5A1CA261A5601B7807F82C
:1013A000013C2369A2699A4224BFE368A361FFF765
:1013B00047FAFFF7DDF8574509F1010909D0FFF7B2
:1013C000CFF8FFF71DFA0137D5E7FFF739FAFFF736
:1013D000CFF84846BDE8F08743F29060C0F60000C1
:1013E000FFF756FBBEE700BFAFF30080AFF300800E
:1013F00030B4029C40608D18056104620060826018
:1014000041618161C160C36130BC7047AFF300804E
:10141000F8B504460F461546FFF7A2F8FFF7F0F9B6
:1014200003E0FFF715FF061E1ADBA36820462946D6
:10143000002BF6D06269013B511C6161A3601770FB
:10144000236962699A4224BFE3686361E3690BB16F
:1014500020469847FFF7F4F9FFF78AF80020F8BD17
:10146000FFF7EEF9FFF784F83046F8BDAFF30080E0
:1014700038B50446FFF794FAA3696269A0689A42F6
:1014800016D021695A1C0130A060A2618A421D78E1
:101490000BD22368A34206D02046FFF721FBFFF7BB
:1014A000AFFB00238362284638BDE368A361F0E701
:1014B0000028E6D06FF0020038BD00BFAFF3008017
:1014C0002DE9F84F044617460E469B46D0F81CA05F
:1014D000002A36D0FFF744F8FFF792F94FF00009E1
:1014E000A56806F1010820466A1EEDB16369A26095
:1014F0005A1C626132781A70236962699A4224BF69
:10150000E3686361BAF1000F00D0D047FFF798F9A4
:10151000FFF72EF8013F09F101090FD0FFF720F87E
:10152000FFF76EF94646DBE720465946FFF790FE87
:101530000028D5D0FFF784F9FFF71AF84846BDE830
:10154000F88F43F2A460C0F60000FFF7A1FAC1E7EC
:101550004CF2000140F6485240F64C530648C2F2A5
:101560000101C2F20002C2F2000321F0070120F0E3
:1015700007001160186070471F0F0020AFF3008054
:1015800008B500F085FC00F0CBF943F69020C0F6DA
:10159000000000F03DFF00F00BF800F019F800F03B
:1015A00017F9BDE8084001F0ABBE00BFAFF3008003
:1015B00000F026BFAFF30080AFF30080AFF30080F0
:1015C0000122002302704360704700BFAFF3008028
:1015D00001F08EBAAFF30080AFF30080AFF300806C
:1015E00001220023027043600C30FFF719BD00BFD9
:1015F000002918BF002838B504460D461BD02378B3
:101600005A1ED2B2052B18BF012A05D943F2D06069
:10161000C0F60000FFF73CFAFEF7A2FFFFF7F0F874
:101620002046656001F0ACFA02232370FFF708F949
:10163000FEF79EFF38BD43F2C060C0F60000FFF722
:1016400027FADCE7AFF30080AFF30080AFF3008050
:1016500010B5044608B1A06810BD43F2FC60C0F6A6
:101660000000FFF715FAA06810BD00BFAFF30080BF
:101670002DE9F04784B0002918BF002804468846A9
:10168000924699460D9D0E9E03D0002A18BF002B4E
:101690002ED143F21070C0F60000FFF7F9F923785D
:1016A000022B05D043F23070C0F60000FFF7F0F9CE
:1016B000FEF756FF0027FFF7A3F8A7600C9F032053
:1016C0002070414652464B460195204600970296AF
:1016D00001F076FC431C0CBF052302232370054652
:1016E000FFF7AEF8FEF744FF284604B0BDE8F087E8
:1016F00015B10C9F002FCCD0002ED0D1C9E700BF70
:1017000010B5044628B104F10C00BDE81040FFF705
:10171000F7BC43F28470C0F60000FFF7B9F904F19A
:101720000C00BDE81040FFF7EBBC00BFAFF300803A
:1017300008B518B1BDE80840FFF7F2BC43F2987055
:10174000C0F60000FFF7A4F9BDE80840FFF7E8BCC9
:101750000C30FFF7FDBD00BFAFF30080AFF300809A
:101760000C304FF0FF33FFF7F3BD00BFAFF3008045
:101770003030FFF7A5BE00BFAFF30080AFF30080AD
:1017800030304FF0FF33FFF79BBE00BFAFF3008058
:101790000C30FFF7B5BD00BFAFF30080AFF30080A2
:1017A0000C304FF0FF31FFF7ABBD00BFAFF300804F
:1017B0003030FFF72DBE00BFAFF30080AFF30080E5
:1017C00030304FF0FF32FFF723BE00BFAFF3008091
:1017D00001F01EBDAFF30080AFF30080AFF30080D7
:1017E00070B543F61003C0F60003044682B040F81B
:1017F000043B012600940B461546606004F1540139
:1018000004F10C0026721022FFF73AFD00942B46DB
:1018100004F1300004F164011022FFF7E9FD02B089
:1018200070BD00BFAFF30080AFF30080AFF3008066
:1018300038B504460D46C8B1FEF792FEFEF7E0FF4C
:10184000237A013BDBB2012B05D943F2BC70C0F611
:101850000000FFF71DF92946204601F0F1FC0223A4
:101860002372FEF7EDFFFEF783FE38BD43F2B07042
:10187000C0F60000FFF70CF9DEE700BFAFF3008011
:1018800038B504460D46FFF78BF8D4B163693BB118
:10189000294604F10C00FFF703FD00280BDB38BDDF
:1018A000201D0421FFF7B4FC294604F10C00FFF7CA
:1018B000F7FC0028F3DA201D8021BDE83840FFF74F
:1018C000A7BC43F2E870C0F60000FFF7E1F8DDE7DF
:1018D0004FF48053CEF200035B688360704700BF13
:1018E0004FF48053CEF2000340F65052C2F2000291
:1018F0005B68816810B41468C2685B1A1B1B934252
:10190000836088BFC36003D80269934238BF036114
:101910005DF8044B704700BFAFF30080AFF3008069
:1019200010B540F6505486B0C2F200044FF4805314
:101930000022CEF200034FF0FF31226004920591A5
:10194000596841F6D10241F6E103C0F60002C0F643
:10195000000301A8029303910192FFF7C1FF039BCB
:10196000236006B010BD00BFAFF30080AFF300806E
:1019700010B5FEF7C5FF4FF4C042C4F2020240F6B4
:101980005453C2F2000311681C6801F03D019160DC
:101990000CB15868A047FEF7DBFFBDE81040FEF72A
:1019A000EFBD00BFAFF30080AFF30080AFF3008066
:1019B00010B5FEF7A5FF4FF4C042C4F2020240F694
:1019C00054531168C2F20003890901F03D019C687B
:1019D000880190600CB1D868A047FEF7B9FFBDE858
:1019E0001040FEF7CDBD00BFAFF30080AFF3008025
:1019F00010B5FEF785FF4FF4C042C4F2020240F674
:101A000054531168C2F20003090C01F03D011C6936
:101A1000080490600CB15869A047FEF799FFBDE833
:101A20001040FEF7ADBD00BFAFF30080AFF3008004
:101A300010B5FEF765FF4FF4C042C4F2020240F653
:101A400054531168C2F20003890D01F03D019C69F5
:101A5000880590600CB1D869A047FEF779FFBDE812
:101A60001040FEF78DBD00BFAFF30080AFF30080E4
:101A700010B5FEF745FF4FF4C042C4F2020240F633
:101A80005453C2F2000351681C6A01F03D01D16059
:101A90000CB1586AA047FEF75BFFBDE81040FEF7A7
:101AA0006FBD00BFAFF30080AFF30080AFF30080E5
:101AB00010B5FEF725FF4FF4C042C4F2020240F613
:101AC00054535168C2F20003890901F03D019C6A38
:101AD0008801D0600CB1D86AA047FEF739FFBDE895
:101AE0001040FEF74DBD00BFAFF30080AFF30080A4
:101AF00010B5FEF705FF4FF4C042C4F2020240F6F3
:101B000054535168C2F20003090C01F03D011C6BF3
:101B10000804D0600CB1586BA047FEF719FFBDE870
:101B20001040FEF72DBD00BFAFF30080AFF3008083
:101B300010B5FEF7E5FE4FF4C042C4F2020240F6D3
:101B400054535168C2F20003890D01F03D019C6BB2
:101B50008805D0600CB1D86BA047FEF7F9FEBDE850
:101B60001040FEF70DBD00BFAFF30080AFF3008063
:101B700010B5FEF7C5FE4FF4C842C4F2020240F6AB
:101B80005453C2F2000311681C6C01F03D019160D6
:101B90000CB1586CA047FEF7DBFEBDE81040FEF725
:101BA000EFBC00BFAFF30080AFF30080AFF3008065
:101BB00010B5FEF7A5FE4FF4C842C4F2020240F68B
:101BC00054531168C2F20003890901F03D019C6C75
:101BD000880190600CB1D86CA047FEF7B9FEBDE853
:101BE0001040FEF7CDBC00BFAFF30080AFF3008024
:101BF00010B5FEF785FE4FF4C842C4F2020240F66B
:101C000054531168C2F20003090C01F03D011C6D30
:101C1000080490600CB1586DA047FEF799FEBDE82E
:101C20001040FEF7ADBC00BFAFF30080AFF3008003
:101C300010B5FEF765FE4FF4C842C4F2020240F64A
:101C400054531168C2F20003890D01F03D019C6DEF
:101C5000880590600CB1D86DA047FEF779FEBDE80D
:101C60001040FEF78DBC00BFAFF30080AFF30080E3
:101C700010B5FEF745FE4FF4C842C4F2020240F62A
:101C80005453C2F2000351681C6E01F03D01D16053
:101C90000CB1586EA047FEF75BFEBDE81040FEF7A2
:101CA0006FBC00BFAFF30080AFF30080AFF30080E4
:101CB00010B5FEF725FE4FF4C842C4F2020240F60A
:101CC00054535168C2F20003890901F03D019C6E32
:101CD0008801D0600CB1D86EA047FEF739FEBDE890
:101CE0001040FEF74DBC00BFAFF30080AFF30080A3
:101CF00010B5FEF705FE4FF4C842C4F2020240F6EA
:101D000054535168C2F20003090C01F03D011C6FED
:101D10000804D0600CB1586FA047FEF719FEBDE86B
:101D20001040FEF72DBC00BFAFF30080AFF3008082
:101D300010B5FEF7E5FD4FF4C842C4F2020240F6CA
:101D400054535168C2F20003890D01F03D019C6FAC
:101D50008805D0600CB1D86FA047FEF7F9FDBDE84B
:101D60001040FEF70DBC00BFAFF30080AFF3008062
:101D700040F6D453C2F2000330B4002143F680058C
:101D800040F6545419600A460B46C0F60005C2F2EC
:101D90000004E8580C33C02B0160A15002F1080286
:101DA000F7D14FF4C0414FF4C842C4F20201C4F26B
:101DB00002024FF0FF338B6030BCCB609360D36086
:101DC000704700BFAFF30080AFF30080AFF3008037
:101DD0002DE9F041064684B000284CD040F6D4549A
:101DE000C2F20004777A2068012505FA07F818EA9C
:101DF000000F18BF28463BD140F6545CC2F2000CDD
:101E000048EA00000CEBC70510F0FF0F4CF8372034
:101E10006B601CBF4FF46053C4F2020320601EBF0E
:101E20001C6B44F400141C6310F47F4F1CBF4FF470
:101E30006053C4F2020334681EBF186B40F4800084
:101E40001863236823F01F032360236813F0010540
:101E5000FBD1307A73683D27874021201F602560C1
:101E60006061104622B1B07A0901FEF7E9FB28460D
:101E700004B0BDE8F08143F63000C0F600000391E5
:101E800002920193FEF704FE019B029A0399A5E7D3
:101E90004FF46053C4F20203F0B400224FF0FF3459
:101EA00019691C611A6159695C615A611E6A4EF2B6
:101EB0001001CEF2000166F0805649F23F054EF661
:101EC000F0501E62CEF200001A62C0F20205072630
:101ED0005F6A5C625A624D608A600E60C4684FF44B
:101EE0008051CEF2000144F08074C460086840F074
:101EF00001000860186C4FF4E041C4F2000140F0AA
:101F000080501864086840F480700860196F01F40C
:101F10004071B1F5007F1EBF4FF4803119671A6719
:101F20004FF4E043C4F20003F0BC5A6822F400729C
:101F30005A60FFF71DBF00BFAFF30080AFF3008012
:101F40004FF460514FF4E043C4F20201C4F20003C5
:101F50004FF080504FF4404208641A600B6843F021
:101F600001030B600A684FF460539007C4F2020348
:101F7000F8D51968002201F0F901196019469A6034
:101F80008A684FF4605312F00C0FC4F20203F7D1C9
:101F90001A6842F480321A6019460A684FF4605396
:101FA0009203C4F20203F8D55A6F42F001025A6755
:101FB00019464A6F4FF460539007C4F20203F8D5F4
:101FC00045F20842C0F240725A6019684FF4E0428C
:101FD00041F080711960C4F2000253685904FCD5C5
:101FE0004FF46051C4F202010A684FF46053920149
:101FF000C4F20203F8D54FF47052C4F202024FF457
:102000001441C3F6080140F20570996010609A68A7
:1020100042F002029A6019468A6802F00C024FF4FC
:102020006053082AC4F20203F6D15A6C42F480428B
:102030005A645A6E42F480425A667047AFF3008089
:1020400008B5FEF75DFC40F6D850C2F200004FF430
:1020500070534268C4F201030121526859610021A2
:102060009047FEF775FCBDE80840FEF789BA00BF4F
:1020700008B5FEF745FC40F6D850C2F200004FF418
:1020800070534268C4F201030221D26859610121F0
:102090009047FEF75DFCBDE80840FEF771BA00BF4F
:1020A00008B5FEF72DFC40F6D850C2F200004FF400
:1020B00070534268C4F2010304215269596102213C
:1020C0009047FEF745FCBDE80840FEF759BA00BF4F
:1020D00008B5FEF715FC40F6D850C2F200004FF4E8
:1020E00070534268C4F201030821D2695961032187
:1020F0009047FEF72DFCBDE80840FEF741BA00BF4F
:1021000008B5FEF7FDFB40F6D850C2F200004FF4D0
:1021100070534268C4F201031021526A59610421CC
:102120009047FEF715FCBDE80840FEF729BA00BF4E
:1021300010B5FEF7E5FB4FF47053C4F201035C6980
:1021400004F478725A61A30634D4600628D42106B8
:102150001CD4E20510D4A30508D540F6D853C2F22A
:10216000000318465B680921DB6C9847FEF7F0FB1B
:10217000BDE81040FEF704BA40F6D853C2F200039F
:1021800018465B6808215B6C9847E4E740F6D85333
:10219000C2F2000318465B680721DB6B9847D8E75B
:1021A00040F6D853C2F2000318465B6806215B6B09
:1021B0009847CCE740F6D853C2F2000318465B6854
:1021C0000521DB6A9847C0E7AFF30080AFF30080DA
:1021D00010B5FEF795FB4FF47053C4F201035C6930
:1021E00004F47C4261055A6140D4220534D4E304EE
:1021F00028D4A0041CD4610410D4220408D540F6CD
:10220000D853C2F2000318465B680F21DB6F984772
:10221000FEF79EFBBDE81040FEF7B2B940F6D8537A
:10222000C2F2000318465B680E215B6F9847E4E733
:1022300040F6D853C2F2000318465B680D21DB6EEE
:102240009847D8E740F6D853C2F2000318465B68B7
:102250000C215B6E9847CCE740F6D853C2F20003DE
:1022600018465B680B21DB6D9847C0E740F6D853F2
:10227000C2F2000318465B680A215B6D9847B4E719
:1022800008B5FEF73DFB40F6D850C2F200004FF40F
:1022900070534268C4F201034FF48031D2F88420B5
:1022A000596110219047FEF753FBBDE80840FEF747
:1022B00067B900BFAFF30080AFF30080AFF30080D9
:1022C00008B5FEF71DFB40F6D850C2F200004FF4EF
:1022D00070534268C4F201034FF40031D2F88C20ED
:1022E000596111219047FEF733FBBDE80840FEF726
:1022F00047B900BFAFF30080AFF30080AFF30080B9
:1023000008B5FEF7FDFA40F6D850C2F200004FF4CF
:1023100070534268C4F201034FF48021D2F8942034
:10232000596112219047FEF713FBBDE80840FEF704
:1023300027B900BFAFF30080AFF30080AFF3008098
:1023400008B5FEF7DDFA40F6D850C2F200004FF4AF
:1023500070534268C4F201034FF40021D2F89C206C
:10236000596113219047FEF7F3FABDE80840FEF7E4
:1023700007B900BFAFF30080AFF30080AFF3008078
:1023800008B5FEF7BDFA40F6D850C2F200004FF48F
:1023900070534268C4F201034FF48011D2F8A420B4
:1023A000596114219047FEF7D3FABDE80840FEF7C3
:1023B000E7B800BFAFF30080AFF30080AFF3008059
:1023C00008B5FEF79DFA40F6D850C2F200004FF46F
:1023D00070534268C4F201034FF48001D2F8B42074
:1023E000596116219047FEF7B3FABDE80840FEF7A1
:1023F000C7B800BFAFF30080AFF30080AFF3008039
:1024000040F6D850C2F20000FFF7DAB8AFF3008010
:102410004FF46053C4F202031A6B6FEA52226FEA60
:1024200042221A631A6D6FEA52226FEA42221A653B
:1024300000234168C4F202034FF48062596081684E
:102440009960C168D96001695961416919628169FE
:10245000596201681960016AC4F202024FF4006314
:102460005160416A9160816AD160C16A5161016BBA
:102470001162416B5162C1691160C4F20203C16B08
:102480005960016C9960416CD960816C5961C16C73
:102490001962016D5962816B4FF440621960816D60
:1024A000C4F202024FF480535160C16D9160016E1D
:1024B000D160416E5161816E1162C16E5162416D98
:1024C0001160C4F20203416F5960816F9960C16F5E
:1024D000D960D0F880105961D0F884101962D0F812
:1024E00088105962016F4FF4A0521960D0F8901013
:1024F000C4F202024FF4C0535160D0F894109160BE
:10250000D0F89810D160D0F89C105161D0F8A0108C
:102510001162D0F8A4105162D0F88C101160D0F87C
:10252000AC10C4F202034FF4E0525960D0F8B0107E
:102530009960D0F8B410D960D0F8B8105961D0F8CB
:10254000BC101962D0F8C0105962D0F8A810C4F2BB
:1025500002021960D0F8C8305360D0F8CC309360D4
:10256000D0F8D030D360D0F8D4305361D0F8D83020
:102570001362D0F8DC305362D0F8C4104FF400532B
:102580001160D0F8E420C4F202035A60D0F8E820C9
:102590009A60D0F8EC20DA60D0F8F0205A61D0F8D8
:1025A000F4201A62D0F8F8205A62D0F8E0201A60BD
:1025B000704700BFAFF30080AFF30080AFF300803F
:1025C0002DE9F00F002302F00307C2F38006C2F3E7
:1025D000C105C2F341144FF00F09C2F3C3124FF00B
:1025E000010A04E07600AD00A400BF00013303F04F
:1025F000070C4FEA8C0C11F0010F02FA0CF809FAE3
:102600000CFC3CD0072B95BFD0F820B0D0F824B0FC
:102610002BEA0C0C2BEA0C0C95BF4CEA08084CEA90
:102620000808C0F82080C0F82480D0F804C00AFA56
:1026300003F82CEA080C4CEA060CC0F804C04FF072
:10264000030B4FEA430CD0F808800BFA0CFC6FEA3E
:102650000C0C0CEA080848EA0508C0F80880D0F815
:102660000C800CEA080848EA0408C0F80C80D0F88E
:1026700000800CEA080C4CEA070CC0F800C04908BE
:10268000B0D1BDE8F00F7047AFF30080AFF300802A
:1026900010B4436B046B4FF4004122681980002191
:1026A000198099809982136823F01F0313601368BF
:1026B000D907FCD4C16A207A63680A683D2404FA09
:1026C00000F01860136823F01F0313601368DB0722
:1026D000FCD40A7A4B685DF8044B3D2101FA02F202
:1026E0001A607047AFF30080AFF30080AFF3008053
:1026F00030B5446B238BA58AADB2082245EA03436B
:1027000023F07F43C0F20302934283B056D023D814
:102710000122C0F20302934244D00222C0F203021B
:10272000934213D1A388C26A23F400731B04126876
:102730001B0CA380136843F001031360A3889BB2B2
:1027400043F48053A3805368012B5AD915F00A0F24
:1027500018BF238B03B030BD8222C0F20702934220
:1027600013D08422C0F207029342EFD1C36A1B68E0
:102770005B6843B32388028C9BB243F4A06342F0AE
:1027800001020284238003B030BDA388026B23F4CE
:1027900000731B0412681B0CA380136843F0010331
:1027A0001360D3E7038C1A0A0BD003F0010343F044
:1027B000F00302F006021A432282C7E7038CC3F338
:1027C00047032382C2E7A38823F400731B041B0C76
:1027D000A38023889BB243F400732380FDF7C0FEDF
:1027E0000190FEF74DF80198C3692BB10022C26138
:1027F00018469A62FEF704FAFEF762F8FDF7B8FE93
:10280000A4E7238823F480631B041B0C23809DE72B
:1028100070B5056B2A68136823F01F030446136024
:102820001368DB07FCD42E7AE06A6B6802683D25EA
:10283000B5401D60136823F01F0313601368DE07A3
:10284000FCD4057A426801F480733D20A8409BB215
:10285000106003B101238D05A36044BF43F0020360
:10286000A36048050FD5606B828822F400721204C1
:10287000120C82800588ADB243F0040245F4007367
:1028800003801346A2600A0544BF43F00803A36017
:102890004E0444BF43F02003A360CD0444BF43F083
:1028A0001003A360080444BF43F04003A36001D4B5
:1028B00003B970BDFDF754FEFDF7E2FFE3693BB1DC
:1028C00000216FF00102E16118469A62FEF798F963
:1028D000FDF7F6FFFDF74CFE70BD00BFAFF30080C3
:1028E00038B50446FDF73CFEFDF7CAFFE56955B172
:1028F0002046FFF7CDFE00224FF0FF33E26128466D
:10290000AB62FEF77DF9FDF7DBFFFDF731FE38BD69
:1029100011F00C0F38B50546446B14D1296B0A68C9
:10292000136823F01F0313601368D807FCD40A7AD6
:102930004B683D2101FA02F21A60A3889BB243F46E
:102940000073A38038BDFDF7CBFDE7E7AFF3008050
:1029500011F00C0F38B50546446B30D1E96A0A68AE
:10296000136823F01F0313601368DB07FCD40A7A93
:102970004B683D2101FA02F21A60A38823F48053C8
:102980001B041B0CA380238823F480631B041B0CF3
:10299000238023889BB243F400732380FDF7E0FD7E
:1029A000FDF76EFFEB692BB10022EA6118469A62CF
:1029B000FEF726F9FDF784FFFDF7DAFD38BDFDF7D8
:1029C0008FFDCBE7AFF30080AFF30080AFF3008063
:1029D00008B5FDF795FF40F6E050C2F20000FFF7A2
:1029E00087FEFDF7B5FFBDE80840FDF7C9BD00BF94
:1029F00038B540F6E054C2F20004636B9D8AADB274
:102A0000FDF77EFF05F45F43626B83F47F4383F041
:102A1000FF03294693822046FFF7FAFEFDF798FF51
:102A2000BDE83840FDF7ACBDAFF30080AFF30080E8
:102A300008B5FDF765FF40F61860C2F20000FFF729
:102A400057FEFDF785FFBDE80840FDF799BD00BFC3
:102A500038B540F61864C2F20004636B9D8AADB2CB
:102A6000FDF74EFF05F45F43626B83F47F4383F011
:102A7000FF03294693822046FFF7CAFEFDF768FF51
:102A8000BDE83840FDF77CBDAFF30080AFF30080B8
:102A900008B5FDF735FF40F65060C2F20000FFF7C1
:102AA00027FEFDF755FFBDE80840FDF769BD00BFF3
:102AB00038B540F65064C2F20004636B9D8AADB233
:102AC000FDF71EFF05F45F43626B83F47F4383F0E1
:102AD000FF03294693822046FFF79AFEFDF738FF51
:102AE000BDE83840FDF74CBDAFF30080AFF3008088
:102AF0002DE9F04140F6E057C2F20007384643F6B0
:102B0000800540F61866FEF76BFDC0F60005C2F2C0
:102B100000064FF4A84305F14802C4F200034FF049
:102B20000008304640F65064C2F200047B63FD6248
:102B30003A63C7F81C80FEF753FD4FF4B043C4F26C
:102B4000000305F1540205F1180720467363C6F827
:102B50001C803263F762FEF743FD4FF4B843303513
:102B6000C4F20003E7622563C4F81C806363BDE818
:102B7000F08100BFAFF30080AFF30080AFF30080BF
:102B80002DE9F84F0378456B40F256428262012BE3
:102B900040F216420446426200F09F802E4663686F
:102BA000E16A226B5F6893F80880D1F80090D2F850
:102BB00000A040F6FF03791EC0F23D0305F11002AC
:102BC0004FF4004B4FF0000C4FF410609942C9F8DD
:102BD0000820CAF80820A5F800B0A5F800C0A88011
:102BE00005D943F6B810C0F60000FDF751FFB388D1
:102BF00023F03F031B041B0CB380B28848F2A06390
:102C000092B2C0F2010342F02A029F42B2804CDC31
:102C1000B8F1010F05D043F6D010C0F60000FDF763
:102C200037FF4DF680637F00C0F2802393FBF7F2FD
:102C30004DF6806307FB02F2C0F280239B1A002B43
:102C400040F0B4804DF68063C0F2802393FBF7F729
:102C5000BBB2032B40F29F802B22B3F5805FC7F3FA
:102C60000B07328405D343F66020C0F60000FDF761
:102C70000FFF6368616B1A78B7830B88022A9BB2D7
:102C800000F08380032A08BF43F00A0305D0012A1D
:102C900002BF23F00A031B041B0C0B802B889BB282
:102CA00043F001032B80BDE8F88F4FF4D453C0F2FA
:102CB00006039F42C8BF0027DBDCA8F10203DBB29A
:102CC000012B7AD943F61820C0F60000FDF7E0FE8C
:102CD00048F6FF770D233384CBE740F6E057C2F286
:102CE0000007B84200F0B68040F61867C2F200074D
:102CF000B84200F0F28040F65067C2F20007B842D6
:102D00007FF44CAF4FF46053C4F2020300211E6AFB
:102D1000C06A46F4000642F651121E62C0F6000276
:102D2000196205212346FFF753F8002840F031814E
:102D300042F6111240F65063C0F60002C2F20003E0
:102D4000386B0521FFF744F8002840F01B814FF451
:102D50006053C4F2020348201A6C42F400021A6461
:102D60005021FDF76DFC49205021FDF769FC7A6A7E
:102D7000BB6A7E6B42F0C06243F0C06342F44032F3
:102D800043F440337A62BB6209E74FF6F7721A40A8
:102D900042F0020381E743F60020C0F60000FDF791
:102DA00077FE2B23C7F30B07338462E743F6E81063
:102DB000C0F60000FDF76CFE44E7B8F1020F22D127
:102DC0004DF6806307EB4707C0F2802393FBF7F2D1
:102DD0004DF6806307FB02F2C0F280239B1A5BB9B9
:102DE0004DF68063C0F2802393FBF7F76FEA474705
:102DF0006FEA5747BFB26DE743F63020C0F60000D8
:102E0000FDF746FEECE7B8F1030F18BF48F6FF7771
:102E10007FF460AF07EB87074DF6806307EB87070A
:102E2000C0F2802393FBF7F24DF6806307FB02F2BA
:102E3000C0F280239B1A002B40F08F804DF68063F8
:102E4000C0F2802393FBF7F76FEA87476FEA974753
:102E5000BFB23FE74FF46053C4F2020300211E6A81
:102E6000C06A46F4001642F651121E62C0F6000215
:102E7000196205212346FEF7ABFF002840F097803A
:102E800042F6111240F6E053C0F60002C2F200030F
:102E9000386B0521FEF79CFF002840F081804FF43D
:102EA0006053C4F202031F201A6C42F400121A6429
:102EB0005021FDF7C5FB20205021FDF7C1FB7A6AA8
:102EC000BB6A7E6B42F0007243F0007342F4403202
:102ED00043F440337A62BB6261E64FF46053C4F25C
:102EE000020300211E6AC06A46F4800642F65112AF
:102EF0001E62C0F60002196205212346FEF768FF34
:102F0000002838D142F6111240F61863C0F60002CC
:102F1000C2F20003386B0521FEF75AFF20BB4FF4C5
:102F20006053C4F2020321201A6C42F480021A6436
:102F30005021FDF785FB22205021FDF781FB7A6AA5
:102F4000BB6A7E6B42F0606243F0606342F44032E1
:102F500043F440337A62BB6221E643F64820C0F670
:102F60000000FDF795FD69E743F67C10C0F6000010
:102F7000FDF78EFDD3E743F66810C0F60000FDF7BD
:102F800087FDBFE743F6A410C0F60000FDF780FD03
:102F9000DDE643F69010C0F60000FDF779FDC7E6C8
:102FA00043F65410C0F60000FDF772FD77E743F6D4
:102FB0004010C0F60000FDF76BFD61E7AFF3008045
:102FC0002DE9F04987B01E46109D446B6B1C80466E
:102FD0008B46174608D042F6E102C0F6000201A86F
:102FE00029464346FDF7A4FDFDF72AFCFDF7C0FA8C
:102FF000D8F83020D8F82C3012681B68D8F8240094
:103000000021C8F80810D8F828104FEA4B0BA8F890
:1030100020B01160D760566018600E9A0F98DA6081
:10302000586003E0FDF70CFCFDF7A2FA228B910734
:1030300002D4228892050DD5FDF792FAFDF7E0FB48
:10304000681CEFD0049A002AECD14FF0FF3007B093
:10305000BDE8F089FDF784FAFDF7D2FB013520D0F9
:10306000049B002BF1D0A3889BB243F40073A38090
:1030700040F62C552288C2F2000592B2AB6942F4A8
:10308000807222800220C8F81C30FDF701FE049BEC
:1030900013B101A8FDF77CFDAB69986A07B0BDE8E4
:1030A000F089A3889BB243F40073A38040F62C55AB
:1030B0002288C2F2000592B2AB6942F4807222808B
:1030C0000220C8F81C30FDF7E3FDE5E7AFF3008010
:1030D0004FF48843C4F200039A8992B242F080020E
:1030E0009A817047AFF30080AFF30080AFF30080A8
:1030F00070B5FDF705FC40F68863C2F200035D6F12
:10310000AE892C88A4B2E005B6B24DD4FDF728FAFA
:10311000FDF7B6FBA10624D50BE0A98840F6886030
:10312000C2F20000C9B2FEF7ABFB2C88A4B2A00625
:1031300017D52207F1D014F0080F14BF8021002109
:1031400014F0010F18BF41F02001A30748BF41F060
:10315000400164072A4848BF41F48071FEF758F8DF
:10316000DBE7FDF7ADFBFDF703FA310601D52206DB
:103170002BD4630612D5FDF7F3F9FDF781FB204848
:103180001021FEF745F8FDF79BFBFDF7F1F94FF62F
:103190003F7333404FF6BF72AB812A80FDF7D8FBF7
:1031A000BDE87040FDF7ECB9FDF7DAF9FDF768FB13
:1031B00013484FF40071FEF72BF8FDF781FBFDF784
:1031C000D7F94FF6FF632B80A0E7FDF7C9F9FDF7AC
:1031D00057FB0C48FEF74CF90028A4BF80B2A8802A
:1031E00004DBFDF76DFBFDF7C3F9C2E704480821D6
:1031F000FEF70EF826F0C00343F04003AB81F0E782
:103200008C0E0020B80E0020AFF30080AFF30080DA
:1032100010B540F68864C2F2000443F2D1022046A1
:10322000C0F600020021FEF7DBFA4FF48843C4F237
:103230000003636710BD00BFAFF30080AFF30080F1
:1032400038B543F68024037AC0F60004002918BF7D
:103250000C46012B054631D06B6F4FF4A0514FF453
:103260008052C4F20102C4F20101934218BF8B42A2
:103270000BBF216821684FF43D424DF680620CBFC0
:10328000C0F20152C0F28022B2FBF1F292B21A8176
:10329000A288E188208942F4045241F0400442F0BF
:1032A0002C0240F0010092B2A4B280B200211C8234
:1032B00098829A8119801A889B8838BD40F6886365
:1032C000C2F200039842C7D14FF46053C4F2020324
:1032D00026201A6C42F400321A64C021FDF7B0F9BE
:1032E000BAE700BFAFF30080AFF30080AFF3008018
:1032F000FEF726BEAFF30080AFF30080AFF300808F
:10330000704700BFAFF30080AFF30080AFF30080E1
:1033100010B5017849B1044604484FF0FF32FEF77A
:1033200077F814F8011F0029F6D110BDB80E00205F
:1033300030B5041E85B021482EDD2B214FF0FF3221
:10334000FEF766F80DF1010546F267602B46C6F2FE
:10335000666080FB0421E217C2EBA10202EB82014E
:10336000A4EB41013031C9B214B203F8011C1A4672
:103370000133002CEDD16B469A420BD9144602E082
:1033800014F8021C013C0D484FF0FF32FEF740F8E4
:10339000AC42F5D105B030BD64422D214FF0FF3273
:1033A00024B2FEF735F8002CCCD1044830214FF080
:1033B000FF3205B0BDE83040FEF72AB8B80E002055
:1033C00069646C650000000000000000000000005F
:1033D00053562331000000005356233200000000F2
:1033E00053562333000000005356233400000000DE
:1033F00053562335000000005356233600000000CA
:1034000053562337000000005356233800000000B5
:10341000535623390000000053562331300000007A
:10342000535623313100000000000000000000006E
:10343000226368565453657449222829000000000D
:103440002263685654526573657449222829000026
:103450006368565452657365744928292C202331BA
:10346000000000000000000000000000000000005C
:10347000636853636852656164794928292C202365
:1034800031000000737461636B206F766572666C47
:103490006F77000000000000000000000000000046
:1034A00022636854686443726561746549222829FF
:1034B00000000000226368546864536574507269A8
:1034C0006F726974792228290000000063685468CB
:1034D00064526573756D6528292C20233100000026
:1034E000226368546864536C656570222829000063
:1034F0006368546864457869745328292C20233103
:1035000000000000226368546864576169742228CF
:103510002900000063685468645761697428292C85
:103520002023310000000000000000000000000027
:103530006D61696E00168311040448080C1014189C
:103540001C202100002400000000000000000000FA
:103550002263684D7478496E69742228290000003E
:103560002263684D74784C6F636B532228290000E6
:1035700063684D74784C6F636B5328292C2023317A
:103580000000000063684D74784C6F636B5328290A
:103590002C202332000000002263684D747854729E
:1035A000794C6F636B5322282900000063684D74C7
:1035B00078556E6C6F636B28292C20233100000036
:1035C00063684D7478556E6C6F636B28292C2023CB
:1035D0003200000063684D7478556E6C6F636B53F6
:1035E00028292C202331000063684D7478556E6CB7
:1035F0006F636B5328292C20233200000000000049
:1036000022636845767452656769737465724D61AB
:10361000736B222829000000226368457674556E7A
:103620007265676973746572222829002263684590
:1036300076745369676E616C492228290000000086
:1036400022636845767442726F6164636173744D7E
:1036500061736B4922282900226368457674536997
:10366000676E616C2228290022636845767444697C
:1036700073706174636822282900000063684576CE
:1036800074446973706174636828292C20233100A5
:1036900022636849515265616454696D656F757440
:1036A000222829002263684F515772697465546952
:1036B0006D656F757422282900000000000000006D
:1036C0002269326353746172742228290000000059
:1036D000693263537461727428292C2023310000ED
:1036E0002269326353746F70222829006932635350
:1036F000746F7028292C2023310000002269326366
:103700004765744572726F727322282900000000A9
:10371000226932634D61737465725472616E736DA8
:10372000697454696D656F75742228290000000062
:103730006932634D61737465725472616E736D6941
:103740007454696D656F757428292C20233100002D
:10375000226932634D61737465725265636569767F
:103760006554696D656F7574222829006932634D4F
:1037700061737465725265636569766528292C20CA
:1037800023310000226932634163717569726542B9
:1037900075732228290000002269326352656C6526
:1037A0006173654275732228290000000000000043
:1037B00022736453746172742228290073645374F1
:1037C00061727428292C2023310000002273645375
:1037D000746F702228290000736453746F70282955
:1037E0002C20233100000000227364496E636F6D4A
:1037F000696E67446174614922282900227364520A
:1038000065717565737444617461492228290000EB
:103810008117000861170008C1170008A1170008E8
:10382000B117000891170008711700085117000818
:1038300022646D6153747265616D416C6C6F63617C
:10384000746522282900000022646D61537472653A
:10385000616D52656C656173652228290000000066
:10386000646D6153747265616D52656C65617365F9
:1038700028292C2023310000000000000000000057
:10388000106002400860024000000B002860024007
:103890000860024006010C004060024008600240DF
:1038A00010020D00586002400860024016030E002E
:1038B000706002400C60024000040F00886002400B
:1038C0000C60024006051000A06002400C6002403F
:1038D00010061100B86002400C60024016072F006D
:1038E0001064024008640240000838002864024066
:1038F000086402400609390040640240086402403E
:10390000100A3A005864024008640240160B3B005B
:10391000706402400C640240000C3C008864024069
:103920000C640240060D4400A06402400C64024096
:10393000100E4500B86402400C640240160F4600A9
:103940006932635F6C6C645F737461727428292CD4
:10395000202331006932635F6C6C645F7374617241
:103960007428292C202332006932635F6C6C645FF9
:10397000737461727428292C202333006932635FC9
:103980006C6C645F737461727428292C202334007A
:103990006932635F6C6C645F737461727428292C84
:1039A000202335006932635F6C6C645F73746172ED
:1039B0007428292C20233600226932635F6C6C64E2
:1039C0005F7365745F636C6F636B2228290000006E
:1039D0006932635F6C6C645F7365745F636C6F63A3
:1039E0006B28292C202331006932635F6C6C645F83
:1039F0007365745F636C6F636B28292C202332001E
:103A00006932635F6C6C645F7365745F636C6F6372
:103A10006B28292C202333006932635F6C6C645F50
:103A20007365745F636C6F636B28292C20233400EB
:103A30006932635F6C6C645F7365745F636C6F6342
:103A40006B28292C202335006932635F6C6C645F1E
:103A50007365745F636C6F636B28292C20233600B9
:103A60006932635F6C6C645F7365745F636C6F6312
:103A70006B28292C202338000000000000000000E3
:103A80000096000000000040000000000000000060
:103A9000AAAAA9AA000000000000000000550064C6
:103AA000000000007777555570A70A008052A100EA
:103AB000C00D0000C00000000A010055C001000058
:103AC0000000000000440000FF0FAA0200000000F8
:103AD00000005501005055010000000000000000EA
:103AE000CCCC0C00200000AA000000001000000058
:103AF000100000AA00000000000C000000002222BC
:103B000014058828200000000000000046A0AAA993
:103B10003000000000000000101010010000000044
:103B20000000000000000000000000000000000095
:103B30000000000000000000000000000000000085
:103B40000000000000000000000000000000000075
:103B50000000000000000000000000000000000065
:103B60000000000000000000000000000000000055
:103B70000000000000000000000000000000000045
:103B80000000000000000000000000000000000035
:103B900001000000801A0600020000000000000082
:103BA000783A200020793A2000000000207A3A205C
:083BB000000000000D0A0000F6
:04000005080003915B
:00000001FF
