:020000040800F2
:1000000000040020110300085104000851040008F6
:10001000510400085104000851040008510400086C
:10002000510400085104000851040008710400083C
:10003000510400085104000851040008510500084B
:10004000510400085104000851040008510400083C
:10005000510400085104000851040008510400082C
:10006000510400085104000851040008111200084E
:100070004112000871120008A1120008D1120008F4
:10008000011300083113000851040008510400084E
:1000900051040008510400085104000851040008EC
:1000A00051040008510400085104000851040008DC
:1000B00051040008510400085104000851040008CC
:1000C00051040008510400085104000851040008BC
:1000D0005104000851040008111A000851040008D6
:1000E000510400085104000851040008510400089C
:1000F000510400085104000851040008611300086D
:10010000510400085104000851040008510400087B
:10011000510400085104000851040008510400086B
:1001200091130008C1130008F113000821140008FE
:10013000511400085104000851040008510400083B
:10014000510400085104000851040008510400083B
:1001500081140008B1140008E114000851040008DB
:10016000510400085104000851040008510400081B
:10017000510400085104000851040008510400080B
:080180005104000851040008BD
:10019000F0B583B000F06CFF00F04AFA41F258501D
:1001A000C2F2000000F0DCFC40F60820C2F20000C1
:1001B000002100F0EDFF0020C4F20200042140F213
:1001C000823201F085FB0020082140F28232C4F225
:1001D000020001F07DFB02F0D3F802F091F840F646
:1001E000082042F2BC6142F2D462C0F60002C0F6BE
:1001F0000001C2F2000001F063FE132002F090F84B
:1002000040F6082042F2DC61C2F20000C0F60001B4
:1002100040F6181401F054FEC2F2000440F6082023
:1002200042F2F461C2F20000C0F6000141F29026F1
:1002300001F046FE0025A7690095C2F2000640F6CF
:10024000802042F23113C0F600034FF42C7140229B
:10025000C2F20000376100F003FC40F6305042F279
:100260009103C0F600034FF42C7140220095C2F2B6
:10027000000000F0F5FB41F2A82041F6F173C0F652
:1002800000034FF42C7140220095C2F2000000F0F0
:10029000E7FB40F6E07042F231230095C2F2000025
:1002A000C0F600034FF42C71402200F0D9FB41F25C
:1002B0005850C2F2000000F0C3FC42F22871C0F6B0
:1002C000000104201A22002301F012FEA3691A2261
:1002D000996804201E2301F02BFE01F051FE01F06D
:1002E00077FF00F0BDFCE2E7AFF30080AFF30080E2
:1002F000704700BFAFF30080AFF30080AFF3008022
:10030000FEE700BFAFF30080AFF30080AFF30080E3
:1003100072B640F60000C2F2000080F309880223A2
:1003200083F31488BFF36F8F40F2000340F2004262
:10033000C2F20003C2F2000293420BD2D94311442D
:1003400021F0030119444FF05532043B43F8042FC8
:100350008B42FBD140F20043C2F2000383420CD235
:1003600037491A1D891A21F0030119444FF05532FB
:10037000043B43F8042F8B42FBD101F039FC40F6DB
:10038000000140F60003C2F20001C2F200039942EC
:100390000ED2CC431C4424F0030442F6780004340B
:1003A000C0F600000023C258CA500433A342FAD159
:1003B00040F6000341F26852C2F20003C2F20002AA
:1003C00093420AD2D943114421F003011944002277
:1003D000043B43F8042F8B42FBD1FFF789FF40F227
:1003E000881540F28813C0F60005C0F600039D4250
:1003F0000BD2EE431E44B6080136043D00240134FE
:1004000055F8043F9847B442F9D1FFF7C1FE40F2D6
:10041000881540F28813C0F60005C0F600039D421F
:100420000BD2EE431E44B6080136043D00240134CD
:1004300055F8043F9847B442F9D1FFF761FF00BF78
:1004400003080020AFF30080AFF30080AFF300801B
:10045000FEE700BFAFF30080AFF30080AFF3008092
:1004600000F0BEFA00DF00BFAFF30080AFF3008002
:10047000EFF30983203383F30988002383F3118882
:10048000704700BFAFF30080AFF30080AFF3008090
:1004900008B54FF46D43CEF200034FF44072C0F242
:1004A000FA52002199600720DA60102100F098F8D4
:1004B0000A20202100F094F80B208021BDE808409C
:1004C00000F08EB8AFF30080AFF30080AFF3008090
:1004D000202383F311884FF46D43CEF200035B6851
:1004E00013F400631FD0EFF30982A2F1200383F31A
:1004F000098840F61813C2F200034FF08070996922
:1005000042F8040CC87F88B118688B6881689942EA
:1005100094BF0023012393B140F26143C0F600036E
:1005200042F8083C704783F31188704718688B685D
:100530008168994234BF00230123002BECD140F2A3
:100540006443C0F6000342F8083C7047AFF30080F4
:1005500008B5202383F3118800F0A2F8002383F369
:100560001188BDE80840FFF7B3BF00BFAFF30080BC
:100570002DE9F04FC1F80CD0D0F80CD0BDE8F08FC9
:10058000002383F311882846A04700F0E1FA704762
:1005900020F0030303F1604303F56143F0B400F07E
:1005A00003024409D3F80053D200FF26A40096406A
:1005B00004F1604404F5614425EA060501279140F1
:1005C00000F01F0007FA00F045EA0102C3F800231B
:1005D000C4F880012060F0BC704700BFAFF300801A
:1005E00020F0030303F1604303F56D4300F00300C3
:1005F00010B4C0009A69FF24844022EA04028140BA
:100600000A439A615DF8044B704700BFAFF3008066
:1006100040F61812C2F2000242F2E0339269C0F6CC
:1006200000039361FEE700BFAFF30080AFF30080EB
:1006300010B582B0FFF72CFF00F0EAF800F068F880
:1006400000F0CEFC00F004FD40F600004021C2F2B4
:10065000000000F0D5F940F61813C2F200030122A1
:1006600098610277002383F3118862B640F618136D
:10067000C2F2000342F2F0329C69C0F6000200218F
:1006800040F6480040F21163A261C0F600030091F9
:100690000122C021C2F2000000F0E2F902B010BD58
:1006A00070B540F61813C2F200039B69DA7F0AB1F5
:1006B000013ADA771A6A40F60811C2F200010132F3
:1006C0001A62CB680A6801338A42CB6019D09668F7
:1006D000013E9660AEB90D461068D4680860D660D9
:1006E0000023416083F311881069A047202383F31E
:1006F00011882A68936840F60811C2F20001002BA5
:10070000EAD070BDAFF30080AFF30080AFF300809C
:1007100040F60813C2F200034FF0FF3100225B6085
:100720001B609960DA607047AFF30080AFF3008020
:1007300030B440F60815C2F2000503612C68A368C6
:10074000C260994204D92468C91AA3688B42FAD3BB
:10075000636804604360AC426060186081601EBFE3
:10076000A368C1EB0301A16030BC7047AFF3008008
:10077000036840F60812C2F2000293421FBF996854
:10078000826852189A6042681360036800215A60B8
:10079000C1607047AFF30080AFF30080AFF300801B
:1007A00010B4202383F31188037F0D2B11D8DFE8C9
:1007B00003F029101007100B101010101010100B60
:1007C000436A9A6801329A6090E80C001A600268E5
:1007D00053604FF0FF34002340F6181281684462E2
:1007E0000377C2F20002126893688B42FBD2516811
:1007F0000260416000235060086083F311885DF857
:10080000044B7047002383F311885DF8044B704755
:1008100040F61813C2F2000300225B601B605B61AC
:100820001B619A60704700BFAFF30080AFF3008098
:10083000002310B48168037740F618130446C2F20F
:1008400000031B689A688A42FBD25A682360626080
:1008500020465C6014605DF8044B7047AFF3008085
:1008600040F61813C2F2000370B41A68996914684C
:10087000087714260125CE77636015771C60104633
:1008800070BC9A61FFF774BEAFF30080AFF30080D5
:1008900030B54B1C87B0054617D040F61814C2F28D
:1008A000000440F2A172A36901A8C0F60002FFF79C
:1008B0003FFF2846FFF7D4FF049B13B101A8FFF7C1
:1008C00057FFA369586A07B030BD40F61814C2F24A
:1008D0000004FFF7C5FFA369586A07B030BD00BF29
:1008E000F0B440F61817C2F200078568D7F818C0B0
:1008F000DCF808404162A54206460DD800223B467E
:1009000002771B689A689542FBD95A683360726017
:100910005E601660F0BC704700238CF81C303B46CC
:100920001B689A689442FBD95A68CCF800300124BD
:10093000CCF80420C3F804C0C2F800C034773046B5
:10094000BE616146F0BCFFF713BE00BFAFF300808D
:1009500040F61812C2F20002F0B4106895690368FC
:10096000AC6813600127142600215A6007770346FC
:100970009061EE77297700E01B689A68A242FBD26B
:100980005A682B606A6029465D601560F0BCFFF70D
:10099000EFBD00BFAFF30080AFF30080AFF3008086
:1009A00040F61812C2F2000270B41068956903682C
:1009B000AC681360012600215A60067703469061F7
:1009C000297700E01B689A68A242FBD85A682B601E
:1009D0006A6029465D60156070BCFFF7C9BD00BF45
:1009E00040F61813C2F200039B69DB7F0BB1FFF7DF
:1009F000D7BFFFF7ADBF00BFAFF30080AFF30080FC
:100A00002DE9F00340F61812C2F2000200245569E5
:100A1000447700F12C064FF002094FF0140800F162
:100A200028074FF0010C45610261816080F81C903D
:100A300080F81F80C4638463046284610164506130
:100A400080F81EC0286187620663C662BDE8F003B5
:100A5000704700BFAFF30080AFF30080AFF30080BA
:100A60002DE9F0479E460446202383F3118840F683
:100A70001816C2F20006A1F1240318447769E06059
:100A800040F2815144F803E0089B002504F12C0E4C
:100A900004F1280CC0F600014FF0020A4FF01409CF
:100AA0004FF0010843600162A26026616761226421
:100AB00084F81CA084F81F9084F81E806577746108
:100AC000E563A5632562A56120463C612946C4F81B
:100AD00028C0C4F830E0C4F82CE0FFF701FF2B4633
:100AE00083F311882046BDE8F08700BFAFF3008094
:100AF00008B50146202383F311880620FFF7C8FEBE
:100B0000002383F3118808BDAFF30080AFF30080AA
:100B100038B540F61813C2F200039C69254660629E
:100B200055F8280FA84206D00368A362FFF780FE9D
:100B3000A06AA842F8D1637F9B0704D12269636948
:100B40001A61226953610E20BDE83840FFF788BE64
:100B5000202383F31188FFF7DBBF00BFAFF30080D2
:100B60000023406000608360704700BFAFF30080E7
:100B7000F8B540F618130546C2F2000380689C6978
:100B8000002853D0A26883689A4206D9037F826006
:100B9000042B32D0052B1CD09BB12B4603E0996867
:100BA000A268914202D31B689D42F8D15A68236023
:100BB00062605C60146065620420BDE8F840FFF785
:100BC0004FBE90E80C001A6002685360FFF730FED9
:100BD000E3E703684168466A0B600768334679605B
:100BE00002E09968914202D31B689E42F9D15A688B
:100BF0000360426058601060CFE703684168466A4E
:100C00000B6007683346796002E09968914202D32D
:100C10001B689E42F9D15A680360426058601060B8
:100C2000B068A26883689342B0D3B6E7E36BAC6068
:100C3000EB60E563F8BD00BFAFF30080AFF3008069
:100C400008B5202383F31188FFF792FF002383F375
:100C5000118808BDAFF30080AFF30080AFF30080D0
:100C600040F61812C2F2000238B59069202383F3CF
:100C70001188C46B2568E368A542C3631CD0016C6E
:100C80004BB11A689A4203D09268914238BF11461C
:100C9000DB68002BF5D12B68EA6B81602360284666
:100CA0005C600021A560E260EC63FFF719FE0023A1
:100CB00083F31188204638BD0023A360002383F30B
:100CC0001188204638BD00BFAFF30080AFF300802D
:100CD00008B5826B037F1143082B81630BD0092B6E
:100CE00000D008BD436A19408B42FAD1FFF7A0FD3E
:100CF0000023436208BD436A1942F7D108BD00BF13
:100D000070B50468A04205460E4608D0201D0BC8E9
:100D10003343E360FFF7DCFF2468A542F6D170BDE2
:100D200010B4024679B140F61813C2F200030D2048
:100D30009B695A62546883E81400536023605DF82D
:100D4000044BFFF7A5BD4FF0FF305DF8044B704733
:100D500030B4029C406000250A4485600462026150
:100D6000006041618161C160C36130BC704700BFF8
:100D7000034642698069824210B59C681BD0501CB2
:100D8000013458619C60117059691A6991420BD203
:100D9000186898420DD002681A605360FFF748FD4A
:100DA00000234362184610BD1868DA6898425A61F9
:100DB000F1D1002010BD002CE1D06FF0030010BD78
:100DC00070B5202304460E4683F31188C3692BB106
:100DD000984703E0FFF7A4FF002815DBA56820462D
:100DE0003146002DF6D0A2692169531C8B42A361C4
:100DF00005F1FF3528BFE368A560107828BFA3611F
:100E0000002383F3118870BD2B4683F3118870BDD6
:100E10002DE9F0471E460446D0F81C80202383F3BA
:100E200011884FF0000901EB020A4F1CB8F1000FC6
:100E300005D02046C04702E0FFF772FFF0B9A56871
:100E400020463146002DF7D0A369013D5A1CA2610E
:100E5000A5601B7807F8013C2369A2699A4224BF68
:100E6000E368A361002383F31188574509F1010961
:100E700007D0202383F311880137D7E72B4683F36C
:100E800011884846BDE8F087AFF30080AFF30080DB
:100E900030B4029C40608D1805610462006082607D
:100EA00041618161C160C36130BC7047AFF30080B4
:100EB000F8B504460F461646202383F3118803E055
:100EC000FFF72EFF002819DBA56820463146002DCC
:100ED000F6D06369013D5A1C6261A5601F702369E9
:100EE00062699A4224BFE3686361E3690BB12046FB
:100EF0009847002383F311880020F8BD2B4683F325
:100F00001188F8BDAFF30080AFF30080AFF300802D
:100F100082694169914210B50346846816D0186908
:100F20000134511C9C609961814214780BD218687D
:100F3000984206D002681A605360FFF779FC0023DC
:100F40004362204610BDDA689A61F0E7002CE6D0D3
:100F50006FF0020010BD00BFAFF30080AFF3008060
:100F60002DE9F84F9A4604460E461746D0F81C90D5
:100F7000202383F311884FF00008A56806F1010BC8
:100F800020466B1EDDB16269A360531C6361337838
:100F90001370236962699A4224BFE3686361B9F1FF
:100FA000000F00D0C847002383F31188013F08F1E8
:100FB00001080DD0202383F311885E46DDE720462B
:100FC0005146FFF7ADFE0028D7D02B4683F311889A
:100FD0004046BDE8F88F00BFAFF30080AFF300805C
:100FE0004CF2000140F6341240F638130648C2F2C3
:100FF0000101C2F20002C2F2000321F0070120F059
:1010000007001160186070476F150020AFF3008073
:10101000202383F3118840F6381340F63412C2F2CD
:101020000003C2F2000219681268073020F00700BE
:10103000521A90429BBF40181860002008460023B7
:1010400083F31188704700BFAFF30080AFF30080D7
:1010500040F64013C2F2000341F211020021C0F633
:10106000000203F110001A609960D960FFF778BDA3
:1010700008B500F07DFA42F20050C0F6000000F022
:101080004FFB00F055F800F0B3F800F009F8BDE8A8
:10109000084000F0B5BD00BFAFF30080AFF30080A3
:1010A000704700BFAFF30080AFF30080AFF3008064
:1010B0000C30FFF7ADBE00BFAFF30080AFF3008090
:1010C0000C304FF0FF33FFF7A3BE00BFAFF300803B
:1010D0003030FFF745BF00BFAFF30080AFF30080B3
:1010E00030304FF0FF33FFF73BBF00BFAFF300805E
:1010F0000C30FFF765BE00BFAFF30080AFF3008098
:101100000C304FF0FF31FFF75BBE00BFAFF3008044
:101110003030FFF7CDBE00BFAFF30080AFF30080EB
:1011200030304FF0FF32FFF7C3BE00BFAFF3008097
:1011300000F0EEBCAFF30080AFF30080AFF30080AF
:1011400070B542F21043C0F60003044682B040F886
:10115000043B012600940B461546606004F15401DF
:1011600004F10C0026721022FFF7F2FD00942B46CA
:1011700004F1300004F164011022FFF789FE02B08F
:1011800070BD00BFAFF30080AFF30080AFF300800D
:1011900010B52023044683F3118800F0D1FC02230C
:1011A0002372002383F3118810BD00BFAFF30080CA
:1011B00038B5436904460D463BB1294604F10C009D
:1011C000FFF7D6FD00280BDB38BD04300421FFF704
:1011D00097FD294604F10C00FFF7CAFD0028F3DA59
:1011E000201D8021BDE83840FFF78ABDAFF30080A5
:1011F00000F0D6BBAFF30080AFF30080AFF3008008
:10120000002301220270436083607047AFF30080C7
:101210004FF4C042C4F2020240F66013C2F200036F
:10122000116810B51C6801F03D0191600CB158685F
:10123000A047BDE81040FFF74BB900BFAFF30080F7
:101240004FF4C042C4F2020240F660131168C2F2C9
:101250000003890910B501F03D019C688801906088
:101260000CB1D868A047BDE81040FFF731B900BF06
:101270004FF4C042C4F2020240F660131168C2F299
:101280000003090C10B501F03D011C6908049060D1
:101290000CB15869A047BDE81040FFF719B900BF6D
:1012A0004FF4C042C4F2020240F660131168C2F269
:1012B0000003890D10B501F03D019C69880590601F
:1012C0000CB1D869A047BDE81040FFF701B900BFD5
:1012D0004FF4C042C4F2020240F66013C2F20003AF
:1012E000516810B51C6A01F03D01D1600CB1586A1B
:1012F000A047BDE81040FFF7EBB800BFAFF3008098
:101300004FF4C042C4F2020240F660135168C2F2C8
:101310000003890910B501F03D019C6A8801D06085
:101320000CB1D86AA047BDE81040FFF7D1B800BFA4
:101330004FF4C042C4F2020240F660135168C2F298
:101340000003090C10B501F03D011C6B0804D060CE
:101350000CB1586BA047BDE81040FFF7B9B800BF0B
:101360004FF4C042C4F2020240F660135168C2F268
:101370000003890D10B501F03D019C6B8805D0601C
:101380000CB1D86BA047BDE81040FFF7A1B800BF73
:101390004FF4C842C4F2020240F66013C2F20003E6
:1013A000116810B51C6C01F03D0191600CB1586CD6
:1013B000A047BDE81040FFF78BB800BFAFF3008037
:1013C0004FF4C842C4F2020240F660131168C2F240
:1013D0000003890910B501F03D019C6C8801906003
:1013E0000CB1D86CA047BDE81040FFF771B800BF42
:1013F0004FF4C842C4F2020240F660131168C2F210
:101400000003090C10B501F03D011C6D080490604B
:101410000CB1586DA047BDE81040FFF759B800BFA8
:101420004FF4C842C4F2020240F660131168C2F2DF
:101430000003890D10B501F03D019C6D8805906099
:101440000CB1D86DA047BDE81040FFF741B800BF10
:101450004FF4C842C4F2020240F66013C2F2000325
:10146000516810B51C6E01F03D01D1600CB1586E91
:10147000A047BDE81040FFF72BB800BFAFF30080D6
:101480004FF4C842C4F2020240F660135168C2F23F
:101490000003890910B501F03D019C6E8801D06000
:1014A0000CB1D86EA047BDE81040FFF711B800BFDF
:1014B0004FF4C842C4F2020240F660135168C2F20F
:1014C0000003090C10B501F03D011C6F0804D06049
:1014D0000CB1586FA047BDE81040FEF7F9BF00BF40
:1014E0004FF4C842C4F2020240F660135168C2F2DF
:1014F0000003890D10B501F03D019C6F8805D06097
:101500000CB1D86FA047BDE81040FEF7E1BF00BFA7
:1015100040F6E013C2F2000330B4002142F230453D
:1015200040F6601419600A460B46C0F60005C2F288
:101530000004E8580C33C02B0160A15002F10802EE
:10154000F7D14FF4C0414FF4C842C4F20201C4F2D3
:1015500002024FF0FF338B6030BCCB609360D360EE
:10156000704700BFAFF30080AFF30080AFF300809F
:101570004FF46053C4F20203F0B400224FF0FF3482
:1015800019691C611A6159695C615A611E6A4EF2DF
:101590001001CEF2000166F0805649F23F054EF68A
:1015A000F0501E62CEF200001A62C0F20205072659
:1015B0005F6A5C625A624D608A600E60C4684FF474
:1015C0008051CEF2000144F08074C460086840F09D
:1015D00001000860186C4FF4E041C4F2000140F0D3
:1015E00080501864086840F480700860196F01F436
:1015F0004071B1F5007F1EBF4FF4803119671A6743
:101600004FF4E043C4F20003F0BC5A6822F40072C5
:101610005A60FFF77DBF00BFAFF30080AFF30080DB
:101620004FF460514FF4E043C4F20201C4F20003EE
:101630004FF080504FF4404208641A600B6843F04A
:1016400001030B600A684FF460539007C4F2020371
:10165000F8D51968002201F0F901196019469A605D
:101660008A684FF4605312F00C0FC4F20203F7D1F2
:101670001A6842F480321A6019460A684FF46053BF
:101680009203C4F20203F8D55A6F42F001025A677E
:1016900019464A6F4FF460539007C4F20203F8D51D
:1016A00045F20842C0F240725A6019684FF4E042B5
:1016B00041F080711960C4F2000253685904FCD5EE
:1016C0004FF46051C4F202010A684FF46053920172
:1016D000C4F20203F8D54FF47052C4F202024FF480
:1016E0001441C3F6080140F20570996010609A68D1
:1016F00042F002029A6019468A6802F00C024FF426
:101700006053082AC4F20203F6D15A6C42F48042B4
:101710005A645A6E42F480425A667047AFF30080B2
:101720004FF46053C4F202031A6B6FEA52226FEA5D
:1017300042221A631A6D6FEA52226FEA42221A6538
:1017400000234168C4F202034FF48062596081684B
:101750009960C168D96001695961416919628169FB
:10176000596201681960016AC4F202024FF4006311
:101770005160416A9160816AD160C16A5161016BB7
:101780001162416B5162C1691160C4F20203C16B05
:101790005960016C9960416CD960816C5961C16C70
:1017A0001962016D5962816B4FF440621960816D5D
:1017B000C4F202024FF480535160C16D9160016E1A
:1017C000D160416E5161816E1162C16E5162416D95
:1017D0001160C4F20203416F5960816F9960C16F5B
:1017E000D960D0F880105961D0F884101962D0F80F
:1017F00088105962016F4FF4A0521960D0F8901010
:10180000C4F202024FF4C0535160D0F894109160BA
:10181000D0F89810D160D0F89C105161D0F8A01089
:101820001162D0F8A4105162D0F88C101160D0F879
:10183000AC10C4F202034FF4E0525960D0F8B0107B
:101840009960D0F8B410D960D0F8B8105961D0F8C8
:10185000BC101962D0F8C0105962D0F8A810C4F2B8
:1018600002021960D0F8C8305360D0F8CC309360D1
:10187000D0F8D030D360D0F8D4305361D0F8D8301D
:101880001362D0F8DC305362D0F8C4104FF4005328
:101890001160D0F8E420C4F202035A60D0F8E820C6
:1018A0009A60D0F8EC20DA60D0F8F0205A61D0F8D5
:1018B000F4201A62D0F8F8205A62D0F8E0201A60BA
:1018C000704700BFAFF30080AFF30080AFF300803C
:1018D0002DE9F00F002302F00307C2F38006C2F3E4
:1018E000C105C2F341144FF00F09C2F3C3124FF008
:1018F000010A04E07600AD00A400BF00013303F04C
:10190000070C4FEA8C0C11F0010F02FA0CF809FADF
:101910000CFC3CD0072B95BFD0F820B0D0F824B0F9
:101920002BEA0C0C2BEA0C0C95BF4CEA08084CEA8D
:101930000808C0F82080C0F82480D0F804C00AFA53
:1019400003F82CEA080C4CEA060CC0F804C04FF06F
:10195000030B4FEA430CD0F808800BFA0CFC6FEA3B
:101960000C0C0CEA080848EA0508C0F80880D0F812
:101970000C800CEA080848EA0408C0F80C80D0F88B
:1019800000800CEA080C4CEA070CC0F800C04908BB
:10199000B0D1BDE8F00F7047AFF30080AFF3008027
:1019A00038B540F6E41340F6E814C2F20004C2F27F
:1019B00000034FF6FF7220461A80FFF721FC094909
:1019C0004FF4605016224623C4F2000001F10C05CA
:1019D000C0F20102C0F20103E06021616561A26111
:1019E000E36138BD54240008AFF30080AFF30080FA
:1019F0004FF48843C4F200039A8992B242F0800205
:101A00009A817047AFF30080AFF30080AFF300809E
:101A100040F60823C2F2000370B55D6FAE892C88D2
:101A2000A4B2E005B6B247D4202383F31188A106FF
:101A300024D50BE0A98840F60820C2F20000C9B204
:101A4000FFF7B6FB2C88A4B2A00617D52207F1D069
:101A500014F0080F14BF8021002114F0010F18BFEB
:101A600041F02001A30748BF41F040016407264828
:101A700048BF41F48071FFF743F9DBE7002383F3AC
:101A80001188310601D5220625D4630610D52023FE
:101A900083F311881C481021FFF732F9002383F3E8
:101AA00011884FF63F7333404FF6BF72AB812A80E7
:101AB000BDE87040FEF70CBD202383F31188124867
:101AC0004FF40071FFF71CF9002383F311884FF6E0
:101AD000FF632B80A8E7202383F311880B48FFF7CF
:101AE00017FA0028A4BF80B2A88003DB002383F389
:101AF0001188CAE704480821FFF702F926F0C0035D
:101B000043F04003AB81F1E70C0A0020380A0020C3
:101B100010B540F60824C2F2000441F6F112204646
:101B2000C0F600020021FFF70BFB4FF48843C4F21C
:101B30000003636710BD00BFAFF30080AFF3008008
:101B400038B542F2F044037AC0F60004002918BF09
:101B50000C46012B054631D06B6F4FF4A0514FF46A
:101B60008052C4F20102C4F20101934218BF8B42B9
:101B70000BBF216821684FF43D424DF680620CBFD7
:101B8000C0F20152C0F28022B2FBF1F292B21A818D
:101B9000A288E188208942F4045241F0400442F0D6
:101BA0002C0240F0010092B2A4B280B200211C824B
:101BB00098829A8119801A889B8838BD40F608233C
:101BC000C2F200039842C7D14FF46053C4F202033B
:101BD00026201A6C42F400321A64C021FEF7D8FCA9
:101BE000BAE700BFAFF30080AFF30080AFF300802F
:101BF000FFF716BDAFF30080AFF30080AFF30080B6
:101C0000704700BFAFF30080AFF30080AFF30080F8
:101C1000F0B400F10B0700F10A050C46B1FBF2F637
:101C200002FB161101F13003392BC8BF01F1370354
:101C3000DBB2B4FBF2F431462E4605F80139002C34
:101C4000ECD1B91B3246014401E012F8013F00F823
:101C5000013B8842F9D1F0BC704700BFAFF3008070
:101C60002DE9F04F89B00DF115030193019B0DF1A2
:101C7000140ACAEB0303039342F20063C0F60003A5
:101C800083460C46164602932178631C59B12529D8
:101C90000CD0DBF800201C4692685846904721780B
:101CA000631C0029F3D109B0BDE8F08F62782D2ABA
:101CB00003BFA278A31C4FF0010C4FF0000C2E2A9A
:101CC00018BF302A03BF5A780133302720271C461B
:101CD000002506E03378043605EB8505227803EB12
:101CE0004505A2F13003DBB2092B04F10104F3D95D
:101CF0002A2AEFD02E2A4FF0000131D002F0DF0364
:101D00004C2B3AD12378012013B101341A4601201B
:101D1000A2F14403342B00F2B880DFE803F062B68E
:101D2000B6B6B662B6B6B6B6B660B6B6B6B6B6367D
:101D3000B6B6B4B6B6B6B6B6B6B6B6B6B6AB62B6A4
:101D4000B6B6B662B6B6B6B6B660B6B6B672B636A1
:101D5000B6B6B4003378043601EB810103EB4101E0
:101D600014F8012BA2F13003DBB2092BF4D92A2A93
:101D7000F0D002F0DF034C2BC4D0A2F14100C0B27E
:101D800019288CBF00200120C2E70A223168504682
:101D90000436CDF800C0FFF73BFFDDF800C0D046A9
:101DA000CAEB0009C9EB050525EAE575BCF1000F92
:101DB0004DD16D425DB198F800102D296BD0DBF844
:101DC000003058469B68394698470135F7D1DBF813
:101DD000003041464A461B685846984754E7082257
:101DE000D4E731680029B8BF4FF02D0E06F1040684
:101DF000BDBF8DF814E049420DF1150050460A228E
:101E0000C7E7D6F80080029BB8F1000F08BF9846DC
:101E100047F6FF7298F800300436002908BF1146D3
:101E2000002B48D04144C14601E089453FD099F894
:101E3000013009F10109002BF7D1C8EB0909C9EB01
:101E40000505202725EAE575BCF1000FB1D0DBF8C8
:101E5000003041464A461B6858469847002D3FF4DB
:101E600013AFDBF8003058469B6839469847013D70
:101E7000F7D109E73368DDF80C908DF8143004369B
:101E80002027D0468EE7102280E78DF81420DDF859
:101E90000C90D04686E7302F91D1DBF800305846C1
:101EA0009B68984708F1010809F1FF3987E7C8EBFB
:101EB0000109202776E79946202773E7AFF30080D2
:101EC0000EB400B582B003AB40F6082053F8041BF3
:101ED000C2F200001A460193FFF7C2FE02B05DF89D
:101EE00004EB03B0704700BFAFF30080AFF3008096
:101EF000F8B515461E4604460F4600F001FA28467E
:101F000000F00EFA304600F023FA042C0DD8DFE87A
:101F100004F003030303030040F608203946C2F22D
:101F20000000BDE8F840FFF7CBBFF8BDAFF300807D
:101F3000F8B515461E4604460F4600F0E1F928465E
:101F400000F0EEF9304600F003FA042C11D8DFE877
:101F500004F003030303030040F6082042F250613B
:101F60003A46C2F20000C0F60001BDE8F840FFF7B3
:101F7000A7BFF8BDAFF30080AFF30080AFF30080E0
:101F800070B500F0BDF9162000F0CAF9372000F056
:101F9000DFF941F2902542F21066C2F20005C0F668
:101FA0000006172455F8043B3C212046B3B100F04D
:101FB000F7F9372000F0CCF955F8043C1B7F40F6C8
:101FC00008200E2B42F2546294BF56F823100021D1
:101FD000C2F20000C0F60002FFF772FF01341C2CB1
:101FE000E0D170BDAFF30080AFF30080AFF30080AD
:101FF00040F61815C2F2000541F29023A96942F299
:102000005862C2F2000380B5C0F600024FF4406689
:102010004FF480478A61C4F202069960B8460024F2
:1020200041F25850A6F81880C2F20000FEF708FEF0
:10203000032042F264610246C0F600010223FFF76A
:1020400057FF0320024621461423FFF771FFAB69B7
:102050000320996918220023FFF74AFFAB69182271
:10206000996803201E23FFF763FFFFF789FFFEF740
:10207000F7FD4FF47A70FEF73BFD77834FF47A70EB
:102080000134FEF735FDCBE7AFF30080AFF30080FE
:1020900040F61815C2F2000541F29023A96942F2F8
:1020A0006C62C2F2000380B5C0F600024FF44066D5
:1020B0004FF480578A615960C4F20206B846002482
:1020C00041F25850A6F81880C2F20000FEF7B8FDA1
:1020D000022242F27C611346C0F600010120FFF7A4
:1020E00007FF2146012002221423FFF721FFAB69DD
:1020F0000120996917220023FFF7FAFEAB69172226
:10210000996801201E23FFF713FFFFF739FFFEF741
:10211000A7FD4FF4FA70FEF7EBFC77834FF4FA70EB
:102120000134FEF7E5FCCBE7AFF30080AFF30080AE
:1021300040F61815C2F2000541F29023A96942F257
:102140008462C2F2000380B5C0F600024FF440661C
:102150004FF400578A611960C4F20206B8460024A1
:1021600041F25850A6F81880C2F20000FEF768FD50
:1021700042F29461C0F60001002001220223FFF721
:10218000B7FE2146002001221423FFF7D1FEAB69E0
:102190000020996916220346FFF7AAFEAB691622B2
:1021A000996800201E23FFF7C3FEFFF7E9FEFEF744
:1021B00057FDFA20FEF79CFC7783FA200134FEF7E6
:1021C00097FCCDE7AFF30080AFF30080AFF3008062
:1021D00038B500F095F8172000F0A2F82D2000F097
:1021E000B7F841F29025C2F20005172455F8043BD8
:1021F0002046282101348BB100F0D2F82D2000F0C8
:10220000A7F855F8043C40F6082042F29C611A6A8F
:10221000C2F20000C0F60001FFF752FE1C2CE5D10F
:1022200038BD00BFAFF30080AFF30080AFF3008094
:1022300040F61815C2F2000541F29023A96942F256
:10224000A462C2F20003C0F600024FF4406680B5FB
:10225000C4F202068A610024D9604FF4004848F2B3
:10226000000741F258503783C2F20000FEF7E8FC45
:10227000022042F2B4610346C0F600010422FFF7D7
:1022800037FE2146022004221423FFF751FEAB69DA
:102290000220996919220023FFF72AFEAB6919224F
:1022A000996802201E23FFF743FEFFF769FEFFF740
:1022B0008FFFFEF7D5FC4FF4FA60FEF719FCA6F885
:1022C0001A804FF4FA600134FEF712FCC9E700BF30
:1022D0000EB400B582B003AB40F6082053F8041BDF
:1022E000C2F200001A460193FFF7BAFC02B05DF893
:1022F00004EB03B0704700BFAFF30080AFF3008082
:1023000008B540F6082042F62001C2F20000C0F6EF
:1023100000011B22FFF7DCFF002008BDAFF30080A7
:1023200008B5031EB8BF42F6280140F60820ABBF2F
:1023300042F63001C2F20000C2F20000C0F6000115
:10234000A8BFC0F600011B22FFF7C2FF002008BD96
:1023500008B5031EB8BF42F6380140F60820ABBFEF
:1023600042F64001C2F20000C2F20000C0F60001D5
:10237000A8BFC0F600011B22FFF7AAFF002008BD7E
:1023800008B540F6082042F64801C2F20000C0F647
:1023900000011B22FFF79CFF002008BDAFF3008067
:1023A00010B582B040F608240091C2F2000442F653
:1023B0005001431E1B222046C0F60001FFF788FF94
:1023C00042F65C012046C0F60001FFF781FF0020C5
:1023D00002B010BDAFF30080AFF30080AFF3008018
:1023E00069646C650000000000000000000000004F
:1023F0006D61696E00168311040448080C101418EE
:10240000001C1D1E1F200000000000000000000036
:10241000E1100008C1100008211100080111000896
:1024200011110008F1100008D1100008B1100008C7
:10243000106002400860024000000B00286002406B
:102440000860024006010C00406002400860024043
:1024500010020D00586002400860024016030E0092
:10246000706002400C60024000040F00886002406F
:102470000C60024006051000A06002400C600240A3
:1024800010061100B86002400C60024016072F00D1
:1024900010640240086402400008380028640240CA
:1024A00008640240060939004064024008640240A2
:1024B000100A3A005864024008640240160B3B00C0
:1024C000706402400C640240000C3C0088640240CE
:1024D0000C640240060D4400A06402400C640240FB
:1024E000100E4500B86402400C640240160F46000E
:1024F0000096000000000040000000000000000006
:1025000000AAA02A00000000FFABFFFF540001401A
:10251000FFFF00000000565500AA0A0080200800B6
:1025200040020000FFFFFFFF15455155FFFF00006F
:1025300000000004400000000180200200000000B4
:10254000FFFFFFFF54154554FFFF0000000000602F
:10255000000606000001005500000000FFFFFFFF1D
:1025600055505500FF0F0000000000000000000063
:102570004000000000000000FFFFFFFF000000001F
:10258000FFFF00000000000000000000000000004D
:1025900000000000FFFFFFFF00000000FFFF000041
:1025A000000000000000000000000000000000002B
:1025B000FFFFFFFF00000000FFFF00000000000021
:1025C000000000000000000000000000FFFFFFFF0F
:1025D00000000000FFFF00000000000000000000FD
:1025E0000000000000000000FFFFFFFF00000000EF
:1025F000FFFF0000000000000000000000000000DD
:10260000286E756C6C2900000000000000000000BE
:1026100030270008402700085027000860270008DE
:10262000702700088027000890270008A0270008CE
:10263000B0270008C0270008D0270008E0270008BE
:10264000F0270008002800081028000800000000FB
:10265000256900000D0A000052656420626C696EF5
:102660006B6572005245443A000000004772656590
:102670006E20626C696E6B657200000047524545C2
:102680004E3A00004F72616E676520626C696E6B36
:10269000657200004F52414E47453A0025690D0AC8
:1026A00000000000426C756520626C696E6B65729B
:1026B00000000000424C55453A00000057656C632D
:1026C0006F6D6520746F2043686962694F532D25D3
:1026D000730D0A00322E362E3300000054687265E6
:1026E000616420496E666F726D6174696F6E0D0A68
:1026F00000000000544852454144204E414D4509D8
:102700000909544852454144205052494F09544800
:1027100052454144205449434B5309544852454182
:10272000445F5354415445004D61696E0000000000
:102730005448445F53544154455F52454144590005
:102740005448445F53544154455F435552524500E9
:102750005448445F53544154455F535553504500CA
:102760005448445F53544154455F575453454D00BA
:102770005448445F53544154455F57544D54580096
:102780005448445F53544154455F5754434F4E009F
:102790005448445F53544154455F534C45455000A1
:1027A0005448445F53544154455F57544558490079
:1027B0005448445F53544154455F57544F52450069
:1027C0005448445F53544154455F5754414E44006C
:1027D0005448445F53544154455F534E444D530055
:1027E0005448445F53544154455F57544D53470038
:1027F0005448445F53544154455F57545155450024
:102800005448445F53544154455F46494E414C003F
:102810005448445F53544154455F4E414D45530025
:1028200025635B480000000025635B2564410000D0
:1028300025635B256442000025635B25644400003A
:1028400025635B256443000025635B324A0000007A
:1028500025635B25643B2564480000000A000000F6
:1028600025635B304B00000025635B25646D000031
:0828700025635B3225646D0055
:0400000508000311DB
:00000001FF
