:020000040800F2
:1000000000040020F1020008310400083104000857
:1000100031040008310400083104000831040008EC
:1000200031040008310400083104000861040008AC
:1000300031040008310400083104000841050008BB
:1000400031040008310400083104000831040008BC
:1000500031040008310400083104000831040008AC
:10006000310400083104000831040008016500086B
:10007000316500086165000891650008C1650008E8
:10008000F165000821660008416C00083104000891
:10009000310400083104000831040008310400086C
:1000A000310400083104000831040008310400085C
:1000B00031040008310400083172000831040008DE
:1000C000310400083104000831040008310400083C
:1000D00031040008310400084174000831040008AC
:1000E000310400083104000831040008310400081C
:1000F000310400083104000831040008516600088A
:1001000031040008310400083104000831040008FB
:1001100031040008310400083104000831040008EB
:1001200081660008B1660008E166000811670008F2
:100130004167000831040008310400083104000858
:1001400031040008310400083104000831040008BB
:1001500071670008A1670008D16700083104000832
:10016000310400083104000831040008310400089B
:10017000310400083104000831040008310400088B
:080180003104000831040008FD
:1001900000B583B006F084F8002400F041FA41F283
:1001A0005C202146C2F20000C4F2020406F058F9B5
:1001B0002046042140F2823206F0D2FE40F2823222
:1001C0002046082106F0CCFE2369DA0779D44FF4E3
:1001D0008064C4F2020441F2142048F2D0514FF47A
:1001E0008055C2F20000C0F6000106F079F9204601
:1001F00025832946192206F0B3FE20464FF400510C
:1002000040F29A2206F0ACFE20464FF4804140F2C4
:10021000822206F0A5FE40F29A2220464FF40041C9
:1002200006F09EFE41F2DC10C2F20000002106F052
:1002300067F806F0ADFD4FF400600322C4F202003F
:10024000022106F08DFE41F2482040F6B801C2F2CC
:100250000000C2F2000106F083F84FF44060294626
:10026000C4F202004FF4817206F07AFE4FF440604F
:10027000C4F202004FF400414FF4817206F070FEA8
:10028000002241F2D82047F241630092C2F20000FE
:10029000C0F600034FF498714022002400F028FCBF
:1002A000C4F2020403E04FF4FA7000F0A1FC2369E9
:1002B000DB07F8D541F25C20C2F2000002F0A0F8A2
:1002C000F1E741F25C20C2F2000002F099F87EE70B
:1002D000704700BFAFF30080AFF30080AFF3008042
:1002E000FEE700BFAFF30080AFF30080AFF3008004
:1002F00072B640F60000C2F2000080F309880223C3
:1003000083F31488BFF36F8F40F2000340F2004282
:10031000C2F20003C2F2000293420BD2D94311444D
:1003200021F0030119444FF05532043B43F8042FE8
:100330008B42FBD140F20043C2F2000383420CD255
:1003400037491A1D891A21F0030119444FF055321B
:10035000043B43F8042F8B42FBD107F061F940F6D0
:10036000000140F6EC03C2F20001C2F20003994220
:100370000ED2CC431C4424F0030448F21860043429
:10038000C0F600000023C258CA500433A342FAD179
:1003900040F6F00341F21842C2F20003C2F200023A
:1003A00093420AD2D943114421F003011944002297
:1003B000043B43F8042F8B42FBD1FFF789FF40F247
:1003C000881540F28813C0F60005C0F600039D4270
:1003D0000BD2EE431E44B6080136043D002401341E
:1003E00055F8043F9847B442F9D1FFF7D1FE40F2E7
:1003F000881540F28813C0F60005C0F600039D4240
:100400000BD2EE431E44B6080136043D00240134ED
:1004100055F8043F9847B442F9D1FFF761FF00BF98
:1004200003080020AFF30080AFF30080AFF300803B
:10043000FEE700BFAFF30080AFF30080AFF30080B2
:1004400072B6FEE7AFF30080AFF30080AFF3008039
:1004500000F0CEFA00DF00BFAFF30080AFF3008002
:10046000EFF30983203383F30988002383F3118892
:10047000704700BFAFF30080AFF30080AFF30080A0
:1004800008B54FF46D43CEF200034FF44072C0F252
:10049000FA52002199600720DA60102100F098F8E4
:1004A0000A20202100F094F80B208021BDE80840AC
:1004B00000F08EB8AFF30080AFF30080AFF30080A0
:1004C000202383F311884FF46D43CEF200035B6861
:1004D00013F400631FD0EFF30982A2F1200383F32A
:1004E000098840F60823C2F200034FF08070996932
:1004F00042F8040CC87F88B118688B6881689942FB
:1005000094BF0023012393B140F25143C0F600038E
:1005100042F8083C704783F31188704718688B686D
:100520008168994234BF00230123002BECD140F2B3
:100530005443C0F6000342F8083C7047AFF3008014
:1005400008B5202383F3118800F0A2F8002383F379
:100550001188BDE80840FFF7B3BF00BFAFF30080CC
:100560002DE9F04FC1F80CD0D0F80CD0BDE8F08FD9
:10057000002383F311882846A04700F099FB7047B9
:1005800020F0030303F1604303F56143F0B400F08E
:1005900003024409D3F80053D200FF26A40096407A
:1005A00004F1604404F5614425EA06050127914001
:1005B00000F01F0007FA00F045EA0102C3F800232B
:1005C000C4F880012060F0BC704700BFAFF300802A
:1005D00020F0030303F1604303F56D4300F00300D3
:1005E00010B4C0009A69FF24844022EA04028140CA
:1005F0000A439A615DF8044B704700BFAFF3008077
:1006000040F60822C2F2000247F270739269C0F607
:1006100000039361FEE700BFAFF30080AFF30080FB
:1006200010B582B0FFF72CFF00F0EAF800F068F890
:1006300001F0CEFB01F014FC40F6F0004021C2F2C4
:10064000000000F0E5F940F60823C2F200030122A1
:1006500098610277002383F3118862B640F608237D
:10066000C2F2000347F280729C69C0F600020021CA
:1006700040F6381040F20163A261C0F60003009119
:100680000122C021C2F2000000F032FA02B010BD17
:1006900070B540F60823C2F200039B69DA7F0AB105
:1006A000013ADA771A6A40F6F811C2F20001013213
:1006B0001A62CB680A6801338A42CB6019D0966807
:1006C000013E9660AEB90D461068D4680860D660E9
:1006D0000023416083F311881069A047202383F32E
:1006E00011882A68936840F6F811C2F20001002BC5
:1006F000EAD070BDAFF30080AFF30080AFF30080AD
:1007000040F6F813C2F200034FF0FF3100225B60A5
:100710001B609960DA607047AFF30080AFF3008030
:1007200030B440F6F815C2F2000503612C68A368E6
:10073000C260994204D92468C91AA3688B42FAD3CB
:10074000636804604360AC426060186081601EBFF3
:10075000A368C1EB0301A16030BC7047AFF3008018
:10076000036840F6F812C2F2000293421FBF996874
:10077000826852189A6042681360036800215A60C8
:10078000C1607047AFF30080AFF30080AFF300802B
:1007900010B4202383F31188037F0D2B11D8DFE8D9
:1007A00003F029101007100B101010101010100B70
:1007B000436A9A6801329A6090E80C001A600268F5
:1007C00053604FF0FF34002340F6082281684462F2
:1007D0000377C2F20002126893688B42FBD2516821
:1007E0000260416000235060086083F311885DF867
:1007F000044B7047002383F311885DF8044B704766
:1008000040F60823C2F2000300225B601B605B61BC
:100810001B619A60704700BFAFF30080AFF30080A8
:10082000002310B48168037740F608230446C2F21F
:1008300000031B689A688A42FBD25A682360626090
:1008400020465C6014605DF8044B7047AFF3008095
:1008500040F60823C2F2000370B41A68996914685C
:10086000087714260125CE77636015771C60104643
:1008700070BC9A61FFF774BEAFF30080AFF30080E5
:1008800030B54B1C87B0054617D040F60824C2F29D
:10089000000440F29172A36901A8C0F60002FFF7BC
:1008A0003FFF2846FFF7D4FF049B13B101A8FFF7D1
:1008B00057FFA369586A07B030BD40F60824C2F25A
:1008C0000004FFF7C5FFA369586A07B030BD00BF39
:1008D000F0B440F60827C2F200078568D7F818C0C0
:1008E000DCF808404162A54206460DD800223B468E
:1008F00002771B689A689542FBD95A683360726028
:100900005E601660F0BC704700238CF81C303B46DC
:100910001B689A689442FBD95A68CCF800300124CD
:10092000CCF80420C3F804C0C2F800C034773046C5
:10093000BE616146F0BCFFF713BE00BFAFF300809D
:1009400040F60822C2F20002F0B41068956903680C
:10095000AC6813600127142600215A60077703460C
:100960009061EE77297700E01B689A68A242FBD27B
:100970005A682B606A6029465D601560F0BCFFF71D
:10098000EFBD00BFAFF30080AFF30080AFF3008096
:1009900040F60822C2F2000270B41068956903683C
:1009A000AC681360012600215A6006770346906107
:1009B000297700E01B689A68A242FBD85A682B602E
:1009C0006A6029465D60156070BCFFF7C9BD00BF55
:1009D00040F60823C2F200031A689B6992689B687C
:1009E0009A4200D87047FFF7D3BF00BFAFF3008033
:1009F00040F60823C2F200039B69DB7F0BB1FFF7CF
:100A0000C7BFFFF79DBF00BFAFF30080AFF300800B
:100A10002DE9F00340F60822C2F2000200245569D5
:100A2000447700F12C064FF002094FF0140800F152
:100A300028074FF0010C45610261816080F81C902D
:100A400080F81F80C4638463046284610164506120
:100A500080F81EC0286187620663C662BDE8F003A5
:100A6000704700BFAFF30080AFF30080AFF30080AA
:100A70002DE9F00F40F60825C2F2000582B0A1F181
:100A8000240C696900EB0C0601910A99C66040F2DA
:100A9000715740F80C3071600199002300F12C0B64
:100AA000C0F600074FF0020A4FF014094FF001089A
:100AB00000F1280C3762826005614161026480F8B0
:100AC0001CA080F81F9080F81E8043776861C36384
:100AD0008363036283610861C0F828C0C0F830B046
:100AE000C0F82CB002B0BDE8F00F7047AFF3008043
:100AF0002DE9F0479E460446202383F3118840F6F3
:100B00000826C2F20006A1F1240318447769E060C8
:100B100040F2715144F803E0089B002504F12C0ECB
:100B200004F1280CC0F600014FF0020A4FF014093E
:100B30004FF0010843600162A26026616761226490
:100B400084F81CA084F81F9084F81E806577746177
:100B5000E563A5632562A56120463C612946C4F88A
:100B600028C0C4F830E0C4F82CE0FFF7B1FE2B46F3
:100B700083F311882046BDE8F08700BFAFF3008003
:100B800010B5202383F3118840F60823C2F2000336
:100B90009B691C6C99688C4201D0814200D298609C
:100BA0001864FFF715FF002383F31188204610BD5A
:100BB00010B52023044683F311880021FFF788FE37
:100BC000002383F31188204610BD00BFAFF30080DF
:100BD000202383F31188437F43F0040343770023EA
:100BE00083F31188704700BFAFF30080AFF300803C
:100BF00008B50146202383F311880620FFF740FE45
:100C0000002383F3118808BDAFF30080AFF30080A9
:100C100008B5202383F3118840F6F813C2F20003CD
:100C2000D968411A02D00620FFF72AFE002383F379
:100C3000118808BDAFF30080AFF30080AFF30080F0
:100C400008B5202383F3118840F60823C2F200037D
:100C50001A689B6992689B689A4201D3FFF770FEFD
:100C6000002383F3118808BDAFF30080AFF3008049
:100C700038B540F60823C2F200039C69254660623D
:100C800055F8280FA84206D00368A362FFF7C8FDF5
:100C9000A06AA842F8D1637F9B0704D122696369E7
:100CA0001A61226953610E20BDE83840FFF7D0BDBC
:100CB000202383F31188FFF7DBBF00BFAFF3008071
:100CC00038B50446202383F31188037F0E2B0AD006
:100CD00040F60823C2F20003826A9B6907201A606B
:100CE000A362FFF7B5FD656A002383F311882046F0
:100CF00000F016F8284638BDAFF30080AFF300804F
:100D0000202383F31188837F01338377002383F3C8
:100D100011887047AFF30080AFF30080AFF300801D
:100D20000146202383F31188827F013AD2B2827771
:100D3000002383F3118812B9037F0E2B00D0704774
:100D4000437F03F00303012B02D0022B07D070472F
:100D5000026943691A610269536101F0E9B80269E5
:100D60004369406C1A610A69536101F091B900BF8F
:100D700070B582B016461C460D4601F091F898B148
:100D8000202383F31188069B29460093324623468D
:100D9000FFF76EFE0123437700210446FFF798FD1D
:100DA000002383F31188204602B070BDAFF30080AA
:100DB000F0B583B00F4614461E46054601F050F9C3
:100DC00098B1202383F31188696800963A46234638
:100DD000FFF74EFE02234377456400210446FFF7E8
:100DE00077FD002383F31188204603B0F0BD00BFD8
:100DF000202383F3118840F60822C2F20002002368
:100E00001069827F0132827783F31188704700BFB7
:100E100010B5202383F3118840F608230469C2F239
:100E200000039C421DBFA37F0133A377002400234E
:100E300083F31188FFF774FF204610BDAFF30080E5
:100E40004060006081607047AFF30080AFF30080C6
:100E500070B5856881600135002D04460BDC6FF0AC
:100E600001066068436863601C60FFF7D9FC0135C8
:100E7000012D4662F5D170BDAFF30080AFF3008065
:100E800008B5202383F31188FFF7E2FFFFF7A0FDE9
:100E9000002383F3118808BDAFF30080AFF3008017
:100EA0008268013A002A10B50346826001DB002007
:100EB00010BD40F60824C2F200040320A269536268
:100EC0005968136051605A600A60FFF7C1FCA3695A
:100ED000586A10BDAFF30080AFF30080AFF300801D
:100EE00008B5202383F31188FFF7DAFF002383F38B
:100EF000118808BDAFF30080AFF30080AFF300802E
:100F000003468068421E002A10B4A8BF00209A60E1
:100F100002DB5DF8044B704779B140F60822C2F25B
:100F200000020320926953625C6882E818005A60EC
:100F300022605DF8044BFFF7A3BC98604FF0FF30D0
:100F4000E7E700BFAFF30080AFF30080AFF30080AE
:100F500008B5202383F31188FFF7D2FF002383F322
:100F6000118808BDAFF30080AFF30080AFF30080BD
:100F700008B50246202383F3118883680133002BD0
:100F8000836003DD002383F3118808BD00680368D4
:100F9000002113605A60FFF79BFC002383F3118844
:100FA00008BD00BFAFF30080AFF30080AFF3008057
:100FB00082680132002A10B40346826002DD5DF8C7
:100FC000044B704702681168002401604B60546252
:100FD00010465DF8044BFFF723BC00BFAFF3008061
:100FE00070B50C1E054611DD002601E0013C0DD058
:100FF000AB680133002BAB60F8DC286803682B601A
:101000005D60FFF70DFC013C4662F1D170BD00BF91
:1010100010B5024682B0202383F311888368013320
:10102000002B836020DD8B68013B002B8B6007DB8E
:10103000FFF7CEFC0020002383F3118802B010BD1F
:1010400040F60823C2F200034A689C69032084E842
:1010500006004C6014606162FFF7FAFB606A0023CF
:1010600083F3118802B010BD0068036813605A60F2
:101070000191FFF7D5FB002343620199D3E700BF3D
:101080000023406000608360704700BFAFF30080C2
:10109000F8B540F608230546C2F2000380689C6953
:1010A000002853D0A26883689A4206D9037F8260E1
:1010B000042B32D0052B1CD09BB12B4603E0996842
:1010C000A268914202D31B689D42F8D15A682360FE
:1010D00062605C60146065620420BDE8F840FFF760
:1010E000B7BB90E80C001A6002685360FFF798FBEA
:1010F000E3E703684168466A0B6007683346796036
:1011000002E09968914202D31B689E42F9D15A6865
:101110000360426058601060CFE703684168466A28
:101120000B6007683346796002E09968914202D308
:101130001B689E42F9D15A68036042605860106093
:10114000B068A26883689342B0D3B6E7E36BAC6043
:10115000EB60E563F8BD00BFAFF30080AFF3008044
:1011600008B5202383F31188FFF792FF002383F350
:10117000118808BDAFF30080AFF30080AFF30080AB
:101180000246202383F31188836800201BB10023CB
:1011900083F31188704740F60823C2F20003012050
:1011A0009B69D96B9360D160DA63002383F3118864
:1011B000704700BFAFF30080AFF30080AFF3008053
:1011C00040F60822C2F2000238B59069202383F36A
:1011D0001188C46B2568E368A542C3631CD0016C09
:1011E0004BB11A689A4203D09268914238BF1146B7
:1011F000DB68002BF5D12B68EA6B81602360284601
:101200005C600021A560E260EC63FFF761FB0023F6
:1012100083F31188204638BD0023A360002383F3A5
:101220001188204638BD00BFAFF30080AFF30080C7
:1012300038B540F60823C2F200039869C46B2568EC
:10124000E368A542C36318D0016C4BB11A689A4297
:1012500003D09268914238BF1146DB68002BF5D16C
:10126000EA6B2B688160236028465C60A560E260C1
:10127000EC63FFF7D5FA204638BD0023A360204673
:1012800038BD00BFAFF30080AFF30080AFF3008044
:1012900040F60822C2F2000270B52023946983F35D
:1012A0001188E36BC3B100261A68D9689A42E163DA
:1012B00008BF9E6009D0D56B1168104619604B605D
:1012C0009A60DD60D363FFF7ABFAE36B002BEBD1E1
:1012D000236CA360FFF77CFB002383F3118870BDB0
:1012E00040600060704700BFAFF30080AFF3008044
:1012F00008B50246202383F311880068904205D088
:101300000368002113605A60FFF7E2FA002383F3B9
:10131000118808BDAFF30080AFF30080AFF3008009
:1013200008B503460068984206D002681A60536008
:10133000FFF776FA0023436208BD00BFAFF30080D9
:1013400038B504460068A0420AD06FF00105036872
:1013500023605C60FFF764FA45622068A042F6D122
:1013600038BD00BFAFF30080AFF30080AFF3008063
:1013700008B5202383F31188FFF7E2FFFFF728FB6E
:10138000002383F3118808BDAFF30080AFF3008022
:1013900040F60823C2F2000370B505469C69FFF7CA
:1013A00047FF656206462B4603E09968A2689142B2
:1013B00002D31B689D42F8D15A6823606260052001
:1013C0005C601460FFF744FA646A3046FFF760FE21
:1013D000204670BDAFF30080AFF30080AFF3008014
:1013E00008B5202383F31188FFF7D2FF002383F38E
:1013F000118808BDAFF30080AFF30080AFF3008029
:101400002DE9F04106468846FFF712FF40F6082214
:10141000C2F200020746956933466E6203E09C689B
:10142000AA68944202D31B689E42F8D15A682B6086
:101430006A6041465D6005201560FFF721FA431C94
:10144000044602D03846FFF723FE2046BDE8F0816F
:1014500008B5202383F31188FFF7D2FF002383F31D
:10146000118808BDAFF30080AFF30080AFF30080B8
:1014700030B4202383F3118840F60823C2F200031E
:1014800004689D690C600024016023464D608A60F9
:10149000CC6083F3118830BC704700BFAFF300808D
:1014A000202383F31188024602E0994207D01A46AE
:1014B00013688342F9D1002383F3118870470B68C6
:1014C0001360002383F31188704700BFAFF30080DF
:1014D00010B4202383F3118840F60822C2F20002E0
:1014E000002391698A6B22EA00048C6383F31188DC
:1014F00010405DF8044B7047AFF30080AFF30080FD
:10150000202383F3118840F60822C2F20002002350
:101510009269916B0843906383F31188704700BF11
:1015200008B5826B037F1143082B81630BD0092B15
:1015300000D008BD436A19408B42FAD1FFF770F919
:101540000023436208BD436A1942F7D108BD00BFBA
:1015500070B50468A04205460E4608D0201D0BC891
:101560003343E360FFF7DCFF2468A542F6D170BD8A
:1015700008B5202383F31188FFF7D2FFFFF728FA7D
:10158000002383F3118808BDAFF30080AFF3008020
:1015900008B5202383F31188FFF7DAFFFFF718FA65
:1015A000002383F3118808BDAFF30080AFF3008000
:1015B000F8B50D46074689B10024012601E0013443
:1015C00065B106FA04F32B42F9D057F824202046DF
:1015D00025EA030501349047002DF2D1F8BD00BF84
:1015E00038B540F60823C2F2000305469C69202363
:1015F00083F31188A36B10EA030206D1606208200E
:10160000FFF726F9A36B05EA03025042104023EAD4
:101610000003A363002383F3118838BDAFF3008078
:1016200038B540F60823C2F2000305469C69202322
:1016300083F31188A36B184006D108206562FFF779
:1016400007F9A36B05EA030023EA0003A363002361
:1016500083F3118838BD00BFAFF30080AFF3008083
:1016600038B540F60823C2F2000304469D692023E2
:1016700083F31188AB6B00EA0302824204D06862F4
:101680000920FFF7E5F8AB6B23EA0403AB63002303
:1016900083F31188204638BDAFF30080AFF300809C
:1016A00040F60822C2F2000270B520230446956974
:1016B00083F31188AA6B10EA02060ED121B90B46FA
:1016C00083F31188002070BD68620820FFF7D8F806
:1016D00000280BDBAA6B04EA02067042304022EAC3
:1016E0000002AA63002383F3118870BD334683F39D
:1016F0001188002070BD00BFAFF30080AFF3008001
:1017000040F60822C2F2000270B520230446956913
:1017100083F31188AA6B10EA02060ED121B90B4699
:1017200083F31188002070BD68620820FFF7A8F8D5
:1017300000280ADBAA6B04EA020622EA0602AA6370
:10174000002383F31188304670BD334683F311883C
:10175000002070BDAFF30080AFF30080AFF30080D6
:1017600040F60822C2F2000238B5044695692023EB
:1017700083F31188AB6B00EA030282420CD021B9DB
:101780000B4683F31188002038BD68620920FFF7FB
:1017900077F8002808DBAB6B23EA0403AB63002374
:1017A00083F31188204638BD002383F3118800207D
:1017B00038BD00BFAFF30080AFF30080AFF300800F
:1017C00038B540F60823C2F200039C69202383F356
:1017D000118800F12C02057F6262036B61630C2D9E
:1017E00084E80C0004631C6007D00A20FFF730F87F
:1017F000606A002383F3118838BDFFF711F8F4E71E
:1018000010B5202383F3118840F60824C2F20004A7
:10181000A3691A4652F82C0F904208D001680B2495
:10182000D9624A600023047783F3118810BD0C202D
:10183000FFF70EF8A369D86A03F12C02EEE700BFA8
:1018400008B5202383F31188FFF742F8002383F3C0
:10185000118808BDAFF30080AFF30080AFF30080C4
:1018600010B50B4601EB820141600446C360836002
:10187000036011461C30FFF7E3FA04F11000002169
:10188000BDE81040FFF7DCBAAFF30080AFF3008093
:1018900010B52023044683F3118803684168C360B0
:1018A000C91A836089101C30FFF7D2FA04F11000C6
:1018B0000021FFF7CDFAFFF78BF8002383F311889F
:1018C00010BD00BFAFF30080AFF30080AFF3008026
:1018D00070B504460E461C301146FFF711FB054655
:1018E00078B9A2686168131D8B42A36028BF236882
:1018F000166004F1100028BFA360FFF759FBFFF743
:1019000067F8284670BD00BFAFF30080AFF30080DA
:1019100008B5202383F31188FFF7DAFF002383F350
:10192000118808BDAFF30080AFF30080AFF30080F3
:1019300038B5436A002B12DD84684568221D013BDF
:10194000AA42436228BF03688260216000F1100050
:1019500028BF40F8083CFFF72BFB002038BD4FF0B4
:10196000FF3038BDAFF30080AFF30080AFF30080ED
:1019700070B504460E461C301146FFF7C1FA054605
:1019800078B9E3682268043B9342E3603EBF636832
:10199000043BE36004F110001E60FFF709FBFFF752
:1019A00017F8284670BD00BFAFF30080AFF300808A
:1019B00008B5202383F31188FFF7DAFF002383F3B0
:1019C000118808BDAFF30080AFF30080AFF3008053
:1019D000426A002A10B512DDC3680468043BA342C2
:1019E000C3603CBF4368043B02F1FF32426238BF30
:1019F000C36019601030FFF7DBFA002010BD4FF014
:101A0000FF3010BDAFF30080AFF30080AFF3008074
:101A100070B504460E4610301146FFF771FA0546C0
:101A200080B9E3686268196804339342E36028BFB1
:101A30002368316004F11C0028BFE360FFF7B8FAA7
:101A4000FEF7C6FF284670BDAFF30080AFF30080FD
:101A500008B5202383F31188FFF7DAFF002383F30F
:101A6000118808BDAFF30080AFF30080AFF30080B2
:101A70008369002B10B513DD5A1EC368826142686A
:101A80001C6804339342C36028BF03680C6000F1F4
:101A90001C0028BF40F8103CFFF78AFA002010BD58
:101AA0004FF0FF3010BD00BFAFF30080AFF30080F8
:101AB00010B4024679B140F60823C2F200030D20AB
:101AC0009B695A62546883E81400536023605DF890
:101AD000044BFEF7D5BE4FF0FF305DF8044B704766
:101AE00030B4029C406000250A44856004620261B3
:101AF000006041618161C160C36130BC704700BF5B
:101B000038B50446C368006863610022A042A26041
:101B1000A3610AD06FF00105036823605C60FEF7E3
:101B20007FFE45622068A042F6D138BDAFF3008049
:101B3000034642698069824210B59C681BD0501CE4
:101B4000013458619C60117059691A6991420BD235
:101B5000186898420DD002681A605360FEF760FE64
:101B600000234362184610BD1868DA6898425A612B
:101B7000F1D1002010BD002CE1D06FF0030010BDAA
:101B800070B5202304460E4683F31188C3692BB138
:101B9000984703E0FFF78CFF002815DBA568204677
:101BA0003146002DF6D0A2692169531C8B42A361F6
:101BB00005F1FF3528BFE368A560107828BFA36151
:101BC000002383F3118870BD2B4683F3118870BD09
:101BD0002DE9F0471E460446D0F81C80202383F3ED
:101BE00011884FF0000901EB020A4F1CB8F1000FF9
:101BF00005D02046C04702E0FFF75AFFF0B9A568BC
:101C000020463146002DF7D0A369013D5A1CA26140
:101C1000A5601B7807F8013C2369A2699A4224BF9A
:101C2000E368A361002383F31188574509F1010993
:101C300007D0202383F311880137D7E72B4683F39E
:101C400011884846BDE8F087AFF30080AFF300800D
:101C500030B4029C40608D180561046200608260AF
:101C600041618161C160C36130BC7047AFF30080E6
:101C700038B50269C368044600686361D21AA0429D
:101C8000A361A2600AD06FF00105036823605C6065
:101C9000FEF7C6FD45622068A042F6D138BD00BF00
:101CA000F8B504460F461646202383F3118803E057
:101CB000FFF7FEFE002819DBA56820463146002DFF
:101CC000F6D06369013D5A1C6261A5601F702369EB
:101CD00062699A4224BFE3686361E3690BB12046FD
:101CE0009847002383F311880020F8BD2B4683F327
:101CF0001188F8BDAFF30080AFF30080AFF3008030
:101D000082694169914210B50346846816D018690A
:101D10000134511C9C609961814214780BD218687F
:101D2000984206D002681A605360FEF779FD0023DE
:101D30004362204610BDDA689A61F0E7002CE6D0D5
:101D40006FF0020010BD00BFAFF30080AFF3008062
:101D50002DE9F84F9A4604460E461746D0F81C90D7
:101D6000202383F311884FF00008A56806F1010BCA
:101D700020466B1EDDB16269A360531C636133783A
:101D80001370236962699A4224BFE3686361B9F101
:101D9000000F00D0C847002383F31188013F08F1EA
:101DA00001080DD0202383F311885E46DDE720462D
:101DB0005146FFF77DFE0028D7D02B4683F31188CC
:101DC0004046BDE8F88F00BFAFF30080AFF300805E
:101DD0004CF2000140F6242240F628230648C2F2C5
:101DE0000101C2F20002C2F2000321F0070120F05B
:101DF00007001160186070471F140020AFF30080C7
:101E0000202383F3118840F6282340F62422C2F2CF
:101E10000003C2F2000219681268073020F00700C0
:101E2000521A90429BBF40181860002008460023B9
:101E300083F31188704700BFAFF30080AFF30080D9
:101E400040F6242240F62823C2F20002C2F2000328
:101E500010681B68C01A7047AFF30080AFF30080B2
:101E600040F63023C2F2000341F601620021C0F6C1
:101E7000000203F110001A609960D960FFF700B901
:101E80000023083A81600360C36010304A600B6031
:101E9000FFF7F6B8AFF30080AFF30080AFF3008038
:101EA000F8B540F63026C2F20006002818BF0646F4
:101EB000073106F1100021F0070506F10804FFF7CD
:101EC0004FF903E05A68954211D91C462368002B4C
:101ED000F8D1FFF775F933681BB305F1080098478F
:101EE000F8B10660456000F108042046F8BD05F130
:101EF0000801914208D91A6822601C4644F8086B10
:101F0000FFF75EF92046F8BD4FF6F870CFF6FF7088
:101F1000401B5F180244186858507A6027605D6063
:101F2000EBE70024E1E700BFAFF30080AFF30080F0
:101F300070B50646A0F1080450F8080C00F1080539
:101F40001030FFF70DF92B46AB4204D0A34202D369
:101F50001B68AB42FAD11A681AB1944201D31346F6
:101F6000F2E756F8041C46F8082C1C6001F1080240
:101F700056F8085CA018A84209D05A6802F1080176
:101F800019448C4211D0BDE87040FFF719B9406880
:101F9000A2580144083146F8041C46F8082C5A6837
:101FA00002F1080119448C42EDD156F8040C56F8A0
:101FB000081C0244083283E80600BDE87040FFF7C1
:101FC000FFB800BFAFF30080AFF30080AFF3008035
:101FD00038B540F63023C2F20003002814BF04468F
:101FE0001C4604F110000D46FFF7BAF8A3686BB168
:101FF0000022144658681B6801340244002BF9D1B2
:1020000005B12A60FFF7DCF8204638BD1A461C46A9
:10201000F6E700BFAFF30080AFF30080AFF30080BE
:102020000023416082600360704700BFAFF300800F
:1020300010B462B1202383F31188046800230C607C
:10204000016083F311884368013A1944F2D15DF8C5
:10205000044B7047AFF30080AFF30080AFF3008014
:1020600008B50246202383F31188006828B103686D
:102070001360002383F3118808BD9368002BF8D008
:1020800050689847002383F3118808BDAFF30080A0
:10209000202383F31188026800230A60016083F320
:1020A00011887047AFF30080AFF30080AFF300807A
:1020B00041F24503C2F2000301221A70704700BFCB
:1020C00070B541F27806C2F200064C25306803680C
:1020D0002D219B6841F278049847013DC2F200042B
:1020E000F4D12068036847F2C0711B68C0F6000194
:1020F0000222984770BD00BFAFF30080AFF30080AD
:1021000070B584B048B30DF101054CF6CD462B46B1
:10211000CCF6CC46A6FB0012D20802EB8201A0EB63
:1021200041013031C9B203F8011C1C46104601338D
:10213000002AEFD16B469C420DD941F27806C2F2DB
:10214000000602E014F8021C013C306803689B683A
:102150009847AC42F6D104B070BD41F27803C2F2A8
:1021600000033021186803689B68984704B070BD6D
:1021700038B5017861B141F278050446C2F2000534
:10218000286803689B68984714F8011F0029F7D155
:1021900038BD00BFAFF30080AFF30080AFF3008025
:1021A00038B5017841F27805A1B10446C2F20005C4
:1021B000286803689B68984714F8011F0029F7D125
:1021C0002868036847F2C0711B68C0F6000102224C
:1021D000984738BDC2F20005F2E700BFAFF30080B8
:1021E00010B4202383F3118841F24802C2F20002A6
:1021F000002311684C1C0870146083F311885DF88B
:10220000044B7047AFF30080AFF30080AFF3008062
:1022100010B4002279B941F2440441F24C0141F278
:102220004003C2F20004C2F20001C2F20003012224
:1022300022700A70186010465DF8044B704700BFAA
:10224000F0B441F24806C2F2000641F27C07C2F245
:10225000000735683B4605E013F8014B11F8012BE8
:10226000944207D1AB42F7D30A781AB937601046C7
:10227000F0BC704741F2440441F24C0141F240038A
:10228000C2F20004C2F20001C2F200030122227075
:1022900018600A701046F0BC704700BFAFF30080B2
:1022A00040F6F813C2F20003521ADB68591A914241
:1022B00010B438BF00220FD341F2440441F24C0164
:1022C00041F24003C2F20004C2F20001C2F2000374
:1022D000012222700A70186010465DF8044B7047A6
:1022E00038B5064C04F1140554F8043F18460BB1F8
:1022F000FEF76EFCAC42F7D138BD00BF6010002085
:1023000070B541F26404C2F2000404F11405002621
:1023100054F8043B18461BB1FEF7D2FC44F8046C99
:10232000AC42F5D170BD00BFAFF30080AFF30080C9
:1023300040F60823C2F2000330B49C694FF47A726D
:1023400002FB00F044F6D353226A411EC1F262033D
:10235000501CA3FB015100EB91118A42236A0AD25F
:102360008B422CBF00200120934238BF0020002860
:10237000F3D130BC7047934234BF002001208B4220
:1023800038BF40F001000028E7D1F2E7AFF300804A
:1023900008B50120FEF72CFC40F6F813C2F200034A
:1023A000D86808BDAFF30080AFF30080AFF30080C2
:1023B00008B541F24503C2F2000300221A7020233F
:1023C00083F311884FF47A7303FB00F044F6D35380
:1023D0000138C1F26203A3FB0023990941F25000C6
:1023E00042F2B1020131C2F20000C0F60002002345
:1023F000FEF796F9002383F3118808BDAFF3008040
:102400002DE9F04F41F27804C2F2000485B020605B
:1024100048F24C10C0F60000FFF7C2FE47F2C4704D
:10242000C0F60000FFF7BCFE47F2E07047F2E4752B
:10243000C0F60000FFF7B4FEC0F600052A212068B0
:1024400003689B68984715F8011F0029F7D147F6E4
:102450004400C0F6000047F64C05FFF7A1FEC0F6A9
:1024600000052A21206803689B68984715F8011F1A
:102470000029F7D147F66000C0F6000047F678055E
:10248000FFF78EFEC0F600052A21206803689B68CE
:10249000984715F8011F0029F7D147F68C00C0F6C0
:1024A000000047F69805FFF77BFEC0F600052A21DD
:1024B000206803689B68984715F8011F0029F7D129
:1024C00047F6AC00C0F6000047F6B805FFF768FE17
:1024D000C0F600052A21206803689B68984715F814
:1024E000011F0029F7D147F6CC00C0F6000047F6DF
:1024F000D805FFF755FEC0F600052A2120680368BD
:102500009B68984715F8011F0029F7D147F6EC00A2
:10251000C0F6000047F60415FFF742FEC0F60005BE
:102520002A21206803689B68984715F8011F002935
:10253000F7D147F61810C0F6000047F64C15FFF724
:102540002FFEC0F600052A21206803689B68984783
:1025500015F8011F0029F7D147F66010C0F60000FA
:102560000191FFF71DFE41F24C0248F24C10C2F2FD
:102570000002C0F600000392FFF712FE0199039AD1
:1025800047F6A01347F6102741F2480541F27C09AF
:10259000C0F6000311708A460293C0F60007C2F22B
:1025A0000005C2F200090AF1010A4FF0000857F8CD
:1025B000043B002B00F0A28047F2F87BFFF780FD80
:1025C000C0F6000B2D2120680268926890471BF826
:1025D000011F41F27806C2F200060029F3D15046ED
:1025E000FFF78EFD306803682E219B6808F1010813
:1025F000984747F688164046FFF782FDC0F600066A
:102600002021206803689B68984716F8011F00295D
:10261000F7D157F8043C1E68317839B12068036857
:102620009B68984716F8011F0029F7D147F6080064
:10263000C0F60000FFF7B4FDC820FEF7D9FA41F25A
:102640006403C2F2000357F804BCC5F800900022EE
:102650001A605A609A60DA601A6141F24406C2F266
:102660000006DBF80430327003B19847DBF80C3019
:102670009847DBF8083003B19847FFF741FE3378FD
:10268000002B65D047F60C06C0F600062D21206809
:1026900003689B68984716F8011F0029F7D141F29B
:1026A0004003C2F2000347F68C161868FFF728FDB6
:1026B000C0F600062021206803689B68984716F83A
:1026C000011F0029F7D12B684B4588BF294E0AD935
:1026D000206816F8011C03689B6898472B689E4287
:1026E00006F10106F4D347F62400C0F60000FFF718
:1026F00057FD57F8043B002B7FF45EAF029A52F867
:10270000047F0292002F7FF44EAFFFF7D9FC48F20E
:102710004C10C0F6000047F69015FFF741FDC0F6DB
:1027200000054621206803689B68984715F8011F3B
:102730000029F7D1039A13788BB947F63400C0F615
:102740000000FFF72DFD039B187805B0BDE8F08F62
:1027500047F62800C0F60000FFF722FD27E747F6FE
:102760003C00C0F60000FFF71BFD039B187805B086
:10277000BDE8F08F7D100020AFF30080AFF3008044
:10278000F0B540F60827C2F2000747F2A076BB6911
:1027900083B0C0F600069A68306842F6610547F6D5
:1027A0004421C0F60005C0F600012B460091053A11
:1027B0004FF49871FEF79CF9BA697368926841F218
:1027C0006404C2F2000447F63021C0F60001206024
:1027D0000091043A18464FF498712B46FEF788F999
:1027E000BA69B3689268606047F63421C0F60001A8
:1027F0000091033A18464FF498712B46FEF778F98A
:10280000BA69F3689268A06047F63821C0F6000103
:102810000091023A18464FF498712B46FEF768F97A
:10282000BA6933699268E06047F63C21C0F600015E
:10283000013A009118464FF498712B46FEF758F96B
:102840002061FFF75DFD47F64021C0F60001012041
:1028500003B0BDE8F040FFF7F3BC00BFAFF300806A
:1028600008B50078FFF7BCFC002008BDAFF300807E
:10287000F0B540F60827C2F2000747F2A076BB6920
:1028800083B0C0F600069A68706842F6610547F6A4
:102890003021C0F60005C0F600012B460091043A35
:1028A0004FF49871FEF724F9BA693368926841F2DF
:1028B0006404C2F2000447F64421C0F600016060DF
:1028C0000091053A18464FF498712B46FEF710F91F
:1028D000BA6933699268206047F63C21C0F600016E
:1028E0000091013A18464FF498712B46FEF700F913
:1028F000BA69F3689268206147F63821C0F6000192
:102900000091023A18464FF498712B46FEF7F0F802
:102910002023E06083F3118840F60822C2F200020F
:1029200047F2A0739269C0F600039268986847F670
:102930003421C0F6000142F661030091033AC0F66B
:1029400000034FF49871FEF793F841F26402C2F26B
:1029500000020023906083F3118841F26403C2F205
:1029600000039868FEF724F9FFF7CAFC47F64021F8
:10297000C0F60001012003B0BDE8F040FFF760BCE5
:10298000F8B540F60824C2F20004A3699D686E1CE5
:102990003046FEF7F5F8B0EB050CDCF10001074618
:1029A00051EB0C010120FFF733FC00B1F8BDA36926
:1029B0009968B6EB010EDEF1000151EB0E01022029
:1029C000FFF726FC0028F1D13846FEF7D9F8301A77
:1029D000414241410320FFF71BFC0028E6D1A369D7
:1029E00099684A1B514251410420FFF711FC00280D
:1029F000DCD1202383F31188A3699A6802329A609C
:102A0000002383F3118840F60824C2F20004AF1CAF
:102A1000A3699968CB1B594259410520FFF7F8FB80
:102A20000028C3D13046FEF7ABF8B0EB050CDCF163
:102A3000000151EB0C010620FFF7EAFB0028B5D19D
:102A4000A3699968B7EB010EDEF1000151EB0E01AD
:102A50000720FFF7DDFB0028A8D1A369196C771ABE
:102A6000794279410820FFF7D3FB00289ED1EF1C63
:102A70003846FEF785F8301A414241410920FFF7F8
:102A8000C7FB002892D1A36999687A1A5142514133
:102A90000A20FFF7BDFB002888D1A369196C7B1AB7
:102AA000594259410B20FFF7B3FB00287FF47EAF5A
:102AB000202383F31188A26900239560156483F3B2
:102AC000118873E7AFF30080AFF30080AFF30080AD
:102AD00038B540F6F814C2F20004FFF759FCE56877
:102AE0006420FEF785F805F1640105F16502012017
:102AF000FFF7D6FB00B138BDE5686420FEF778F833
:102B000005F1640105F165020220FFF7C9FB002809
:102B1000F1D1E5684FF47A70FEF76AF805F57A713D
:102B200005F2E9320320FFF7BBFB0028E3D1E4689C
:102B300004F164052846FEF76BF8294604F16502A6
:102B40000420BDE83840FFF7ABBB00BFAFF3008007
:102B50002DE9F04140F60825C2F2000547F2A076C3
:102B6000C0F60006AB69D6F800809A6884B047F6D4
:102B70003C27C0F6000742F611530532C0F60003A9
:102B80004FF4987140460097FDF7B2FF7268AB6949
:102B9000039241F264049A68C2F2000447F63821B5
:102BA000C0F6000142F61153206001320091C0F6D8
:102BB00000034FF498710398FDF79AFFB268AB6970
:102BC000039247F634219A686060C0F6000142F62D
:102BD000115303320091C0F600034FF4987103982B
:102BE000FDF786FFF268AB69039247F630219A68D9
:102BF000A060C0F6000142F6115304320091C0F605
:102C000000034FF498710398FDF772FFAB693669C2
:102C10009A68E06047F64421C0F6000142F611537D
:102C20000232C0F60003009130464FF49871FDF770
:102C30005FFF206140F60000C2F20000FEF798F945
:102C400040F60000C2F20000FEF792F940F60000E4
:102C5000C2F20000FEF78CF940F60000C2F200005C
:102C6000FEF786F940F60000C2F20000FEF780F998
:102C7000FFF746FB47F64021C0F600010120FFF7B1
:102C8000DFFA10B104B0BDE8F081AB699A68009733
:102C900042F6115305324046C0F600034FF49871D6
:102CA000FDF726FF2023206083F3118840F6000003
:102CB000C2F200000221FEF793F9FDF789FE00231E
:102CC00083F31188FFF71CFB40F60003C2F20003F8
:102CD000022099684B1E5942594104B0BDE8F041A9
:102CE000FFF796BAAFF30080AFF30080AFF3008038
:102CF00010B540F60004C2F200042046FEF7F0F8DA
:102D00002046FEF735F9002010BD00BFAFF300806C
:102D100010B5044640F60000C2F20000FEF7E0F8ED
:102D20002078FFF75DFA002010BD00BFAFF30080F0
:102D300040F60000C2F200000021FEF781B800BF9B
:102D400040F60000C2F200000021FEF779B800BF93
:102D500040F60000C2F200000021FEF771B800BF8B
:102D600008B53220FDF744FF202383F3118840F695
:102D70000000C2F20000FEF71BF9FDF729FE002358
:102D800083F31188002008BDAFF30080AFF300800B
:102D900008B5202383F311888368002B06DDFDF737
:102DA00017FE002383F31188002008BDFEF700F909
:102DB000F5E700BFAFF30080AFF30080AFF3008012
:102DC00000B587B003A80021FEF73AF803A8002158
:102DD000FEF756F805990029CCBF002101210120FA
:102DE000FFF716FA10B107B05DF804FB40F60822B1
:102DF000C2F2000247F2A0739269C0F60003926823
:102E0000186803AB009342F691534FF49871013A5E
:102E1000C0F60003FDF76CFE41F26403C2F200034A
:102E2000186003A8FEF75CF805990029CCBF0021C3
:102E300001210220FFF7ECF90028D4D1202383F3ED
:102E40001188059B002B37DDFDF7C2FD002383F3BE
:102E5000118805990029D4BF002101210320FFF723
:102E6000D7F90028BFD10599B1F1010EDEF10001BB
:102E700051EB0E010420FFF7CBF90028B3D120233A
:102E800083F31188059B002B1ADDFDF7A1FD0023BC
:102E900083F3118805990029D4BF00210121032063
:102EA000FFF7B6F900289ED105994A1E51425141BB
:102EB0000520FFF7ADF996E703A8FEF779F8C3E719
:102EC00003A8FEF775F8E0E7AFF30080AFF30080EA
:102ED00070B540F60004C2F2000482B00021204622
:102EE000FEF736F8B0F1FF36714271410120FFF76D
:102EF0008FF908B102B070BD21680D1B69426941AC
:102F00000220FFF785F90028F4D1A168D1F1010171
:102F100038BF00210320FFF77BF90028EAD140F6F3
:102F20000822C2F2000247F2A0739269C0F60003C1
:102F300092681968009042F66153013A0846C0F65B
:102F400000034FF49871FDF7D3FD41F26403C2F220
:102F500000034FF4FA7118602046FDF7F9FF0546AB
:102F6000FFF7CEF9D5F1010138BF00210420FFF7AA
:102F70004FF90028BED121680A1B5142514105205A
:102F8000FFF746F90028B5D1A168D1F1010138BF9A
:102F900000210620FFF73CF90028ABD1FFF7F8F934
:102FA00040F6F813C2F200034125DE682846FFF719
:102FB00017F940F600004FF4FA71C2F20000FDF775
:102FC000C7FFB0F1FF33594259410720FFF720F9FD
:102FD00000288FD12168B1EB040CDCF1000151EB2A
:102FE0000C010820FFF714F9002883D1A168D1F162
:102FF00001014FF0090038BF0021FFF709F9013541
:10300000EDB200287FF476AF462DCFD147F64021B0
:10301000C0F600010A20FFF713F900287FF46AAF19
:103020000B2006F6C41106F6C91202B0BDE87040C6
:10303000FFF736B9AFF30080AFF30080AFF3008045
:1030400010B540F60822C2F2000247F2A07392695E
:10305000C0F6000382B092681868002142F6F1437E
:1030600001320091C0F600034FF49871FDF740FD66
:1030700041F26403C2F2000340F60004C2F200040D
:10308000186021462046FDF7C3FF2168B1EB040C10
:10309000DCF1000151EB0C010120FFF7B9F808B198
:1030A00002B010BDA168D1F1010138BF002102209A
:1030B000FFF7AEF80028F3D121462046FDF7A8FF20
:1030C0002168B1EB040EDEF1000151EB0E0103208B
:1030D000FFF79EF80028E3D1A168D1F101014FF07C
:1030E000040038BF002102B0BDE81040FFF790B8DF
:1030F000F0B540F60827C2F2000740F60C00BB69A5
:1031000085B0C2F2000047F2A0759E68C0F60005C7
:10311000FEF726F847F64421C0F6000143F20123EA
:10312000721C0091C0F600034FF498712868FDF7F7
:10313000DFFC41F264046B68C2F2000447F6302100
:103140000393C0F6000143F201232060B21C0091FA
:10315000C0F600034FF498710398FDF7C9FCAB6803
:10316000606047F634210393C0F6000143F2012367
:10317000F21C0091C0F600034FF498710398FDF71C
:10318000B7FCEB68A06047F638210393C0F6000156
:1031900043F20123321D0091C0F600034FF49871F1
:1031A0000398FDF7A5FC2A69E06047F63C21C0F6CC
:1031B000000143F20123C0F6000310460091721D86
:1031C0004FF49871FDF794FC2061FDF7F9FFFFF7CC
:1031D00097F8BB6999688B1B594259410120FFF749
:1031E00017F808B105B0F0BD47F64021C0F6000160
:1031F000022005B0BDE8F040FFF722B8AFF3008031
:1032000010B5044640F60C00C2F20000FDF7A8FF1E
:103210002078FEF7E5FFFDF7D3FF002010BD00BFCB
:1032200010B5044640F61C00C2F20000FDF798FFFE
:103230002078FEF7D5FFFDF7C3FF002010BD00BFCB
:1032400040F60C00C2F20000FDF71ABFAFF3008099
:1032500040F60C00C2F20000FDF712BFAFF3008091
:1032600008B540F60C00C2F20000FDF709FF40F679
:103270001C00C2F20000BDE80840FDF701BF00BF1E
:1032800008B540F60C00C2F20000FDF7F9FE40F66A
:103290001C00C2F20000BDE80840FDF7F1BE00BF0F
:1032A00040F60C00C2F20000FDF7EABEAFF300806A
:1032B0002DE9F04140F60826C2F2000682B0FFF781
:1032C00067F8B36947F2A0759A68C0F6000540F642
:1032D000F8140027C2F2000443F2F143013A0097C8
:1032E000C0F600034FF498712868D4F80C80FDF7FD
:1032F000FFFBB36969689A68009741F26404C2F2FF
:10330000000443F2D1432060023A0846C0F60003AD
:103310004FF49871FDF7ECFBB369A9689A68606097
:1033200043F27143033A0846C0F600034FF4987124
:103330000097FDF7DDFBA060FEF7E2FF47F6C03126
:10334000C0F600010120FEF77BFF10B102B0BDE81E
:10335000F081022008F1640108F1690202B0BDE8C1
:10336000F041FEF79DBF00BFAFF30080AFF30080D8
:103370002DE9F04140F60826C2F2000682B0FFF7C0
:1033800007F8B36947F2A075C0F600059A68286887
:1033900040F6F8140027C2F2000443F2A143053AB4
:1033A0000097C0F600034FF49871D4F80C80FDF735
:1033B0009FFBB36969689A68009741F26404C2F29E
:1033C000000443F2A1532060043A0846C0F600030B
:1033D0004FF49871FDF78CFBB369A9689A68606037
:1033E00043F27153033A0846C0F600034FF4987154
:1033F0000097FDF77DFBB369E9689A68A06043F226
:103400005153023A0846C0F600034FF498710097F2
:10341000FDF76EFBB36929699A68E06043F22153B6
:10342000013A0846C0F600034FF498710097FDF783
:103430005FFB2061FEF764FF47F64021C0F6000104
:103440000120FEF7FDFE10B102B0BDE8F0810220C0
:1034500008F16E0108F1730202B0BDE8F041FEF719
:103460001FBF00BFAFF30080AFF30080AFF3008059
:1034700008B540F60C00C2F20000FDF771FE2820EE
:10348000FEF756FFFDF79CFE0A20FEF751FF432092
:10349000FEF7A6FE002008BDAFF30080AFF300806A
:1034A00008B540F60C00C2F20000FDF759FE1E20E0
:1034B000FEF73EFFFDF784FE4520FEF791FE00205B
:1034C00008BD00BFAFF30080AFF30080AFF3008012
:1034D00008B51420FDF78CFB2820FEF729FF4220B9
:1034E000FEF77EFE002008BDAFF30080AFF3008042
:1034F00008B52820FDF77CFB40F60C00C2F2000066
:10350000FDF72EFE0A20FEF713FFFDF759FE4120BE
:10351000FEF766FE002008BDAFF30080AFF3008029
:1035200008B53220FDF764FB40F61C00C2F2000033
:10353000FDF716FE0A20FEF7FBFEFDF741FE4120D7
:10354000FEF74EFE002008BDAFF30080AFF3008011
:1035500008B52820FDF74CFB1420FEF7E9FE4220B9
:10356000FEF73EFE002008BDAFF30080AFF3008001
:1035700008B51420FDF73CFB40F61C00C2F2000029
:10358000FDF7EEFD0A20FEF7D3FEFDF719FE4320FE
:10359000FEF726FE002008BDAFF30080AFF30080E9
:1035A00008B50A20FDF724FB40F61C00C2F200001B
:1035B000FDF7D6FD1420FEF7BBFE40F60C00C2F26C
:1035C0000000FDF7CDFD0A20FEF7B2FEFDF7F8FD85
:1035D0000A20FEF7ADFEFDF7F3FD4420FEF700FEE6
:1035E000002008BDAFF30080AFF30080AFF3008090
:1035F00008B59620FDF7FCFA40F60C00C2F2000078
:10360000FDF7AEFDFDF7DCFD002008BDAFF3008047
:1036100008B53220FDF7ECFA40F61C00C2F20000BB
:10362000FDF79EFDFDF7CCFD002008BDAFF3008047
:103630002DE9F04640F60824C2F2000447F2A076D5
:10364000A369C0F6000685B09F68336847F6382145
:103650000393C0F6000107F1010943F211634A46E2
:103660000091C0F600034FF498710398FDF740FAFB
:1036700041F264057668C2F2000547F63C21C0F6C7
:10368000000107F1020A43F2F1532860C0F600037B
:103690005246009130464FF49871FDF729FA686060
:1036A00040F61C00C2F20000FDF75AFDA3699968BC
:1036B000CB1B594259410120FEF7AAFD10B105B0BC
:1036C000BDE8F0866420FDF793FAA3699968B1EB31
:1036D000090CDCF1000151EB0C010220FEF798FD12
:1036E0000028ECD140F60C00C2F20000FDF738FDD6
:1036F000A3699968B1EB090EDEF1000151EB0E01EF
:103700000320FEF785FD0028D9D16420FDF770FA6B
:10371000A3699968B1EB0A02514251410420FEF7B6
:1037200077FD0028CBD1FDF74BFDA3699968B1EB7C
:103730000903594259410520FEF76AFD0028BED110
:103740006420FDF755FAA3699968B1EB090CDCF127
:10375000000151EB0C010620FEF75AFD0028AED106
:10376000FDF796FDA3699968B1EB070EDEF1000144
:1037700051EB0E010720FEF74BFD00289FD1FEF70D
:10378000BFFD47F63022C0F6000243F211630092FB
:10379000C0F600034FF498714A460398FDF7A8F964
:1037A00047F63422C0F6000243F2F1532860C0F617
:1037B00000034FF49871009230465246FDF798F995
:1037C000686040F61C00C2F20000FDF7C9FCA36966
:1037D0009968CA1B514251410820FEF719FD002883
:1037E0007FF46DAF6420FDF703FAA3699968B1EB2C
:1037F0000903594259410920FEF70AFD00287FF4C8
:103800005EAF40F60C00C2F20000FDF7A9FCA36910
:103810009968B1EB090CDCF1000151EB0C010A20B5
:10382000FEF7F6FC00287FF44AAF6420FDF7E0F9CC
:10383000A3699968B1EB0A0EDEF1000151EB0E01AC
:103840000B20FEF7E5FC00287FF439AF202383F33B
:103850001188FDF7EDFCFDF7BBF8002383F3118819
:10386000A3699968B1EB0906714240F608247141D9
:103870000C20C2F20004FEF7CBFC00287FF41FAF3F
:103880006420FDF7B5F9A3699968B1EB09056942B0
:1038900069410D20FEF7BCFC00287FF410AFFDF756
:1038A000F7FCA3699968CA1B514251410E20FEF7EB
:1038B000AFFC00287FF403AF05B0BDE8F046FEF78B
:1038C0001FBD00BFAFF30080AFF30080AFF30080F7
:1038D000F8B540F60825C2F2000540F60C04AB69C5
:1038E000C2F2000420469E68FDF74AFC0146012012
:1038F000FEF78EFC00B1F8BD2046FDF741FC80F0DC
:103900000101C9B20220FEF783FC0028F3D1202375
:1039100083F31188FDF78CFC002383F31188216861
:10392000B1EB040EDEF1000140F60C0751EB0E0185
:103930000320C2F20007FEF76BFC0028DBD1B96858
:10394000D1F1010138BF00210420FEF761FC0028FD
:10395000D1D1AB6999688C1B614261410520FEF7AA
:1039600057FC0028C7D13846FDF7FAFBFDF790FC5D
:103970003968CA1B514251410620FEF749FC002814
:10398000B9D1B968D1F101014FF0070038BF00216A
:10399000BDE8F840FEF73CBCAFF30080AFF3008019
:1039A000F0B540F60823C2F2000347F2A0769B6907
:1039B00083B09F68C0F6000643F6A12547F6442170
:1039C000C0F60005C0F600017A1C2B460091306855
:1039D0004FF49871FDF78CF841F26404C2F20004D0
:1039E0007368206047F63021C0F60001BA1C0091D0
:1039F00018464FF498712B46FDF77AF8B36860606B
:103A000047F63421C0F60001FA1C009118464FF425
:103A100098712B46FDF76CF8F368A06047F63821E3
:103A2000C0F600013A1D009118464FF498712B46DC
:103A3000FDF75EF83369E06047F63C21C0F600010F
:103A400000917A1D18464FF498712B46FDF750F8F7
:103A50002023206183F3118840F62C04C2F2000475
:103A60002046FDF75DFC2046FDF75AFC2046FDF799
:103A700057FC2046FDF754FC2046FDF751FCFCF7AF
:103A8000A7FF002383F31188FEF73AFC47F6402195
:103A9000C0F60001012003B0BDE8F040FEF7D0BB46
:103AA00010B5044640F60C00C2F20000FDF758FBCA
:103AB00040F62C00C2F20000FDF792FC2078FEF7E1
:103AC0008FFBFDF77DFB002010BD00BFAFF3008032
:103AD00008B540F62C00C2F20000FDF701FC40F6EC
:103AE0000C00C2F20000BDE80840FDF7C9BA00BFF3
:103AF00008B540F62C00C2F20000FDF7F1FB40F6DD
:103B00000C00C2F20000BDE80840FDF7B9BA00BFE2
:103B100008B540F62C00C2F20000FDF7E1FB40F6CC
:103B20000C00C2F20000FDF7ABFA40F61C00C2F236
:103B30000000BDE80840FDF7A3BA00BFAFF3008066
:103B4000F0B540F60823C2F2000347F2A0769B6965
:103B500083B09F68C0F6000643F6A12547F64421CE
:103B6000C0F60005C0F600017A1C2B4600913068B3
:103B70004FF49871FCF7BCFF41F26404C2F20004F8
:103B80007368206047F63021C0F60001BA1C00912E
:103B900018464FF498712B46FCF7AAFFB368606093
:103BA00047F63421C0F60001FA1C009118464FF484
:103BB00098712B46FCF79CFFF368A06047F638210C
:103BC000C0F600013A1D009118464FF498712B463B
:103BD000FCF78EFF3369E06047F63C21C0F6000138
:103BE0007A1D009118464FF498712B46FCF780FF20
:103BF000206140F62C00C2F20000FDF7B9FBFEF791
:103C00007FFB47F64021C0F60001012003B0BDE86C
:103C1000F040FEF715BB00BFAFF30080AFF30080AC
:103C2000F0B540F60823C2F2000347F2A0759B6985
:103C300083B09E68C0F6000547F63C21C0F600013F
:103C400043F6D143721C00912868C0F600034FF47C
:103C50009871FCF74DFF41F26404C2F200046F68F2
:103C6000206047F63421C0F6000143F6A123B21CC0
:103C700000913846C0F600034FF49871FCF738FF06
:103C8000AD68606047F63821C0F6000143F2212399
:103C9000F21CC0F60003009128464FF49871FCF71F
:103CA00027FF40F62C05C2F20005A0602846FDF76C
:103CB0001FFB2846FDF71CFBFEF722FB47F6C03131
:103CC000C0F60001012003B0BDE8F040FEF7B8BA2D
:103CD00010B5044640F61C00C2F20000FDF740FAA1
:103CE00040F60C00C2F20000FDF73AFA40F62C0054
:103CF0004FF0FF31C2F20000FDF7AAFB2078FEF77B
:103D00006FFAFDF75DFAFDF75BFA002010BD00BF0A
:103D100010B540F60822C2F2000247F2A073916982
:103D2000C0F6000382B08A681868009143F6A15378
:103D300001324FF49871C0F60003FCF7D9FE41F24E
:103D40006403C2F200031860FDF75AFD446B21467C
:103D5000FDF776FDE0B2FEF743FAFDF751FD446B47
:103D60002146FDF76DFDE0B2FEF73AFAFDF748FD9A
:103D7000446B2146FDF764FDE0B2FEF731FA47F6E9
:103D8000C031C0F60001012002B0BDE81040FEF7CE
:103D900057BA00BFAFF30080AFF30080AFF30080ED
:103DA00010B541210446FDF70BFD20464221FDF7E9
:103DB00007FD20464321FDF703FD002010BD00BF95
:103DC00070B540F63405C2F2000582B0696AB1F1FF
:103DD000050EDEF1000151EB0E010120FEF718FA8D
:103DE00028BB422440F634002146C2F200004FF0C6
:103DF000FF32FDF78DFDD0F1010138BF0021022017
:103E00000134FEF705FA90B9462CEBD140F63400A8
:103E10004121C2F200004FF0FF32FDF7C9FDD0F1A1
:103E2000010138BF00210320FEF7F2F908B102B00A
:103E300070BD40F634005821C2F200000122FDF7A7
:103E400067FDB0F1FF36714271410420FEF7E0F9E1
:103E50000028ECD1202383F3118840F63400582148
:103E6000C2F20000FDF764FD0023014683F31188D0
:103E7000B1F1FF34614261410520FEF7C9F9002824
:103E8000D5D140F6340058210122C2F20000FDF7DE
:103E90008FFDB0F1FF32514251410620FEF7B8F9D3
:103EA0000028C4D1202383F3118840F63400582120
:103EB000C2F20000FDF78CFD0023014683F3118858
:103EC000B1F1FF33594259410720FEF7A1F900280B
:103ED000ADD1202383F31188696AD1F101014FF03C
:103EE000080038BF0021FEF793F9034618B10023FC
:103EF00083F311889BE783F31188202383F31188D0
:103F0000A969B1F1050CDCF100014FF0090051EB9A
:103F10000C01FEF77DF903460028E8D183F31188F0
:103F2000202383F31188E968AB68B1EB030EDEF15F
:103F300000014FF00A0051EB0E01FEF769F9002372
:103F40000028D5D183F31188052605E09DF80400EB
:103F5000FEF746F9013E13D040F63404C2F20004E5
:103F600001A920464FF0FF32FDF772FDD0F10101AB
:103F700038BF00210B20FEF74BF90028E6D056E7AA
:103F800047F64021C0F600010C20FEF759F9002841
:103F90007FF44DAF472120464FF0FF32FDF7B8FCCC
:103FA000D0F1010138BF00210D20FEF731F90028C2
:103FB0007FF43DAF01A920464FF0FF32FDF748FDE9
:103FC000D0F1010138BF00210E20FEF721F90028B1
:103FD0007FF42DAF2168A368CE1A714271410F2082
:103FE000FEF716F900287FF422AF2168E368CA1AA9
:103FF000514251411020FEF70BF900287FF417AF12
:1040000001A920460122FDF723FDB0F1FF335942FB
:1040100059411120FEF7FCF800287FF408AF202357
:1040200083F3118840F6340001A9C2F20000FDF7C5
:104030001FFD0023014683F31188B1F1FF3CDCF141
:10404000000151EB0C011220FEF7E2F800287FF48A
:10405000EEAE202383F31188696AB1F1050EDEF11B
:1040600000014FF0130051EB0E01FEF7D1F80023D1
:1040700000287FF43DAF83F31188202383F3118858
:10408000A969D1F101014FF0140038BF0021FEF7FA
:10409000BFF8034600287FF42AAF83F3118820235A
:1040A00083F31188E968AB68CE1A71424FF01500AE
:1040B0007141FEF7ADF8034600287FF418AF83F393
:1040C0001188202383F3118840F634004121C2F285
:1040D0000000FDF72DFCD0F1010138BF00211620B2
:1040E000FEF796F800287FF4A2AE40F63400422195
:1040F000C2F20000FDF71CFCD0F1010138BF002125
:104100001720FEF785F800287FF491AE40F63400C2
:104110004321C2F20000FDF70BFCD0F1010138BFD2
:1041200000211820FEF774F800287FF480AE40F6D6
:1041300034004421C2F20000FDF7FAFBD0F1010186
:1041400038BF00211920FEF763F8044600287FF4E9
:104150006EAE40F634004521C2F20000FDF7E8FBE8
:104160002346014683F31188D1F1010138BF0021B4
:104170001A20FEF74DF800287FF459AEE968AB68C5
:10418000CC1A614261411B20FEF742F800287FF4FF
:104190004EAE0524202383F3118840F6340001A994
:1041A000C2F20000FDF764FC0023014683F311888E
:1041B000D1F1010138BF00211C20FEF729F80028A9
:1041C0007FF435AE9DF80400FEF70AF8013CE1D11A
:1041D00047F64021C0F600011D20FEF731F8002807
:1041E0007FF425AE202383F31188696A4A1F514268
:1041F0004FF01E005141FEF70BF8034600287FF4F4
:1042000076AE83F31188202383F31188A969D1F155
:1042100001014FF01F0038BF0021FDF7F9FF0346F1
:1042200000287FF464AE83F31188E968AB68CB1A89
:10423000594259412020FDF7EBFF00287FF4F7ADEC
:10424000202383F3118840F634004521C2F2000098
:10425000FDF7BEFBD0F1010138BF00212120FDF7A1
:10426000D7FF00287FF4E3AD40F634004421C2F2CA
:104270000000FDF7ADFBD0F1010138BF0021222085
:10428000FDF7C6FF00287FF4D2AD40F6340043218D
:10429000C2F20000FDF79CFBD0F1010138BF002104
:1042A0002320FDF7B5FF00287FF4C1AD40F63400B0
:1042B0004221C2F20000FDF78BFBD0F1010138BFB3
:1042C00000212420FDF7A4FF00287FF4B0AD40F6C4
:1042D00034004121C2F20000FDF77AFB00230146C1
:1042E00083F31188D1F1010138BF00212520FDF7AA
:1042F0008FFF00287FF49BADE968AB68B1EB030C3E
:10430000DCF1000151EB0C012620FDF781FF0028B4
:104310007FF48DAD0524202383F3118840F634000B
:1043200001A9C2F20000FDF7A3FB0023014683F3BD
:104330001188D1F1010138BF00212720FDF768FF66
:1043400000287FF474AD9DF80400FDF749FF013C9F
:10435000E1D147F64021C0F600012820FDF770FFAB
:1043600000287FF464AD202383F31188696AB1F1DA
:10437000050EDEF100014FF0290051EB0E01FDF7B3
:1043800047FF034600287FF4B2AD83F31188202352
:1043900083F31188A969D1F101014FF02A0038BFD8
:1043A0000021FDF735FF034600287FF4A0AD83F31D
:1043B0001188E968AB68CE1A714271412B20FDF774
:1043C00027FF00287FF433AD40F63400C2F200002E
:1043D000FDF75EFA202383F31188696A4C1F61425E
:1043E0004FF02C006141FDF713FF034600287FF4D6
:1043F0007EAD83F31188202383F31188A969D1F15D
:1044000001014FF02D0038BF0021FDF701FF0346E9
:1044100000287FF46CAD83F31188202383F3118887
:104420002968AB68CA1A51424FF02E005141FDF77E
:10443000EFFE034600287FF45AAD83F31188202352
:1044400083F311882968EB68CB1A594259412F2010
:10445000FDF7DEFE4BE500BFAFF30080AFF3008059
:1044600040F6340040F65021C2F20000C2F20001D2
:104470000522FDF7F5B900BFAFF30080AFF3008070
:1044800010B540F65C0488B0C2F2000420466946CC
:1044900001222460FCF7ECFF204604A90222FCF76D
:1044A000E7FF2168091B18BF01210120FDF7B0FEBD
:1044B00008B108B010BD69462046FCF7F1FF21683D
:1044C000091B18BF01210220FDF7A2FE0028F0D130
:1044D00004A92046FCF7E4FF21680B1B594259410F
:1044E0000320FDF795FE0028E3D147F62060C0F6D3
:1044F00000000721FDF75CF847F6C031C0F6000167
:104500000420FDF79DFED4E7AFF30080AFF30080F9
:104510004320FDF765BE00BFAFF30080AFF300801E
:104520004220FDF75DBE00BFAFF30080AFF3008017
:104530004120FDF755BE00BFAFF30080AFF3008010
:104540004FF0FF30FCF7C4BFAFF30080AFF3008043
:104550004FF0FF30FCF7BCBFAFF30080AFF300803B
:104560004FF0FF30FCF7B4BFAFF30080AFF3008033
:104570002DE9F04305208DB0FCF7C2FF4FF0FF306E
:10458000FDF72EF8B0F10109D9F1000151EB090155
:104590000120FDF73DFE10B10DB0BDE8F0834FF0F6
:1045A000FF30FDF71DF8B0F10408D8F1000151EB20
:1045B00008010220FDF72CFE0028EDD14FF0FF305E
:1045C000FCF786FFD0F1010138BF00210320FDF781
:1045D0001FFE0028E0D140F60825FDF7D9FEC2F203
:1045E000000547F2A073C0F60003A9691B688A683A
:1045F000039340F6F816C2F2000644F62103013A8E
:104600000091C0F600034FF498710398F76841F2E7
:104610006404FCF76DFAC2F2000420604FF0FF3032
:10462000FCF7DEFF07F13201814607F13702042073
:10463000FDF736FE0028AFD1B9F1010CDCF1000125
:1046400051EB0C010520FDF7E3FD0028A4D14FF04C
:10465000FF30FCF73DFFD0F1010138BF00210620FB
:10466000FDF7D6FD002897D1FDF74AFE0520FCF79F
:1046700047FF4FF0FF30FCF7D3FFB0F1050EDEF13E
:10468000000151EB0E010720FDF7C2FD002883D188
:104690004FF0FF30FCF71CFFD0F1010138BF0021C3
:1046A0000820FDF7B5FD00287FF476AFFDF770FE1A
:1046B000AB6903989A68009344F62103013A4FF4DA
:1046C0009871C0F60003D6F80C80FCF711FA206050
:1046D0004FF0FF30FCF7A4FF08F13201814608F1EA
:1046E00037020920FDF7DCFD00287FF455AFB9F152
:1046F0000107794279410A20FDF78AFD00287FF4FD
:104700004BAF4FF0FF30FCF7E3FED0F1010138BFB3
:1047100000210B20FDF77CFD00287FF43DAF40F623
:104720005C0940F66008C2F20009C2F20008FDF719
:10473000E7FD484604A90122C9F80090C8F80080A6
:10474000FCF796FE08A904224046FCF791FEFDF70F
:104750001FFEAB6903989A68F56847F63C21C0F6DE
:10476000000144F2F173013A0091C0F600034FF4E6
:104770009871FCF7BDF920600520FCF771FF05F189
:10478000320105F137020C20FDF78AFD00287FF485
:1047900003AF4FF0FF30FCF79BFED0F1010138BFB3
:1047A00000210D20FDF734FD00287FF4F5AEFDF764
:1047B000A7FD484604A9FCF773FE404608A9FCF78C
:1047C0006FFED9F80010B1EB0904614261410E207F
:1047D000FDF71EFD00287FF4DFAED8F80010B1EB26
:1047E0000802514251410F20FDF712FDD4E600BFEF
:1047F00008B540F65C000021C2F20000FCF7C8FEDC
:104800003220FCF7F5F940F66000C2F2000000210A
:10481000FCF7BEFE002008BDAFF30080AFF30080C0
:1048200010B504463220FCF7E3F920460121FCF7DD
:104830009FFE002010BD00BFAFF30080AFF30080EB
:1048400008B500214FF0FF30FCF72AFFD0F101013D
:1048500038BF00210120FDF7DBFC00B108BD014697
:104860004FF0FF30FCF74CFFD0F1010138BF0021C1
:104870000220FDF7CDFC0028F0D101464FF0FF30BB
:10488000FCF76EFFD0F1010138BF00210320FDF7D6
:10489000BFFC0028E2D10A214FF0FF30FCF700FFF7
:1048A000D0F1010138BF00210420FDF7B1FC002840
:1048B000D4D10A214FF0FF30FCF722FFD0F10101E3
:1048C00038BF00210520FDF7A3FC0028C6D10A212E
:1048D0004FF0FF30FCF744FFD0F1010138BF002159
:1048E0000620BDE80840FDF793BC00BFAFF3008091
:1048F00070B582B0FDF7A4FA01A90020FDF768FBAE
:1049000010210020FDF7CCFA011C044618BF01213C
:104910000120FDF77DFC054608B102B070BD2046C0
:10492000FDF706FB6FF0FF012846FDF7B9FAD0F15D
:10493000010138BF00210220FDF76AFC0028ECD1FC
:1049400041F2900001A9C2F20000FDF741FB41F2E3
:1049500090001021C2F20000FDF7A2FA054641F2D4
:1049600090001021C2F20000FDF79AFA044641F2CD
:1049700090001021C2F20000FDF792FA0646284688
:10498000FDF7D6FA2046FDF7D3FA3046FDF7D0FA08
:1049900041F290006946C2F20000FDF719FB421E89
:1049A000514251410320FDF733FC0028B5D141F2BB
:1049B00090001021C2F20000FDF772FA044641F2A5
:1049C00090001021C2F20000FDF76AFA054641F29C
:1049D00090001021C2F20000FDF762FAFDF7A8FA7C
:1049E0002846FDF7A5FA2046FDF7A2FA41F290000D
:1049F0006946C2F20000FDF7EBFA431E59425941E5
:104A00000420FDF705FC002887D141F29000112118
:104A1000C2F20000FDF744FA044641F29000102172
:104A2000C2F20000FDF73CFA05462046FDF780FA89
:104A300041F290006946C2F20000FDF7C9FAB0F1F8
:104A4000020CDCF1000151EB0C010520FDF7E0FB4D
:104A500000287FF462AF41F290001021C2F2000002
:104A6000FDF71EFA044641F290006946C2F20000CA
:104A7000FDF7AEFA012808BF01460CD041F29000C4
:104A80006946C2F20000FDF7A3FAB0F1020EDEF1B2
:104A9000000151EB0E010620FDF7BAFB00287FF460
:104AA0003CAF2846FDF744FA2046FDF741FA41F2B3
:104AB00090006946C2F20000FDF78AFA461E714274
:104AC00071410720FDF7A4FB00287FF426AF41F2D7
:104AD00090001021C2F20000FDF7E2F9054641F214
:104AE00090001021C2F20000FDF7DAF904462846D2
:104AF000FDF71EFA41F290006946C2F20000FDF790
:104B000067FA851E694269410820FDF781FB00288C
:104B10007FF403AF41F290002021C2F20000FDF7C4
:104B2000BFF9FDF705FA2046FDF702FA41F29000C1
:104B30006946C2F20000FDF74BFA0138414241419B
:104B40000920FDF765FB00287FF4E7AE41F29000F5
:104B50006946C2F20000FDF73BFA41F2900000996D
:104B6000C2F20000FDF79CF9044641F2900069464C
:104B7000C2F20000FDF72CFAD0F1010138BF00218C
:104B80000A20FDF745FB00287FF4C7AE2046FDF75D
:104B9000CFF941F290006946C2F20000FDF718FA21
:104BA000421E514251410B20FDF732FB00287FF499
:104BB000B4AE9DE80A00CB1A594259410C20FDF7CA
:104BC00027FBAAE6AFF30080AFF30080AFF30080CD
:104BD00041F2900040F65021C2F20000C2F2000102
:104BE0004FF4BE62FDF74CB9AFF30080AFF3008025
:104BF00000207047AFF30080AFF30080AFF3008078
:104C000040F66400C2F200004FF498710022FDF7F4
:104C100007BA00BFAFF30080AFF30080AFF30080AE
:104C200038B547F2A073C0F6000340F664001D6873
:104C3000C2F2000029460522FDF7FAF9052440F6E4
:104C40006400C2F20000FDF70BFA011C18BF01213D
:104C50000120FDF7DDFA002846D1013CEFD140F6F6
:104C60006400C2F20000FDF7FBF9D0F1010138BF8A
:104C700000210220FDF7CCFAB0BB47F2A074C0F6C9
:104C8000000440F664002946C2F2000004F1100559
:104C9000FDF7FEF9AC4209D054F8041F40F6640059
:104CA000C2F20000FDF7F4F9AC42F5D1052440F65C
:104CB0006400C2F20000FDF7D3F9011C18BF012106
:104CC0000320FDF7A5FA78B9013CF0D140F6640065
:104CD000C2F20000FDF7C4F9D0F1010138BF002194
:104CE0000420FDF795FA00B138BD40F6640044F6A3
:104CF000F1321021C2F20000C0F60002FDF790F977
:104D000040F66400C2F20000FDF7AAF9D0F10101FB
:104D100038BF00210520BDE83840FDF779BA00BF53
:104D200070B540F60823C2F2000384B09B6941F2DB
:104D3000C00003A9C2F200009D68FDF749F947F6DB
:104D40003C21C0F6000141F2C00044F651636A1EE6
:104D50000091C0F600034FF49871C2F20000FCF716
:104D600007F841F26404C2F2000447F638212060DB
:104D7000C0F6000141F2C00044F65163AA1EC0F61D
:104D800000030091C2F200004FF49871FBF7F0FFAE
:104D9000606041F2C00002A9C2F20000FDF718F9FC
:104DA00041F2C0000299C2F20000FDF779F847F61F
:104DB00034210646C0F6000141F2C00044F65163BA
:104DC000EA1E0091C0F600034FF49871C2F2000091
:104DD000FBF7CEFFA0603046FDF7AAF8216821B1AD
:104DE000616811B1A16849B300210120FDF710FAF3
:104DF00008B104B070BDFDF783FA47F60071C0F644
:104E000000010220FDF71CFA0028F2D141F2C00097
:104E100002A9C2F20000FDF7DBF8421E51425141E7
:104E20000320FDF7F5F90028E3D10299039BCB1A83
:104E3000594259410420FDF7EBF9DAE7E368002B0A
:104E4000D3D12169D1F1010138BF0021CDE700BFE5
:104E500008B50078FDF7C4F9002008BDAFF3008065
:104E600041F2C00040F65021C2F20000C2F200013F
:104E70004FF4BE62FDF704B8AFF30080AFF30080DB
:104E800041F2C00040F65021C2F20000C2F200011F
:104E90004FF4BE62FCF7F4BFAFF30080AFF30080C5
:104EA00040F60823C2F2000370B59B694E4C9D6822
:104EB00004F1100654F8041F41F2B000C2F20000E1
:104EC000FDF7E6F8B442F5D141F2B00044F6516284
:104ED00047F63C23C0F60002C0F60003691EC2F28A
:104EE0000000FBF765FF41F26404C2F2000444F6DF
:104EF0005162206047F6382341F2B000C0F600024C
:104F0000C0F60003A91EC2F20000FBF751FF44F6F1
:104F10005162606047F6342341F2B000C0F60002EF
:104F2000C0F60003E91EC2F20000FBF741FF44F6A1
:104F30005162A06047F6302341F2B000C0F6000293
:104F4000C0F60003291FC2F20000FBF731FF44F650
:104F50005162E06047F6442341F2B000691FC2F29B
:104F60000000C0F60002C0F60003FBF721FF216835
:104F7000206149B1616839B1A16829B1E16819B10D
:104F8000D0F1010138BF00210120FDF741F900B146
:104F900070BDFDF7B5F947F60471C0F600010220B7
:104FA000FDF74EF90028F3D1042441F2B000C2F21B
:104FB0000000FDF755F8011C18BF01210320FDF783
:104FC00027F90028E4D1013CEFD141F2B000C2F250
:104FD0000000FDF745F8D0F1010138BF00210420A1
:104FE000BDE87040FDF714B99C770008AFF300806E
:104FF00041F2B000C2F200004FF498710022FDF7B8
:105000000FB800BFAFF30080AFF30080AFF30080B4
:1050100038B50546FBF7ECFE002403461846AB42C4
:1050200008BF44F00104FBF7F3FE03460028F5D166
:10503000204638BDAFF30080AFF30080AFF30080AF
:1050400010B540F60823C2F2000382B09B6947F610
:105050003C219A68C0F6000141F2C00044F6516359
:10506000013A0091C2F200004FF49871C0F60003BB
:10507000FBF77EFE04460120A17F0A1A51425141EE
:10508000FDF7C6F808B102B010BD2046FBF738FEA8
:10509000A17F02200B1A59425941FDF7B9F80028A7
:1050A000F1D12046FBF73CFEA17FB1F1010CDCF110
:1050B000000151EB0C010320FDF7AAF80028E2D112
:1050C0002046FFF7A5FF01460420FDF7A1F80028C0
:1050D000D9D12046FFF79CFF01460520FDF798F83F
:1050E0000028D0D12046FBF71BFEA17FD1F10101A2
:1050F00038BF00210620FDF78BF80028C3D1217F9F
:10510000D1F1010138BF00210720FDF781F8002807
:10511000B9D12046FFF77CFF01460820FDF778F85B
:105120000028B0D12046FFF773FF01460920FDF7A4
:105130006FF80028A7D13220FBF75AFD217FB1F18B
:105140000E0EDEF1000151EB0E010A20FDF760F8B2
:10515000002898D12046FFF75BFF01460B20FDF7A2
:1051600057F800288FD12046FFF752FF80F0010149
:10517000C9B20C2002B0BDE81040FDF749B800BF2D
:10518000704700BFAFF30080AFF30080AFF3008043
:1051900008B540F69400C821C2F20000FCF7F0FC0C
:1051A000002008BDAFF30080AFF30080AFF30080B4
:1051B00000B547F2A073C0F6000383B0196800225F
:1051C00040F6940045F281130092C2F20000C0F64E
:1051D00000030422FCF784FC03B05DF804FB00BF6D
:1051E00008B540F670000021C822C2F20000FCF7AA
:1051F00057FD002008BD00BFAFF30080AFF3008073
:1052000000B547F2A073C0F6000383B0196800220E
:1052100040F6700045F281130092C2F20000C0F621
:1052200000030422FCF714FD03B05DF804FB00BF8B
:1052300070B5202382B083F3118840F69405C2F242
:1052400000050120A968D1F1010138BF0021FCF758
:10525000DFFF064628BB034683F31188202383F330
:1052600011884124214640F694000134C2F2000026
:10527000E4B2FCF75DFC452CF4D1002383F31188E4
:10528000202383F311886969AA6940F69403914247
:10529000C2F2000300F0298131460220FCF7B8FF7A
:1052A00020B1002383F3118802B070BD034683F35D
:1052B0001188202383F3118840F694000021C2F264
:1052C0000000FCF735FC043014BF0021012103204D
:1052D000FCF79EFF0028E4D1034683F311880424E1
:1052E00040F694004FF0FF31C2F20000FCF748FC9A
:1052F000C0B2FCF775FF013CF2D1202383F3118883
:10530000A968D1F1010138BF00210420FCF780FF1A
:105310000028C6D1034683F3118847F60471C0F60E
:1053200000010520FCF78CFF0028BDD1202383F36A
:1053300011884124214640F694000134C2F2000055
:10534000E4B2FCF7F5FB452CF4D1002383F311887C
:1053500047F2A074C0F6000440F694006168C2F2FF
:1053600000000822FCF734FC061F71427141062040
:10537000FCF74EFF002897D1202383F31188A968FA
:10538000D1F1010138BF00210720FCF741FF0028BF
:1053900087D1034683F31188202383F311884126A4
:1053A000314640F694000136C2F20000F6B2FCF736
:1053B000BFFB452EF4D1002383F31188666840F6C5
:1053C000940031460222C2F20000FCF701FC0238D0
:1053D000414241410820FCF71BFF034600287FF4AF
:1053E00063AF40F6940031460222C2F20000FCF79F
:1053F000EFFB821E514251410920FCF709FF0028B2
:105400007FF452AF202383F31188A968D1F1010101
:105410004FF00A0038BF0021FCF7FAFE03460028CF
:105420007FF43FAF83F31188202383F3118840F684
:1054300094000021C2F20000FCF77AFB40F69400D1
:10544000C2F20000FCF75CFB002383F311882023E9
:1054500083F31188A968D1F101014FF00B0038BF27
:105460000021FCF7D5FE034600287FF41AAF83F332
:10547000118840F60823C2F2000300219B692068CE
:105480009A68009145F291130132C0F600034FF47F
:105490009871FBF72DFB41F26402C2F20002202357
:1054A000106083F31188A968D1F101014FF00C005D
:1054B00038BF0021FCF7ACFE034600287FF4F1AEB4
:1054C00083F31188FCF71CFF40F694000A21C2F216
:1054D0000000FCF755FBB0F1FF33594259410D2054
:1054E00002B0BDE87040FCF793BE9E68003618BF5E
:1054F0000126D1E6AFF30080AFF30080AFF3008068
:1055000070B5202382B083F3118840F67005C2F293
:1055100000056A69AB699A4218BF002100F0198141
:105520000120FCF775FE002844D1034683F311885F
:105530004124214640F670000134C2F200004FF0D1
:10554000FF32E4B2FCF7ACFB452CF2D1202383F30D
:105550001188A968D1F101014FF0020038BF002184
:10556000FCF756FE064628BB034683F31188042445
:10557000202383F3118840F67000C2F20000FCF78C
:10558000BFFB002383F31188C0B2FCF729FE013C66
:10559000EED1202383F311886969AA6940F670036C
:1055A0009142C2F2000300F0D98031460320FCF79B
:1055B0002FFE20B1002383F3118802B070BD034693
:1055C00083F3118847F60471C0F600010420FCF74C
:1055D00037FE0028F1D1202383F3118840F67000B4
:1055E000C2F20000FCF78CFB033014BF0021012144
:1055F0000520FCF70DFE0028DCD1034683F311885B
:1056000047F2A074C0F6000440F670006168C2F270
:10561000000008220023FCF79BFB061F714271412A
:105620000620FCF7F5FD0028C7D1202383F311885D
:10563000A968D1F1010138BF00210720FCF7E8FD7E
:105640000028B7D1034683F3118840F60823C2F23D
:10565000000300219B6920689A68009145F2E113DC
:105660000132C0F600034FF49871FBF741FA41F2A2
:105670006402C2F200022023106083F311882969BA
:10568000EA68AB688A1AD11A081F414241410820D2
:10569000FCF7BEFD034600288CD183F31188FCF78C
:1056A0002FFE202383F3118840F67000C2F2000021
:1056B000FCF7DEFA002383F31188202383F311889B
:1056C000EA682969AB68891ACA1A5142514109200E
:1056D000FCF79EFD034600287FF46CAF83F311882E
:1056E000646840F67000214602220023C2F20000E6
:1056F000FCF72EFB831E594259410A20FCF788FD16
:10570000034600287FF459AF40F670002146C2F2EC
:1057100000000222FCF71CFBB0F1020CDCF10001DE
:1057200051EB0C010B20FCF773FD00287FF445AF13
:10573000202383F31188A968D1F101014FF00C00F7
:1057400038BF0021FCF764FD002360B183F31188AA
:1057500033E7A968003118BF0121E1E69E680036F1
:1057600018BF012621E783F3118840F6700000215D
:105770000A22C2F20000FCF793FAB0F1FF3EDEF11C
:10578000000151EB0E010D2002B0BDE87040FCF7A6
:105790003FBD00BFAFF30080AFF30080AFF30080E8
:1057A000704700BFAFF30080AFF30080AFF300801D
:1057B000704700BFAFF30080AFF30080AFF300800D
:1057C00048F2600010B5C0F6000048F27004C0F660
:1057D0000004FCF7CDFC4FF4CA70FCF791FC2046A6
:1057E000FCF7DEFC48F27800C0F60000FCF7C0FCD5
:1057F0004820FCF785FC2046FCF7D2FC48F28800E4
:10580000C0F60000FCF7B4FC1420FCF779FC20463D
:10581000FCF7C6FC48F29800C0F60000FCF7A8FCB4
:105820000C20FCF76DFC2046FCF7BAFC48F2A800FF
:10583000C0F60000FCF79CFC0420FCF761FC20464D
:10584000FCF7AEFC48F2B800C0F60000FCF790FC94
:105850001020FCF755FC2046FCF7A2FC48F2C800DB
:10586000C0F60000FCF784FC1020FCF749FC204641
:10587000FCF796FC48F2D800C0F60000FCF778FC74
:105880000820FCF73DFC2046FCF78AFC48F2E800C3
:10589000C0F60000FCF76CFC2420FCF731FC20462D
:1058A000FCF77EFC48F2F800C0F60000FCF760FC54
:1058B0002820FCF725FC2046BDE81040FCF770BC12
:1058C00010B5FBF79DFF446B2146FBF7B9FF002C99
:1058D000F7D1204610BD00BFAFF30080AFF30080CA
:1058E0002DE9F04140F60822C2F2000247F2A0730F
:1058F0009269C0F6000382B09768D3F80080FCF785
:1059000047FD4FF47A70FCF753FD002441F2450542
:1059100001372646C2F2000545F2A173C0F6000326
:10592000009640464FF498713A46FBF7E1F82B7821
:105930000134002BF0D048F20810C0F60000FCF74C
:1059400017FC2046FCF7DCFB48F21810C0F60000FC
:1059500002B0BDE8F041FCF723BC00BFAFF300800C
:1059600070B50646FCF714FD4FF47A70FCF720FD85
:1059700041F24505C2F20005002430460121FBF743
:105980001FFF2B780134002BF7D030460021FBF7A6
:1059900017FF204670BD00BFAFF30080AFF300805B
:1059A00010B540F60822C2F2000247F2A0739269D5
:1059B000C0F6000382B092681868002145F6C10362
:1059C000013A0091C0F600034FF49871FBF790F88C
:1059D00041F26403C2F200031860FFF7C1FF0446FE
:1059E000FCF78EFC48F20810C0F60000FCF7C0FB84
:1059F0002046FCF785FB48F22410C0F60000FCF7B7
:105A0000B7FB6000FCF77CFB48F23010C0F60000EA
:105A100002B0BDE81040FCF7C3BB00BFAFF300808D
:105A200010B540F60822C2F2000247F2A073926954
:105A3000C0F6000382B092681868002145F6C103E1
:105A400001320091C0F600034FF49871FBF750F853
:105A500041F26403C2F200031860FFF781FF0446BD
:105A6000FCF74EFC48F20810C0F60000FCF780FB83
:105A70002046FCF745FB48F22410C0F60000FCF776
:105A800077FB6000FCF73CFB48F23010C0F60000EA
:105A900002B0BDE81040FCF783BB00BFAFF300804D
:105AA0002DE9F04140F60826C2F2000647F2A07543
:105AB000B36982B0C0F600059A6828684FF0000804
:105AC00045F6C1030132CDF80080C0F600034FF463
:105AD0009871FBF70DF8B2696B689268CDF8008099
