:020000040800F2
:100000000004002041040008310500083105000803
:1000100031050008310500083105000831050008E8
:100020003105000831050008310500088105000888
:1000300031050008310500083105000851050008A8
:1000400031050008310500083105000831050008B8
:1000500031050008310500083105000831050008A8
:10006000310500083105000831050008412C000861
:10007000A12C0008012D0008612D0008C12D0008E9
:10008000212E0008812E00083105000831050008E6
:100090003105000831050008310500083105000868
:1000A0003105000831050008310500083105000858
:1000B0003105000831050008310500083105000848
:1000C0003105000831050008310500083105000838
:1000D00031050008310500085147000831050008C6
:1000E0003105000831050008310500083105000818
:1000F000310500083105000831050008E12E00082F
:1001000031050008713A0008310500083105000882
:1001100031050008310500083105000831050008E7
:10012000412F0008A12F00080130000861300008AD
:10013000C13000083105000831050008310500080C
:1001400031050008310500083105000831050008B7
:100150002131000881310008E13100083105000833
:100160003105000831050008310500083105000897
:100170003105000831050008310500083105000887
:080180003105000831050008FB
:10019000032A70B414D940EA01039B0711D10C461D
:1001A000034625681E68AE422146184604F1040441
:1001B00003F1040304D1043A032A18462146F0D877
:1001C000C2B105780C78A54204BF02F1FF320023CA
:1001D00006D00CE010F8015F11F8014FA54206D1DE
:1001E000934203F10103F5D1002070BC7047281B36
:1001F00070BC70471046F8E70000000000000000E7
:10020000844641EA000313F003036DD1403A41D321
:1002100051F8043B40F8043B51F8043B40F8043BE0
:1002200051F8043B40F8043B51F8043B40F8043BD0
:1002300051F8043B40F8043B51F8043B40F8043BC0
:1002400051F8043B40F8043B51F8043B40F8043BB0
:1002500051F8043B40F8043B51F8043B40F8043BA0
:1002600051F8043B40F8043B51F8043B40F8043B90
:1002700051F8043B40F8043B51F8043B40F8043B80
:1002800051F8043B40F8043B51F8043B40F8043B70
:10029000403ABDD2303211D351F8043B40F8043B10
:1002A00051F8043B40F8043B51F8043B40F8043B50
:1002B00051F8043B40F8043B103AEDD20C3205D320
:1002C00051F8043B40F8043B043AF9D2043208D018
:1002D000D2071CBF11F8013B00F8013B01D30B888A
:1002E00003806046704700BF082A13D38B078DD068
:1002F00010F003038AD0C3F10403D21ADB071CBF3A
:1003000011F8013B00F8013B80D331F8023B20F8A3
:10031000023B7BE7043AD9D3013A11F8013B00F8DC
:10032000013BF9D20B7803704B7843708B78837064
:100330006046704700000000000000000000000060
:1003400040F60003C2F2000330B405461C6802E028
:10035000D01A16D1ABB115F8013BE0181A46407817
:1003600000F00300012808BF03F1200211F8013B4F
:10037000E018407800F003000128E9D12033D01ABA
:10038000E9D030BC704700BF000000000000000052
:10039000F0B404780CB30E780746C6B1A64210D06C
:1003A0004B1C01E094420BD01D4613F8012B002A90
:1003B000F8D144780130002CEED12E78074600E0C9
:1003C0002646002E14BF38460020F0BC7047447803
:1003D0000D460130002CDFD1EFE72046F0BC70471E
:1003E000F0B40478CCB10E7807469EB10546B4420D
:1003F0000AD00A4601E09C4206D012F8013F002BC9
:10040000F9D1281AF0BC70476C787D1C002CF8D00C
:100410002F46ECE73046F0BC70472046F2E700BFBD
:10042000704700BFAFF30080AFF30080AFF30080F0
:10043000FEE700BFAFF30080AFF30080AFF30080B2
:1004400072B640F60004C2F2000484F30988022464
:1004500084F31488BFF36F8F40F20004C2F20004EB
:1004600040F20045C2F2000504E023461C1D4FF097
:1004700055321A60AC42F8D340F20044C2F2000494
:1004800040F60005C2F2000504E023461C1D4FF0B3
:1004900055321A60AC42F8D304F0B2F949F6B825E7
:1004A000C0F6000540F60004C2F2000405E0234651
:1004B0001C1D2A46151D12681A6040F62803C2F258
:1004C00000039C42F3D340F62804C2F2000443F632
:1004D000F035C2F2000503E023461C1D00221A601D
:1004E000AC42F9D3FFF79CFF40F28814C0F6000439
:1004F00002E023689847043440F28813C0F60003F2
:100500009C42F6D308F09CF840F28814C0F6000430
:1005100002E023689847043440F28813C0F60003D1
:100520009C42F6D3FFF784FFAFF30080AFF3008067
:10053000FEE700BFAFF30080AFF30080AFF30080B1
:1005400072B6FEE7AFF30080AFF30080AFF3008038
:1005500008B500F0ADFA202383F3118800F068FAA3
:1005600000F09EF900F084FA002383F3118800F074
:10057000C7FA00F035F808BDAFF30080AFF3008094
:1005800082B0EFF309830193019B20330193019B18
:1005900083F30988002383F3118802B0704700BFFA
:1005A00008B54FF46D43CEF2000300229A604FF479
:1005B0006D43CEF200034FF44072C0F2FA52DA609B
:1005C0000720102100F0DCF80A20202100F0D8F8E4
:1005D0000B20802100F0D4F808BD00BFAFF30080ED
:1005E00082B0202383F311884FF46D43CEF20003D1
:1005F0005B6803F40063002B48D0EFF30983019399
:10060000019B203B0193019B83F30988019B4FF0E1
:100610008072DA6140F66853C2F200039B6993F876
:100620002330002B11D040F66853C2F200031B6840
:100630009A6840F66853C2F200039B699B689A422D
:1006400094BF00230123DBB210E040F66853C2F2EE
:1006500000031B689A6840F66853C2F200039B6966
:100660009B689A4234BF00230123DBB2002B06D0E3
:10067000019A40F2A163C0F60003936109E0019A78
:1006800040F2AC63C0F60003936102E0002383F301
:10069000118802B0704700BFAFF30080AFF3008055
:1006A00000F086F900F004FE00F0A2F900DF00BFC0
:1006B00003460A462DE9F04FC2F80CD0D3F80CD00F
:1006C000BDE8F08FAFF30080AFF30080AFF30080A0
:1006D00008B500F08DF9002383F311882846A04760
:1006E00000F00EFF08BD00BFAFF30080AFF3008045
:1006F00010B485B001900091019B03F00303DB006F
:1007000003934FF46143CEF20003019A90084FF433
:100710006142CEF2000201998908C03152F82110DD
:10072000039AFF2404FA02F2D2431140039A009C78
:1007300004FA02F2114300F1C00243F822104FF410
:100740006143CEF20003019A5209019901F01F01A1
:10075000012000FA01F1603243F822104FF46143A6
:10076000CEF20003019A5209019901F01F01012004
:1007700000FA01F143F8221005B05DF8044B704710
:1007800010B485B001900091019B03F00303DB00DE
:1007900003934FF46D43CEF20003019A90084FF497
:1007A0006D42CEF2000201998908063152F82110FB
:1007B000039AFF2404FA02F2D2431140039A009CE8
:1007C00004FA02F21143821D43F8221005B05DF8CD
:1007D000044B7047AFF30080AFF30080AFF30080AD
:1007E00082B0019040F66853C2F200039A6948F261
:1007F000F063C0F600039361FEE700BFAFF3008033
:1008000000B583B0FFF7CCFE00F02AFB00F040FA01
:1008100001F056FB01F0C4FB00F0CAF940F6F80005
:10082000C2F20000402100F063FD024640F668532A
:10083000C2F200039A6140F66853C2F200039B695A
:10084000012283F8202040F66853C2F200039A691F
:1008500040F20043C2F20003D36100F091F800239C
:1008600083F3118862B640F66853C2F200039A69B6
:1008700049F21033C0F6000393610023009340F661
:100880002800C2F20000D021012240F2E173C0F63C
:10089000000300F0DDFD03B05DF804FBAFF3008062
:1008A00000B583B000F054F940F66853C2F200037B
:1008B0009B6993F82330002B0AD040F66853C2F2AC
:1008C00000039B6993F82320013AD2B283F82320D6
:1008D00040F66853C2F200039B695A6A01325A62B9
:1008E00040F65853C2F20003DB685A1C40F65853D6
:1008F000C2F20003DA6040F65853C2F200031A68ED
:1009000040F65853C2F200039A4235D040F658538D
:10091000C2F200031B689A68013A9A6022E0019BC8
:10092000DB680093019B0022DA60019B1A6840F6A5
:100930005853C2F200035360019B1A6840F65853A3
:10094000C2F200031A6000F093F8002383F31188C9
:10095000019B1A69009B10469847202383F3118856
:1009600000F066F840F65853C2F200031B6801938A
:10097000019B9B68002BD2D003B05DF804FB00BF45
:1009800008B540F64413C2F200031B68002B06D1E1
:1009900040F64813C2F200031B68002B05D048F252
:1009A0001070C0F6000000F063F908BDAFF30080DE
:1009B00008B540F64413C2F200031B68002B06D1B1
:1009C00040F64813C2F200031B68002B05D048F222
:1009D0001870C0F6000000F04BF940F64813C2F260
:1009E000000301221A6008BDAFF30080AFF300805E
:1009F00008B540F64413C2F200031B68002B06D171
:100A000040F64813C2F200031B68002B05DC48F2D5
:100A10002070C0F6000000F02BF940F64813C2F237
:100A2000000300221A6008BDAFF30080AFF300801E
:100A300008B540F64413C2F200031B68002B06DD24
:100A400040F64813C2F200031B68002B05D048F2A1
:100A50002870C0F6000000F00BF940F64813C2F20F
:100A6000000301221A6008BDAFF30080AFF30080DD
:100A700008B540F64413C2F200031B68002B06DDE4
:100A800040F64813C2F200031B68002B05DC48F255
:100A90003070C0F6000000F0EBF840F64813C2F2E8
:100AA000000300221A6008BDAFF30080AFF300809E
:100AB00008B5202383F3118840F64413C2F20003E3
:100AC0001B68002B06DB40F64813C2F200031B68CC
:100AD000002B05D048F23870C0F6000000F0C8F8CE
:100AE00040F64413C2F200031B685A1C40F644133C
:100AF000C2F200031A60002383F3118808BD00BF0F
:100B000008B5202383F3118840F64413C2F2000392
:100B10001B68002B06DD40F64813C2F200031B6879
:100B2000002B05D048F24070C0F6000000F0A0F89D
:100B300040F64413C2F200031B685A1E40F64413E9
:100B4000C2F200031A60002383F3118808BD00BFBE
:100B500008B540F64413C2F200031B68002B06DB05
:100B600040F64813C2F200031B68002B05DC48F274
:100B70004870C0F6000000F07BF808BDAFF30080BD
:100B800008B540F64413C2F200031B68002B06D1DF
:100B900040F64813C2F200031B68002B05DC48F244
:100BA0005070C0F6000000F063F808BDAFF300809D
:100BB00040F64C13C2F2000340221A6040F64C1378
:100BC000C2F20003014A5A60704700BF5409002076
:100BD00082B0019040F64C13C2F200035A6840F60E
:100BE0005853C2F20003DB68136040F64C13C2F2A4
:100BF00000035A6840F66853C2F200039B695360D1
:100C000040F64C13C2F200035B68019A926A9A6044
:100C100040F64C13C2F200035B68019A92F8202060
:100C20001A7340F64C13C2F200035B6803F1100222
:100C300040F64C13C2F200035A6040F64C13C2F265
:100C400000035A68054B9A4205D340F64C13C2F292
:100C50000003034A5A6002B0704700BF540D0020E1
:100C600054090020AFF30080AFF30080AFF30080A1
:100C700000B583B0019040F65453C2F20003019ACC
:100C80001A60FFF75DFC03B05DF804FBAFF3008072
:100C900040F65853C2F2000340F65852C2F2000226
:100CA0005A6040F65853C2F200035A6840F658534F
:100CB000C2F200031A6040F65853C2F200034FF02C
:100CC000FF329A6040F65853C2F200030022DA6005
:100CD000704700BFAFF30080AFF30080AFF3008038
:100CE00000B587B00390029101920093FFF730FFA7
:100CF000039B002B05D0019B002B02D0029B002BF5
:100D000005D148F26070C0F60000FFF7B1FF039B09
:100D1000009A1A61039B019ADA6040F65853C2F2B6
:100D200000031B68059307E0059B9B68029AD31A92
:100D30000293059B1B680593059B9A68029B9A4248
:100D4000F2D3039B059A1A60039B1B685A68039BA6
:100D50005A60039B5B68059A03995160059A526833
:100D60001A60039B029A9A60059A40F65853C2F2A1
:100D700000039A4205D0059B9A68029BD21A059BF4
:100D80009A6007B05DF804FBAFF30080AFF300801A
:100D900000B583B00190FFF7DBFE019B002B05D16E
:100DA00048F27070C0F60000FFF762FF019BDB683D
:100DB000002B05D148F28070C0F60000FFF758FF05
:100DC000019B1A6840F65853C2F200039A4208D0B9
:100DD000019B1B68019A12689168019A92680A4403
:100DE0009A60019B5B68019A12681A60019B1B68FC
:100DF000019A52685A60019B0022DA6003B05DF8E4
:100E000004FB00BFAFF30080AFF30080AFF30080BE
:100E100084B00190019B1B680393039B1A68019B9C
:100E20001A60019B1B68019A5A60039B184604B024
:100E3000704700BFAFF30080AFF30080AFF30080D6
:100E400082B00190019B5B68019A12681A60019B55
:100E50001B68019A52685A60019B184602B070479D
:100E600040F66853C2F2000340F66852C2F2000234
:100E70005A6040F66853C2F200035A6840F668535D
:100E8000C2F200031A6040F66853C2F20003002267
:100E90009A6040F66853C2F2000340F66852C2F20C
:100EA00000025A6140F66853C2F200035A6940F6E4
:100EB0006853C2F200031A61704700BFAFF30080AD
:100EC00000B585B00190FFF743FE019B93F82030F9
:100ED000002B04D0019B93F820300E2B05D148F253
:100EE000A070C0F60000FFF7C3FE019B002283F84C
:100EF000202040F66853C2F200030393039B1B6853
:100F00000393039B9A68019B9B689A42F6D2019BCC
:100F1000039A1A60039B5A68019B5A60019B5B68A5
:100F2000039A01995160039A52681A60019B18460E
:100F300005B05DF804FB00BFAFF30080AFF30080A5
:100F400000B585B003468DF80730FFF719FE40F66F
:100F50006853C2F200039B690393039B9DF807202B
:100F600083F82020039B142283F8232040F6685046
:100F7000C2F20000FFF74CFF024640F66853C2F28F
:100F800000039A6140F66853C2F200039B69012294
:100F900083F820200398FFF71BFE6B46A3F1240281
:100FA000039BDB699A4205D248F2B470C0F6000098
:100FB000FFF75EFE40F66853C2F200039B691846D5
:100FC0000399FFF775FB05B05DF804FBAFF30080F4
:100FD00000B585B00190019B0393202383F3118812
:100FE000FFF726FD039B93F820300D2B2CD801A290
:100FF00052F823F02D10000849100008491000088D
:101000003910000849100008431000084910000872
:10101000491000084910000849100008491000084C
:10102000491000084910000843100008FFF720FD90
:10103000002383F3118813E0039B9B6A9A680132B3
:101040009A600398FFF7FCFE039B4FF0FF329A6211
:101050000398FFF735FFFFF70BFD002383F311889B
:1010600005B05DF804FB00BFAFF30080AFF3008074
:1010700000B589B0034600918DF80730FFF780FD79
:10108000009BB3F1FF3F1BD040F66853C2F2000350
:101090009B6903AA1046009940F6D172C0F600027F
:1010A000FFF71EFE9DF807301846FFF749FF069B25
:1010B000002B04D003AB1846FFF76AFE05E004E0FE
:1010C0009DF807301846FFF73BFF40F66853C2F221
:1010D00000039B699B6A184609B05DF804FB00BFDA
:1010E00000B585B001900091FFF74AFD019B009A81
:1010F0009A62019B9A6840F66853C2F200039B69AA
:101100009B689A4203D80198FFF7DAFE26E040F682
:101110006853C2F200039B691846FFF7D1FE0390A3
:1011200040F66853C2F20003019A9A61019B0122C2
:1011300083F820200398FFF74BFD6B46A3F12402B0
:10114000039BDB699A4205D248F2B470C0F60000F6
:10115000FFF78EFD01980399FFF7AAFA05B05DF835
:1011600004FB00BFAFF30080AFF30080AFF300805B
:1011700000B583B040F66853C2F200039B69019347
:1011800040F66850C2F20000FFF742FE024640F609
:101190006853C2F200039A6140F66853C2F200033A
:1011A0009B69012283F82020019B142283F82320CD
:1011B0000198FFF785FE0198FFF70AFD6B46A3F142
:1011C0002402019BDB699A4205D248F2B470C0F652
:1011D0000000FFF74DFD40F66853C2F200039B6923
:1011E00018460199FFF764FA03B05DF804FB00BFED
:1011F00000B583B040F66853C2F200039B690093C8
:1012000040F66850C2F20000FFF702FE024640F6C8
:101210006853C2F200039A6140F66853C2F20003B9
:101220009B69012283F82020009B002283F8202064
:1012300040F66853C2F200030193019B1B680193BF
:10124000019B9A68009B9B689A42F6D8009B019A82
:101250001A60019B5A68009B5A60009B5B68019A68
:1012600000995160019A52681A600098FFF7B0FC2B
:101270006B46A3F12402009BDB699A4205D248F237
:10128000B470C0F60000FFF7F3FC40F66853C2F2FA
:1012900000039B6918460099FFF70AFA03B05DF84E
:1012A00004FB00BFAFF30080AFF30080AFF300801A
:1012B00008B540F66853C2F200039B6993F82330E7
:1012C000002B02D1FFF754FF01E0FFF791FF08BDAB
:1012D00084B00190019B1B680393039B1A68019BD8
:1012E0001A60039B184604B0704700BFAFF300803C
:1012F00082B001900091019B009A9A60019B0222AA
:1013000083F82020019B002283F82120019B1422D6
:1013100083F82320019B009A5A64019B00221A64DF
:10132000019B0022DA63019B00225A62019B012289
:1013300083F82220019B00229A61019A40F66853AB
:10134000C2F20003136140F66853C2F200035A6907
:10135000019B5A61019B5A6940F66853C2F200032F
:101360000199596140F66853C2F200035B69136149
:10137000019B03F12C02019BDA62019B03F1300215
:10138000019B5A63019B5A6B019B1A63019B03F1FA
:101390004C02019BDA61019B184602B0704700BF06
:1013A00084B00390029113468DF8073005E0039B4B
:1013B0005A1C03929DF807201A70039A029B9A42C6
:1013C000F5D304B0704700BFAFF30080AFF30080E7
:1013D00000B587B00390029101920093039B05939F
:1013E000FFF7B6FB039B002B08D0029BAF2B05D960
:1013F000019B7F2B02D8009B002B05D148F2D070B7
:10140000C0F60000FFF734FC029B243B039A1A4409
:10141000059BDA60059BDB68009A1A60059BDB6818
:10142000089A5A60059BDA6840F2D163C0F600035F
:10143000136205980199FFF75BFF0346184607B052
:101440005DF804FBAFF30080AFF30080AFF30080E2
:1014500000B589B00590049103920293059B4C332B
:1014600005981946FF22FFF79BFF059B03F14C02ED
:101470000599049B0B44104619465522FFF790FF2F
:10148000202383F31188FFF793FA0A9B00930598B2
:101490000499039A029BFFF79BFF0790079800218E
:1014A000FFF71EFEFFF7A4FA002383F31188079BC2
:1014B000184609B05DF804FBAFF30080AFF300807D
:1014C00000B583B00190019B002B05D148F61000B8
:1014D000C0F60000FFF7CCFB202383F31188FFF751
:1014E00067FA06200199FFF7C3FDFFF781FA002391
:1014F00083F3118803B05DF804FB00BFAFF30080F5
:1015000000B583B00190202383F31188FFF750FAD0
:10151000019800F005F803B05DF804FBAFF300801C
:1015200000B585B0019040F66853C2F200039B6994
:101530000393039B019A9A6208E0039B2C3318469D
:10154000FFF7C6FE03461846FFF7BAFC039BDA6AAC
:10155000039B2C339A42F0D1039B93F8213003F084
:101560000303002B09D1039B5B69039A12691A617B
:10157000039B1B69039A52695A610E20FFF7E0FC36
:1015800048F62000C0F60000FFF772FB05B05DF8DA
:1015900004FB00BFAFF30080AFF30080AFF3008027
:1015A00084B001900091009B0393039B1B680393FD
:1015B000039A009B9A4205D0039B9A68019B9B6803
:1015C0009A42F2D2019B039A1A60039B5A68019BCC
:1015D0005A60019B5B68039A01995160039A5268B3
:1015E0001A6004B0704700BFAFF30080AFF3008013
:1015F00084B00190019B1B680393039B1A68019BB5
:101600001A60019B1B68019A5A60039B184604B03C
:10161000704700BFAFF30080AFF30080AFF30080EE
:1016200082B00190019B5B68019A12681A60019B6D
:101630001B68019A52685A60019B184602B07047B5
:1016400000B583B00190019B002B05D148F67000D6
:10165000C0F60000FFF70CFB019A019B5A60019B4A
:101660005A68019B1A60019B00229A6003B05DF8E2
:1016700004FB00BFAFF30080AFF30080AFF3008046
:1016800000B583B00190202383F31188FFF790F910
:10169000019800F00DF8FFF7ABF9002383F31188F0
:1016A00003B05DF804FB00BFAFF30080AFF3008030
:1016B00000B585B0019040F66853C2F200039B6903
:1016C0000293FFF75DFA019B002B05D148F68000DD
:1016D000C0F60000FFF7CCFA019B9B68002B61D09D
:1016E000019B9B68039334E0029B9A68039B9A607A
:1016F000039B93F82030042B04D0052B11D0002B32
:101700001AD02CE00398FFF78BFF0246039B9B6ADD
:1017100010461946FFF744FF039B9B6A9B6803939F
:1017200017E00398FFF77CFF0246039B9B6A104675
:101730001946FFF735FF0BE0039B012283F82020B9
:101740000398FFF76DFF03461846FFF7B9FB00BF8C
:1017500005E0039B9A68029B9B689A42C4D3019B55
:1017600002981946FFF71CFF029B019A9A62042017
:10177000FFF7E6FB019B9A68029B9A4205D048F668
:101780009000C0F60000FFF773FA029B1A6C019BF1
:101790009A4206D048F6A400C0F60000FFF768FAA7
:1017A0000AE009E0019B029A9A60029B1A6C019B75
:1017B000DA60029B019A1A6405B05DF804FB00BF71
:1017C00000B587B040F66853C2F200039B690393EB
:1017D000202383F31188FFF7EBF8039B1B6C002B8E
:1017E00005D148F6CC00C0F60000FFF741FA039B94
:1017F0001B6C9A68039B9A4205D048F6E000C0F63D
:101800000000FFF735FA039B1B6C0293029BDA681A
:10181000039B1A64029B1A68029B9A4232D0039B74
:101820005B6C0493039B1B6C059311E0059B1A688A
:10183000059B9A4209D0059B1B689A68049B9A42B3
:1018400003D9059B1B689B680493059BDB68059384
:10185000059B002BEAD1039B049A9A60029B1846D1
:10186000FFF7C6FE0190029B019A9A60019B1A6CD9
:10187000029BDA60019B029A1A6401980021FFF72B
:101880002FFC02E0029B00229A60FFF7B1F80023D0
:1018900083F31188029B184607B05DF804FB00BF74
:1018A00000B585B001900091FFF752F9019B002B24
:1018B00005D148F64C10C0F60000FFF7D9F9019B9E
:1018C0001B68039310E0039BDA68009B1A43039B99
:1018D000DA60039B5A68039B9B681046194600F028
:1018E0000FF8039B1B680393039A019B9A42EAD16A
:1018F00005B05DF804FB00BFAFF30080AFF30080DC
:1019000000B583B001900091FFF722F9019B002BF5
:1019100005D148F67410C0F60000FFF7A9F9019B45
:10192000DA6B009B1A43019BDA63019B93F820302A
:10193000082B06D1019BDA6B019B9B6A1340002B9D
:101940000DD1019B93F82030092B0ED1019BDA6B4E
:10195000019B9B6A1A40019B9B6A9A4205D10198A0
:10196000FFF7AEFA034600229A6203B05DF804FB6B
:1019700082B001900091019B009A1A60009B5A6806
:10198000019B5A60019B5B68009A01995160009A23
:1019900052681A6002B07047AFF30080AFF3008066
:1019A00084B00190019B1B680393039B1A68019B01
:1019B0001A60019B1B68019A5A60039B184604B089
:1019C000704700BFAFF30080AFF30080AFF300803B
:1019D00000B583B001900091009B002B02D14FF025
:1019E000FF3315E040F66853C2F200039B69019A89
:1019F0009A6240F66853C2F200039A69019B10464E
:101A00001946FFF7B5FF0D200099FFF731FB03469C
:101A1000184603B05DF804FBAFF30080AFF300801D
:101A200084B00390029101920093039A039B5A6041
:101A3000039B5A68039B1A60039B00229A60039BD6
:101A4000029A5A61039B5A69039B9A61039B9A69A4
:101A5000039BDA60029A019B1A44039B1A61039B61
:101A6000009ADA61039B049A1A6204B0704700BFBF
:101A700000B583B001900B468DF80330FFF768F88E
:101A8000019B5A69019B9B699A4205D1019B9B6806
:101A9000002B01D0012300E0002303F00103DBB29F
:101AA000002B02D06FF0030327E0019B9B685A1CB8
:101AB000019B9A60019B5B69591C019A51619DF8D9
:101AC00003201A70019B5A69019B1B699A4203D338
:101AD000019BDA68019B5A61019B1A68019B9A423B
:101AE0000AD0019B1846FFF75BFF03461846FFF735
:101AF000E7F9034600229A620023184603B05DF816
:101B000004FB00BFAFF30080AFF30080AFF30080B1
:101B100000B585B001900091202383F31188FEF772
:101B200047FF019BDB69002B04D0019BDB69019817
:101B300098470FE00EE001980099FFF749FF0390E6
:101B4000039B002B06DAFEF753FF002383F3118873
:101B5000039B21E0019B9B68002BECD0019B9B68C1
:101B60005A1E019B9A60019B9B69591C019A9161C5
:101B70001B788DF80B30019B9A69019B1B699A4277
:101B800003D3019BDA68019B9A61FEF731FF0023C2
:101B900083F311889DF80B30184605B05DF804FBFF
:101BA00000B587B00390029101920093039BDB691B
:101BB000049300230593019B002B05D148F6B01038
:101BC000C0F60000FFF754F8202383F31188FEF7D6
:101BD000EFFE049B002B03D0049B039898470EE074
:101BE0000DE003980099FFF7F3FE0346002B06D0A3
:101BF000FEF7FEFE002383F31188059B32E0039B72
:101C00009B68002BEDD0039B9B685A1E039B9A6038
:101C1000029B5A1C0292039A9269501C0399886194
:101C200012781A70039B9A69039B1B699A4203D32B
:101C3000039BDA68039B9A61FEF7DAFE002383F3C5
:101C40001188059B01330593019B013B0193019B87
:101C5000002B01D1059B05E0202383F31188FEF7BB
:101C6000A7FEB6E7184607B05DF804FBAFF30080A7
:101C700084B00390029101920093039A039B5A60EF
:101C8000039B5A68039B1A60039B019A9A60039B0B
:101C9000029A5A61039B5A69039B9A61039B9A6952
:101CA000039BDA60029A019B1A44039B1A61039B0F
:101CB000009ADA61039B049A1A6204B0704700BF6D
:101CC00000B587B003900B4601928DF80B302023AE
:101CD00083F31188FEF76CFE0EE003980199FFF77D
:101CE00077FE0590059B002B06DAFEF781FE0023A8
:101CF00083F31188059B28E0039B9B68002BECD0A5
:101D0000039B9B685A1E039B9A60039B5B69591C4B
:101D1000039A51619DF80B201A70039B5A69039B2B
:101D20001B699A4203D3039BDA68039B5A61039BA6
:101D3000DB69002B03D0039BDB6903989847FEF710
:101D400057FE002383F311880023184607B05DF87F
:101D500004FB00BFAFF30080AFF30080AFF300805F
:101D600000B585B00190FEF7F3FE019B5A69019B17
:101D70009B699A4205D1019B9B68002B01D00123EE
:101D800000E0002303F00103DBB2002B02D06FF070
:101D9000020328E0019B9B685A1C019B9A60019BEF
:101DA0009B69591C019A91611B788DF80F30019B3A
:101DB0009A69019B1B699A4203D3019BDA68019BD4
:101DC0009A61019B1A68019B9A420AD0019B1846AE
:101DD000FFF7E6FD03461846FFF772F803460022B8
:101DE0009A629DF80F30184605B05DF804FB00BFFD
:101DF00000B587B00390029101920093039BDB69C9
:101E0000049300230593019B002B05D148F6C410D1
:101E1000C0F60000FEF72CFF202383F31188FEF7A5
:101E2000C7FD0DE003980099FFF7D2FD0346002B94
:101E300006D0FEF7DDFD002383F31188059B39E012
:101E4000039B9B68002BEDD0039B9B685A1E039B52
:101E50009A60039B5B69591C039A5161029A511C59
:101E6000029112781A70039B5A69039B1B699A426C
:101E700003D3039BDA68039B5A61049B002B02D0B7
:101E8000049B03989847FEF7B3FD002383F3118862
:101E9000059B01330593019B013B0193019B002BA3
:101EA00001D1059B06E0202383F31188FEF780FD16
:101EB00000BFC5E7184607B05DF804FBAFF300802C
:101EC00043F6F033C2F20003073323F007031A4648
:101ED00040F68453C2F200031A604CF20003C2F2CF
:101EE000010323F007031A4640F68853C2F20003A9
:101EF0001A607047AFF30080AFF30080AFF300804B
:101F000000B585B00190202383F31188FEF750FDC2
:101F1000019800F00DF80390FEF76AFD002383F3AB
:101F20001188039B184605B05DF804FBAFF30080F1
:101F300000B585B00190FEF70BFE019B073323F03F
:101F40000703019340F68853C2F200031B681A4648
:101F500040F68453C2F200031B68D31A1A46019B51
:101F60009A4201D2002312E040F68453C2F20003E9
:101F70001B68039340F68453C2F200031A68019B66
:101F80001A4440F68453C2F200031A60039B1846B9
:101F900005B05DF804FB00BFAFF30080AFF3008035
:101FA00008B540F69053C2F2000341F60172C0F644
:101FB00000021A6040F69053C2F2000300229A60B9
:101FC00040F69053C2F200030022DA600148FFF7A6
:101FD00037FB08BDA00D0020AFF30080AFF30080F9
:101FE00000B587B001900091019B002B04D140F611
:101FF0009053C2F200030193009B073323F00703C1
:102000000093019B08330593019B10331846FFF79B
:1020100037FB33E0059B1B680493049B5A68009BC5
:102020009A4229D3049B5A68009B08339A4204D2EF
:10203000049B1A68059B1A6016E0009B0833049AFB
:1020400013440393049B1A68039B1A60049B5A6809
:10205000009BD31AA3F10802039B5A60059B039AC5
:102060001A60049B009A5A60049B019A1A60FFF759
:10207000A7FB049B083321E0049B0593059B1B6889
:10208000002BC7D1FFF79CFB019B1B68002B14D0D2
:10209000019B1B68009A0832104698470490049BE5
:1020A000002B0AD0049B019A1A60049B009A5A6084
:1020B000049B08330493049B00E00023184607B0F8
:1020C0005DF804FBAFF30080AFF30080AFF3008056
:1020D00000B587B00190019B002B05D148F6F010A8
:1020E000C0F60000FEF7C4FD019B083B0493049B6F
:1020F0001B680393039B08330593039B1033184617
:10210000FFF7BEFA049A059B9A420DD3059B5B68C4
:102110000833059A1A44049B9A4205D948F60020D0
:10212000C0F60000FEF7A4FD039B03F10802059B27
:102130009A4203D0049A059B9A423ED9059B1B689C
:10214000002B04D0059B1A68049B9A4235D9059B45
:102150001A68049B1A60059B049A1A60049B5B68CA
:102160000833049A1A44049B1B689A420ED1049BBC
:102170005A68049B1B685B68134403F10802049BC4
:102180005A60049B1B681A68049B1A60059B5B6875
:102190000833059A1A44049B9A420DD1059B5A684C
:1021A000049B5B68134403F10802059B5A60049B7F
:1021B0001A68059B1A6004E003E0059B1B68059301
:1021C000A0E7FFF7FDFA00BF07B05DF804FB00BF12
:1021D00008B501F04DF949F24040C0F6000002F0A8
:1021E0004FF800F095FC00F0BBF802F021FB08BDB1
:1021F00000B589B0039002910192029A019B9A4224
:1022000004D3029A019BD31A1F2B05D948F620202C
:10221000C0F60000FEF72CFD019B5B090793019BB4
:1022200003F01F030693029B5B090593029B03F0D7
:102230001F030133012202FA03F3013B0493079ABF
:10224000059B9A4214D2079B9B00039A13441A6879
:10225000069BDA40059B9B0003990B441968049B7D
:102260001940069BC3F1200301FA03F3134309E06D
:10227000079B9B00039A13441A68049B1A40069B11
:1022800022FA03F3184609B05DF804FBAFF30080AF
:1022900000B587B00190019B0C331B689B0F002B8E
:1022A00002D0012B1CD024E0019849213E22FFF7E7
:1022B0009FFF0590019831212F22FFF799FF04908D
:1022C000019853215022FFF793FF0390059B5A1C5E
:1022D000049B02339A40039B093B02FA03F309E093
:1022E000019845213022FFF783FF034601339B020B
:1022F00000E00023184607B05DF804FBAFF3008050
:1023000000B585B00190019B9A6B03AB01980D213C
:1023100001F04EFD0346002B07D1039A4EF208034D
:10232000CFF6FF531340002B01D0012311E0039B94
:102330005B0A03F00F03042B04D0042B08D3072BF4
:1023400006D801E0002304E00120FFF7B9F8DAE73E
:102350000123184605B05DF804FB00BFAFF3008011
:1023600008B501F0B5FB08BDAFF30080AFF3008006
:1023700082B00190019A49F23033C0F60003136035
:10238000019B01221A71019B00225A63019B0022CA
:10239000DA62019B00229A6202B07047AFF30080BC
:1023A00000B583B001900091019B002B05D148F648
:1023B0004020C0F60000FEF75BFC202383F3118869
:1023C000FEF7F6FA019B1B79012B09D0019B1B79C3
:1023D000022B05D048F65020C0F60000FEF748FC5E
:1023E000019B009ADA62019801F092FB019B0222A4
:1023F0001A71FEF7FDFA002383F3118803B05DF82C
:1024000004FB00BFAFF30080AFF30080AFF30080A8
:1024100000B587B00190019B002B05D148F67C20C8
:10242000C0F60000FEF724FC019B1B79022B09D0AB
:10243000019B1B79052B05D048F68C20C0F60000C7
:10244000FEF716FC019B03221A71019801F0C8FBEC
:1024500001980021002201F03BFC03AB0198082108
:102460004FF4D57201F0A4FC034683F00103DBB204
:10247000002B1DD0019B01221A63039B1B0A03F052
:102480000F03012B00D0E1E003AB019837210022BC
:1024900001F08EFC0346002B40F0D880039A4EF2E8
:1024A0000803CFF6FF531340002B40F0CF8002E02B
:1024B000019B00221A63019B1B6B03F00F03012B8E
:1024C00004D10023CCF21003049303E00023C8F2EC
:1024D000100304930023059303AB019837210022D6
:1024E00001F066FC0346002B40F0B080039A4EF2E8
:1024F0000803CFF6FF531340002B40F0A78003AB37
:1025000001982921049A01F00BFC0346002B00D00E
:102510009CE0039B002B0CDA039B03F08043002B11
:1025200006D0019B1B6B43F01002019B1A630BE06A
:102530000AE0059B01330593059B632B00D985E0D9
:102540000A20FEF7BDFFC7E7019B0833019802216F
:10255000002201F075FC0346002B00D076E0019BC1
:10256000383301980321002201F022FC0346002B9E
:1025700000D06BE0019B9A6B019B183301980921F5
:1025800001F05EFC0346002B00D05FE0019801F0F3
:102590004FFB019B9A6B03AB0198072101F008FCEC
:1025A0000346002B00D051E003AB019810214FF4FB
:1025B000007201F0FDFB0346002B47D1039A4EF257
:1025C0000803CFF6FF531340002B3FD1019B1B6B39
:1025D00003F00F03012B27D80198012101F048FBDC
:1025E000019B9A6B03AB0198372101F0E1FB034695
:1025F000002B2BD1039A4EF20803CFF6FF53134062
:10260000002B23D103AB01980621022201F0D0FB5D
:102610000346002B1AD1039A4EF20803CFF6FF535C
:102620001340002B12D100BF019B18331846FFF74F
:102630002FFE0246019B9A62019B9B6A002B00D1F0
:1026400004E0019B05221A71002306E0019801F0C5
:10265000FFFA019B02221A710123184607B05DF8A8
:1026600004FB00BFAFF30080AFF30080AFF3008046
:1026700000B583B00190019B002B05D148F6A02046
:10268000C0F60000FEF7F4FA202383F31188FEF76A
:102690008FF9019B1B79022B09D0019B1B79052B1C
:1026A00005D048F6B420C0F60000FEF7E1FA019B21
:1026B0001B79022B06D1FEF79BF9002383F31188C7
:1026C00000231CE0019B04221A71FEF791F90023FC
:1026D00083F311880198FFF713FE0346002B07D000
:1026E000019801F0B5FA019B02221A71012306E05C
:1026F000019801F0ADFA019B02221A7100231846DD
:1027000003B05DF804FB00BFAFF30080AFF30080BF
:1027100000B587B00390029101920093039B002BB8
:1027200005D0019B002B02D0009B002B05D148F661
:10273000C820C0F60000FEF79BFA039B1B79052B0F
:1027400005D048F6D420C0F60000FEF791FA029AB0
:10275000009B13445A1E039B9B6A9A4207D9039B12
:102760005B6B43F08002039B5A63012310E0039BE1
:1027700006221A7103980299019A009B01F0C0FC8D
:1027800003468DF81730039B05221A719DF8173008
:10279000184607B05DF804FBAFF30080AFF300808C
:1027A00000B587B00390029101920093039B002B28
:1027B00005D0019B002B02D0009B002B05D148F6D1
:1027C000E420C0F60000FEF753FA039B1B79052BAB
:1027D00005D048F6F420C0F60000FEF749FA029A48
:1027E000009B13445A1E039B9B6A9A4207D9039B82
:1027F0005B6B43F08002039B5A63012310E0039B51
:1028000007221A7103980299019A009B01F0C0FCFB
:1028100003468DF81730039B05221A719DF8173077
:10282000184607B05DF804FBAFF30080AFF30080FB
:1028300000B585B00190019B002B05D148F63C30D6
:10284000C0F60000FEF714FA019B1B79052B01D09E
:1028500001230DE0019B08221A71019801F0E0FCB0
:1028600003468DF80F30019B05221A719DF80F3039
:10287000184605B05DF804FBAFF30080AFF30080AD
:1028800000B583B001900091019B002B02D0009B0A
:10289000002B05D148F64830C0F60000FEF7E8F9F5
:1028A000019B1B79052B01D0012308E0019B9A6A4B
:1028B000009B5A60009B4FF400721A600023184678
:1028C00003B05DF804FB00BFAFF30080AFF30080FE
:1028D00000B587B0039002910192039B002B05D1B4
:1028E00048F65830C0F60000FEF7C2F9039B1B798A
:1028F000052B05D048F66830C0F60000FEF7B8F9A1
:10290000039B07221A71039B1B6B03F01003002B20
:1029100005D1029B5B020293019B5B02019303982A
:10292000FFF7EEFC05AB03982021029A01F040FA74
:102930000346002B31D1059A4EF20803CFF6FF5320
:102940001340002B29D105AB03982121019A01F0F6
:102950002FFA0346002B20D1059A4EF20803CFF63A
:10296000FF531340002B18D105AB039826210022FA
:1029700001F01EFA0346002B0FD1059A4EF2080310
:10298000CFF6FF531340002B07D10398FFF7B8FC95
:10299000039B05221A71002303E0039B05221A7191
:1029A0000123184607B05DF804FB00BFAFF30080B9
:1029B00000B585B0039002910192039B3033184615
:1029C0000299019A4FF0FF33FFF712FA03461846B7
:1029D00005B05DF804FB00BFAFF30080AFF30080EB
:1029E00000B585B0039002910192039B0C33184609
:1029F0000299019A4FF0FF33FFF7D2F803461846C9
:102A000005B05DF804FB00BFAFF30080AFF30080BA
:102A100000B583B001900B468DF80330019B03F1A4
:102A200030029DF80330104619464FF0FF32FFF791
:102A300047F90346184603B05DF804FBAFF3008086
:102A400000B583B00190019B0C3318464FF0FF3165
:102A5000FFF75EF80346184603B05DF804FB00BFBD
:102A600000B585B003900B4601928DF80B30039BA7
:102A700003F130029DF80B3010461946019AFFF71A
:102A80001FF90346184605B05DF804FBAFF300805C
:102A900000B583B001900091019B0C33184600995A
:102AA000FFF736F80346184603B05DF804FB00BF95
:102AB00000B585B00390029101920093039B3033DF
:102AC00018460299019A009BFFF792F903461846AF
:102AD00005B05DF804FB00BFAFF30080AFF30080EA
:102AE00000B585B00390029101920093039B0C33D3
:102AF00018460299019A009BFFF752F803461846C0
:102B000005B05DF804FB00BFAFF30080AFF30080B9
:102B100008B501F02DFE08BDAFF30080AFF30080D3
:102B200000B587B0059004910392059A49F250339D
:102B3000C0F600031360059B1A1D059B5A60059B98
:102B400001221A72059B03F10C02059B543305996F
:102B50000091104619461022049BFEF761FF059B69
:102B600003F13002059B6433059900911046194624
:102B70001022039BFFF77CF807B05DF804FB00BF51
:102B800000B583B001900091019B002B05D148F660
:102B90008030C0F60000FEF76BF8202383F3118825
:102BA000FDF706FF019B1B7A012B09D0019B1B7AC5
:102BB000022B05D048F68C30C0F60000FEF758F81E
:102BC0000198009901F0ECFD019B02221A72FDF7B9
:102BD0000FFF002383F3118803B05DF804FB00BFEF
:102BE00000B583B001900B468DF80330FDF7B0FFC0
:102BF000019B002B05D148F6B830C0F60000FEF767
:102C000037F8019B5B69002B05D1019B0433184603
:102C10000421FEF745FE019B03F10C029DF80330F1
:102C200010461946FEF724FF0346002B05DA019BE8
:102C3000043318468021FEF733FE03B05DF804FB31
:102C400000B583B0FDF734FF4FF4C043C4F2020374
:102C50001B6803F03D0301934FF4C043C4F2020329
:102C6000019A9A6040F6B453C2F200031B68002B2D
:102C70000CD040F6B453C2F200031A6840F6B453C5
:102C8000C2F200035B68184601999047FDF738FFD0
:102C9000FDF7A6FC03B05DF804FB00BFAFF30080B6
:102CA00000B583B0FDF704FF4FF4C043C4F2020344
:102CB0001B689B0903F03D0301934FF4C043C4F22A
:102CC0000203019A92019A6040F6B453C2F20003E3
:102CD0009B68002B0CD040F6B453C2F200039A68F4
:102CE00040F6B453C2F20003DB68184601999047DE
:102CF000FDF706FFFDF774FC03B05DF804FB00BFB1
:102D000000B583B0FDF7D4FE4FF4C043C4F2020314
:102D10001B681B0C03F03D0301934FF4C043C4F246
:102D20000203019A12049A6040F6B453C2F20003FF
:102D30001B69002B0CD040F6B453C2F200031A6991
:102D400040F6B453C2F200035B69184601999047FC
:102D5000FDF7D6FEFDF744FC03B05DF804FB00BFB1
:102D600000B583B0FDF7A4FE4FF4C043C4F20203E4
:102D70001B689B0D03F03D0301934FF4C043C4F265
:102D80000203019A92059A6040F6B453C2F200031E
:102D90009B69002B0CD040F6B453C2F200039A6931
:102DA00040F6B453C2F20003DB691846019990471C
:102DB000FDF7A6FEFDF714FC03B05DF804FB00BFB1
:102DC00000B583B0FDF774FE4FF4C043C4F20203B4
:102DD0005B6803F03D0301934FF4C043C4F2020368
:102DE000019ADA6040F6B453C2F200031B6A002B6A
:102DF0000CD040F6B453C2F200031A6A40F6B45342
:102E0000C2F200035B6A184601999047FDF778FE0D
:102E1000FDF7E6FB03B05DF804FB00BFAFF30080F5
:102E200000B583B0FDF744FE4FF4C043C4F2020383
:102E30005B689B0903F03D0301934FF4C043C4F268
:102E40000203019A9201DA6040F6B453C2F2000321
:102E50009B6A002B0CD040F6B453C2F200039A6A6E
:102E600040F6B453C2F20003DB6A1846019990475A
:102E7000FDF746FEFDF7B4FB03B05DF804FB00BFB1
:102E800000B583B0FDF714FE4FF4C043C4F2020353
:102E90005B681B0C03F03D0301934FF4C043C4F285
:102EA0000203019A1204DA6040F6B453C2F200033E
:102EB0001B6B002B0CD040F6B453C2F200031A6B0C
:102EC00040F6B453C2F200035B6B18460199904779
:102ED000FDF716FEFDF784FB03B05DF804FB00BFB1
:102EE00000B583B0FDF7E4FD4FF4C043C4F2020324
:102EF0005B689B0D03F03D0301934FF4C043C4F2A4
:102F00000203019A9205DA6040F6B453C2F200035C
:102F10009B6B002B0CD040F6B453C2F200039A6BAB
:102F200040F6B453C2F20003DB6B18460199904798
:102F3000FDF7E6FDFDF754FB03B05DF804FB00BFB1
:102F400000B583B0FDF7B4FD4FF4C843C4F20203EB
:102F50001B6803F03D0301934FF4C843C4F202031E
:102F6000019A9A6040F6B453C2F200031B6C002B26
:102F70000CD040F6B453C2F200031A6C40F6B453BE
:102F8000C2F200035B6C184601999047FDF7B8FD4B
:102F9000FDF726FB03B05DF804FB00BFAFF3008034
:102FA00000B583B0FDF784FD4FF4C843C4F20203BB
:102FB0001B689B0903F03D0301934FF4C843C4F21F
:102FC0000203019A92019A6040F6B453C2F20003E0
:102FD0009B6C002B0CD040F6B453C2F200039A6CE9
:102FE00040F6B453C2F20003DB6C184601999047D7
:102FF000FDF786FDFDF7F4FA03B05DF804FB00BFB2
:1030000000B583B0FDF754FD4FF4C843C4F202038A
:103010001B681B0C03F03D0301934FF4C843C4F23B
:103020000203019A12049A6040F6B453C2F20003FC
:103030001B6D002B0CD040F6B453C2F200031A6D86
:1030400040F6B453C2F200035B6D184601999047F5
:10305000FDF756FDFDF7C4FA03B05DF804FB00BFB1
:1030600000B583B0FDF724FD4FF4C843C4F202035A
:103070001B689B0D03F03D0301934FF4C843C4F25A
:103080000203019A92059A6040F6B453C2F200031B
:103090009B6D002B0CD040F6B453C2F200039A6D26
:1030A00040F6B453C2F20003DB6D18460199904715
:1030B000FDF726FDFDF794FA03B05DF804FB00BFB1
:1030C00000B583B0FDF7F4FC4FF4C843C4F202032B
:1030D0005B6803F03D0301934FF4C843C4F202035D
:1030E000019ADA6040F6B453C2F200031B6E002B63
:1030F0000CD040F6B453C2F200031A6E40F6B4533B
:10310000C2F200035B6E184601999047FDF7F8FC88
:10311000FDF766FA03B05DF804FB00BFAFF3008073
:1031200000B583B0FDF7C4FC4FF4C843C4F20203FA
:103130005B689B0903F03D0301934FF4C843C4F25D
:103140000203019A9201DA6040F6B453C2F200031E
:103150009B6E002B0CD040F6B453C2F200039A6E63
:1031600040F6B453C2F20003DB6E18460199904753
:10317000FDF7C6FCFDF734FA03B05DF804FB00BFB1
:1031800000B583B0FDF794FC4FF4C843C4F20203CA
:103190005B681B0C03F03D0301934FF4C843C4F27A
:1031A0000203019A1204DA6040F6B453C2F200033B
:1031B0001B6F002B0CD040F6B453C2F200031A6F01
:1031C00040F6B453C2F200035B6F18460199904772
:1031D000FDF796FCFDF704FA03B05DF804FB00BFB1
:1031E00000B583B0FDF764FC4FF4C843C4F202039A
:1031F0005B689B0D03F03D0301934FF4C843C4F299
:103200000203019A9205DA6040F6B453C2F2000359
:103210009B6F002B0CD040F6B453C2F200039A6FA0
:1032200040F6B453C2F20003DB6F18460199904791
:10323000FDF766FCFDF7D4F903B05DF804FB00BFB1
:1032400082B040F6B053C2F2000300221A6000239D
:10325000019317E049F27032C0F6000201990B4663
:103260005B000B449B0013441B6800221A6040F66D
:10327000B453C2F20003019A002143F83210019BBB
:1032800001330193019B0F2BE4DD4FF4C043C4F2E3
:1032900002034FF0FF329A604FF4C043C4F20203BE
:1032A0004FF0FF32DA604FF4C843C4F202034FF02C
:1032B000FF329A604FF4C843C4F202034FF0FF326A
:1032C000DA6002B0704700BFAFF30080AFF3008058
:1032D00000B585B00390029101920093039B002BEF
:1032E00005D148F6E030C0F60000FDF7C1FC039BB5
:1032F0005B7A012202FA03F31A4640F6B053C2F297
:1033000000031B681340002B01D001237AE0039BCC
:103310005B7A1A4640F6B453C2F20003019943F8AF
:103320003210039B5B7A40F6B452C2F20002DB001B
:103330001344009A5A60039B5B7A012202FA03F35A
:103340001A4640F6B053C2F200031B681A4340F617
:10335000B053C2F200031A6040F6B053C2F2000349
:103360001B68DBB2002B0BD04FF46053C4F2020396
:103370004FF46052C4F20202126B42F400121A635C
:1033800040F6B053C2F200031B6803F47F43002BE6
:103390000BD04FF46053C4F202034FF46052C4F2F6
:1033A0000202126B42F480021A63039B1B68039AA9
:1033B0001268126822F01F021A6000BF039B1B688C
:1033C0001B6803F00103002BF8D1039B5B68039A91
:1033D000127A3D2101FA02F21A60039B1B68002257
:1033E0001A60039B1B6821225A61019B002B08D0A5
:1033F000039B9B7A1A46029B1B0110461946FDF758
:1034000077F90023184605B05DF804FBAFF30080A0
:103410004FF4E043C4F200034FF4E042C4F2000270
:10342000126842F480721A604FF46053C4F20203CF
:103430001B6F03F44073B3F5007F0CD04FF460535F
:10344000C4F202034FF480321A674FF46053C4F29F
:10345000020300221A674FF4E043C4F200034FF462
:10346000E042C4F20002526822F400725A607047CF
:1034700008B54FF46053C4F202031B694FF4605364
:10348000C4F202034FF0FF321A614FF46053C4F2EA
:10349000020300221A614FF46053C4F202035B6915
:1034A0004FF46053C4F202034FF0FF325A614FF4FD
:1034B0006053C4F2020300225A614FF46053C4F215
:1034C00002034FF46052C4F20202126A62F08052A8
:1034D0001A624FF46053C4F2020300221A624FF4DE
:1034E0006053C4F202035B6A4FF46053C4F20203F8
:1034F0004FF0FF325A624FF46053C4F202030022CD
:103500005A624EF21003CEF2000349F23F02C0F2BB
:1035100002025A604EF21003CEF2000300229A60BB
:103520004EF21003CEF2000307221A604EF6F0535B
:10353000CEF200034EF6F052CEF20002D26842F014
:103540008072DA604FF48053CEF200034FF4805261
:10355000CEF20002126842F001021A604FF460538A
:10356000C4F202034FF46052C4F20202126C42F041
:1035700080521A64FFF74CFFFFF762FE08BD00BFE0
:103580004FF46053C4F202034FF080521A644FF4B8
:10359000E043C4F200034FF440421A604FF460531A
:1035A000C4F202034FF46052C4F20202126842F005
:1035B00001021A6000BF4FF46053C4F202031B689B
:1035C00003F00203002BF6D04FF46053C4F2020361
:1035D0004FF46052C4F20202126802F0F9021A605B
:1035E0004FF46053C4F2020300229A6000BF4FF40C
:1035F0006053C4F202039B6803F00C03002BF6D166
:103600004FF46053C4F202034FF46052C4F202025A
:10361000126842F480321A6000BF4FF46053C4F263
:1036200002031B6803F40033002BF6D04FF4605301
:10363000C4F202034FF46052C4F20202526F42F02D
:1036400001025A6700BF4FF46053C4F202035B6F7C
:1036500003F00203002BF6D04FF46053C4F20203D0
:1036600045F20842C0F240725A604FF46053C4F20F
:1036700002034FF46052C4F20202126842F08072F8
:103680001A6000BF4FF4E043C4F200035B6803F428
:103690008043002BF6D000BF4FF46053C4F2020306
:1036A0001B6803F00073002BF6D04FF46053C4F294
:1036B00002034FF41442C3F608029A604FF47053A9
:1036C000C4F2020340F205721A604FF46053C4F270
:1036D00002034FF46052C4F20202926842F0020206
:1036E0009A6000BF4FF46053C4F202039B6803F07A
:1036F0000C03082BF6D14FF46053C4F202034FF4CD
:103700006052C4F20202526C42F480425A644FF496
:103710006053C4F202034FF46052C4F20202526ECC
:1037200042F480425A667047AFF30080AFF30080E6
:1037300000B585B00390029101920093039B1B6B2F
:1037400003F01003002B02D1029B5B020293019B4A
:10375000012B13D903981221029A009B00F028FB39
:103760000346002B08D1009B1A684EF20803CFF6DF
:10377000FF531340002B15D0012314E003981121AF
:10378000029A009B00F014FB0346002B08D1009B1B
:103790001A684EF20803CFF6FF531340002B01D0F6
:1037A000012300E00023184605B05DF804FB00BFCC
:1037B00000B585B00390029101920093039B1B6BAF
:1037C00003F01003002B02D1029B5B020293019BCA
:1037D000012B13D903981921029A009B00F0E8FAF3
:1037E0000346002B08D1009B1A684EF20803CFF65F
:1037F000FF531340002B15D0012314E00398182128
:10380000029A009B00F0D4FA0346002B08D1009BDB
:103810001A684EF20803CFF6FF531340002B01D075
:10382000012300E00023184605B05DF804FB00BF4B
:1038300000B585B0039002910192202383F3118893
:10384000FDF7B6F84FF43053C4F20103DB6B002BE5
:103850001DD0039BDB6B002B05D048F63040C0F633
:103860000000FDF705FA40F66853C2F200039A69BA
:10387000039BDA630220FDF763FB039BDB6B002BEA
:1038800005D048F65840C0F60000FDF7F1F94FF4B6
:103890003053C4F201035B6B03F48073002B06D139
:1038A000FDF7A6F8002383F31188012332E000BF5F
:1038B000039B5B6C1B681B6803F00103002BF7D1B3
:1038C000039B5B6C5B68039A526C127A3D2101FA90
:1038D00002F21A604FF43053C4F2010340F2FF7257
:1038E000C0F2C0029A634FF43053C4F201030022C5
:1038F000DA62FDF77DF8002383F31188029B012B28
:1039000007D903980C210022019B00F051FA0346CD
:1039100000E00023184605B05DF804FBAFF300801B
:1039200084B00190009100230393009B03F00103F6
:10393000002B03D0039B43F001030393009B03F090
:103940000203002B03D0039B43F002030393009B6D
:1039500003F00403002B03D0039B43F008030393FD
:10396000009B03F00803002B03D0039B43F00403E8
:103970000393009B03F01003002B03D0039B43F041
:1039800010030393009B03F02003002B03D0039B41
:1039900043F020030393009B03F40073002B03D038
:1039A000039B43F040030393019B5A6B039B1A4311
:1039B000019B5A6304B07047AFF30080AFF30080FF
:1039C00000B587B00390029101924FF43053C4F2D6
:1039D00001035B6B0593039B5B6C5B68039A526C02
:1039E000127A3D2101FA02F21A60039B5B6C1B689C
:1039F000039A526C1268126822F01F021A6000BF0C
:103A0000039B5B6C1B681B6803F00103002BF7D161
:103A1000039B5B6C5B68039A526C127A3D2101FA3E
:103A200002F21A604FF43053C4F2010340F2FF7205
:103A3000C0F2C0029A634FF43053C4F20103002273
:103A4000DA634FF43053C4F201030022DA620398C0
:103A50000599FFF765FF029B012B05D903980C21FF
:103A60000022019B00F0A4F907B05DF804FB00BF41
:103A700008B5FDF71DF8202383F31188FCF7D8FF64
:103A80004FF43053C4F201030022DA6340F634638A
:103A9000C2F20003DB6B002B0DD040F63463C2F2A0
:103AA0000003DB6B1846FDF70BFA40F63463C2F2F5
:103AB00000030022DA63FCF7DBFF002383F31188A5
:103AC000FDF71EF8FCF78CFD08BD00BFAFF30080CA
:103AD00008B540F63460C2F20000FEF749FC40F63B
:103AE0003463C2F200030022DA6340F63463C2F2A8
:103AF0000003064A5A6440F63463C2F200034FF4EE
:103B00003052C4F201029A6408BD00BFF493000869
:103B100000B585B00190019A4FF4A843C0F60303A5
:103B20001364019B1B6C43F4200343F02003019AB0
:103B30001364019B1B79012B31D1019B5B6C1846EF
:103B4000092100220023FFF7C3FB03468DF80F3045
:103B50009DF80F30002B05D048F68040C0F60000DD
:103B6000FDF786F8019B5B6C1A684FF43253C4F280
:103B700001039360019B5B6C1B6807225A61312033
:103B80009021FCF7B5FD4FF46053C4F202034FF4EB
:103B90006052C4F20202526C42F400625A644FF462
:103BA0003053C4F2010300221A604FF43053C4F2C0
:103BB000010300225A604FF43053C4F20103002283
:103BC000DA624FF43053C4F2010300225A6205B0A6
:103BD0005DF804FBAFF30080AFF30080AFF300802B
:103BE00000B583B001904FF43053C4F20103782242
:103BF0005A604FF43053C4F201034FF43052C4F210
:103C00000102126842F003021A604FF43053C4F20A
:103C100001034FF43052C4F20102526842F4807240
:103C20005A600A20FDF74CFC03B05DF804FB00BFAE
:103C300082B001904FF43053C4F201034FF430527C
:103C4000C4F20102526822F0FF025A6002B07047CB
:103C500082B001904FF43053C4F2010300225A6045
:103C60004FF43053C4F2010300221A6002B07047CF
:103C700084B001900B468DF803304FF43053C4F2FA
:103C800001035B6823F4C05303939DF80330012BB9
:103C90000AD0022B11D0002B18D14FF43053C4F2AC
:103CA0000103039A5A6011E04FF43053C4F2010348
:103CB000039A42F400625A6008E04FF43053C4F2B1
:103CC0000103039A42F480525A6000BF04B0704767
:103CD00084B003900B4601928DF80B304FF43053B3
:103CE000C4F20103019A9A604FF43053C4F2010305
:103CF0009DF80B2042F48062DA6000BF4FF430532D
:103D0000C4F201035B6B03F08003002BF6D04FF489
:103D10003053C4F2010380229A6304B0704700BF9D
:103D200000B587B00390019200930B468DF80B30DD
:103D30004FF43053C4F20103019A9A604FF43053A8
:103D4000C4F201039DF80B2042F04002D2B242F4CB
:103D50008062DA6000BF4FF43053C4F201035B6B42
:103D60000593059B03F04503002BF4D04FF430532B
:103D7000C4F20103059A9A63059B03F00403002B28
:103D800005D003980599FFF7CBFD012307E04FF419
:103D90003053C4F201035A69009B1A60002318468D
:103DA00007B05DF804FB00BFAFF30080AFF3008005
:103DB00000B587B00390019200930B468DF80B304D
:103DC0004FF43053C4F20103019A9A604FF4305318
:103DD000C4F201039DF80B2042F04002D2B242F43B
:103DE0008062DA6000BF4FF43053C4F201035B6BB2
:103DF0000593059B03F04503002BF4D04FF430539B
:103E0000C4F20103059A9A63059B03F00503002B96
:103E100005D003980599FFF783FD012307E04FF4D0
:103E20003053C4F201035A69009B1A6000231846FC
:103E300007B05DF804FB00BFAFF30080AFF3008074
:103E400000B587B00390019200930B468DF80B30BC
:103E50004FF43053C4F20103019A9A604FF4305387
:103E6000C4F201039DF80B2062F03F02D2B242F48B
:103E70008062DA6000BF4FF43053C4F201035B6B21
:103E80000593059B03F04503002BF4D04FF430530A
:103E9000C4F20103059A9A63059B03F03F03002BCC
:103EA00005D003980599FFF73BFD012322E0009A16
:103EB000131D00934FF43053C4F201031B6A1360C7
:103EC000009A131D00934FF43053C4F20103DB69D1
:103ED0001360009A131D00934FF43053C4F2010392
:103EE0009B6913604FF43053C4F201035A69009B7D
:103EF0001A600023184607B05DF804FBAFF300809A
:103F000000B587B00390029101920093009BB3F536
:103F1000004F05D348F69440C0F60000FCF7A8FE19
:103F20004FF43053C4F201034DF2C042C0F201021B
:103F30005A620398FEF7E4F90346002B01D00123EF
:103F400055E0039B5B6C1B68019ADA60039B5B6C1A
:103F50001B68009A520292085A60039B5B6C1B68B4
:103F6000039A126C1A60039B5B6C1B68039A526C79
:103F70001268126842F001021A604FF43053C4F222
:103F8000010340F2FF72C0F2C0029A634FF4305353
:103F9000C4F2010340F22A32DA634FF43053C4F220
:103FA0000103009A52029A624FF43053C4F20103A3
:103FB0009B22DA6205AB03980299009AFFF7B8FBDF
:103FC0000346002B00D00BE005AB039800991A467E
:103FD000FFF72EFC0346002B00D001E0002306E093
:103FE00005AB039800991A46FFF7EAFC012318462F
:103FF00007B05DF804FB00BFAFF30080AFF30080B3
:1040000000B587B00390029101920093009BB3F535
:10401000004F05D348F69440C0F60000FCF728FE98
:104020004FF43053C4F2010348F68052C0F25B02F1
:104030005A620398FEF764F90346002B01D001236E
:1040400057E0039B5B6C1B68019ADA60039B5B6C17
:104050001B68009A520292085A60039B5B6C1B68B3
:10406000039A126C42F040021A60039B5B6C1B685F
:10407000039A526C1268126842F001021A604FF4FF
:104080003053C4F2010340F2FF72C0F2C0029A63DF
:104090004FF43053C4F2010340F21A32DA634FF4A2
:1040A0003053C4F20103009A52029A6205AB03989E
:1040B0000299009AFFF77CFB0346002B00D011E029
:1040C0004FF43053C4F201039922DA6205AB03982E
:1040D00000991A46FFF7ACFB0346002B00D001E025
:1040E000002306E005AB039800991A46FFF768FC29
:1040F0000123184607B05DF804FB00BFAFF3008052
:1041000000B587B00390029101920093019B03F0E8
:104110000303002B2ED00023059325E0039802997A
:1041200040F68062C2F200020123FFF7E9FE034677
:10413000002B01D0012324E0019A40F68063C2F2F3
:10414000000311461A464FF40073084611461A46FA
:10415000FCF756F8019B03F500730193029B0133B2
:104160000293059B01330593059A009B9A42D5D390
:10417000002306E003980299019A009BFFF7C0FE16
:104180000346184607B05DF804FB00BFAFF300809C
:1041900000B587B00390029101920093019B03F058
:1041A0000303002B2DD00023059324E040F6806309
:1041B000C2F20003019A19464FF4007308461146F3
:1041C0001A46FCF71DF8019B03F500730193039851
:1041D000029940F68062C2F200020123FFF710FF4D
:1041E0000346002B01D0012312E0029B013302930E
:1041F000059B01330593059A009B9A42D6D3002371
:1042000006E003980299019A009BFFF7F9FE034626
:10421000184607B05DF804FBAFF30080AFF30080F1
:1042200082B001900023184602B07047AFF30080BF
:1042300082B001900091009B5A68019B5A60009BDC
:104240009A68019B9A60009BDA68019BDA60009B88
:104250001A69019B5A61009B5A69019B1A62009B73
:104260009A69019B5A62009B1A68019B1A6002B00E
:10427000704700BFAFF30080AFF30080AFF3008062
:1042800000B583B001904FF46053C4F202034FF4C1
:104290006052C4F20202126B6FEA52226FEA4222AB
:1042A0001A634FF46053C4F202034FF46052C4F235
:1042B0000202126D6FEA52226FEA42221A65019BD6
:1042C0000020C4F202001946FFF7B2FF019B1C3325
:1042D0004FF48060C4F202001946FFF7A9FF019B6A
:1042E00038334FF40060C4F202001946FFF7A0FF14
:1042F000019B54334FF44060C4F202001946FFF7AB
:1043000097FF019B70334FF48050C4F202001946AE
:10431000FFF78EFF019B8C334FF4A050C4F20200D4
:104320001946FFF785FF019BA8334FF4C050C4F234
:1043300002001946FFF77CFF019BC4334FF4E050A5
:10434000C4F202001946FFF773FF019BE0334FF4FC
:104350000050C4F202001946FFF76AFF03B05DF88F
:1043600004FB00BFAFF30080AFF30080AFF3008029
:104370008EB0039002910192019B03F003030D9311
:10438000019B03F004039B080C93019B03F01803AB
:10439000DB080B93019B03F060035B090A93019B0D
:1043A00003F4F063DB09089300230993029B03F0F5
:1043B0000103002B54D0099B03F007039B00089ACC
:1043C00002FA03F30793099B03F007039B000F22F4
:1043D00002FA03F30693099B072B09D8039B1A6A79
:1043E000069BDB431A40079B1A43039B1A6208E0B3
:1043F000039B5A6A069BDB431A40079B1A43039BA5
:104400005A62099B012202FA03F30593039B5A683F
:10441000059BDB431A400C9B1A43039B5A60099B84
:104420005B00032202FA03F30493039B9A68049B44
:10443000DB431A400B9B1A43039B9A60039BDA6889
:10444000049BDB431A400A9B1A43039BDA60039BDD
:104450001A68049BDB431A400D9B1A43039B1A60A6
:10446000029B5B080293029B002B00D10FE00C9B88
:104470005B000C930B9B9B000B930A9B9B000A9386
:104480000D9B9B000D93099B013309938EE70EB0A2
:10449000704700BFAFF30080AFF30080AFF3008040
:1044A00084B001900091019B5B6F0393019B5A6F55
:1044B0004FF48053C4F201039A4207D0019B5A6F14
:1044C0004FF4A053C4F201039A420BD1009B1A6827
:1044D0004FF43D43C0F20153B3FBF2F39AB2039B96
:1044E0001A810AE0009B1A684DF68063C0F28023AF
:1044F000B3FBF2F39AB2039B1A81009BDB8843F073
:1045000040039AB2039B1A82009B1B8943F001036C
:104510009AB2039B9A82009B9B8843F4045343F016
:104520002C039AB2039B9A81039B00221A80039B5F
:104530001B88039B9B8804B0704700BFAFF30080CB
:1045400000B585B001900B46ADF80230002303930F
:10455000BDF8023003F00803002B03D0039B43F0A7
:1045600080030393BDF8023003F00103002B03D056
:10457000039B43F020030393BDF8023003F00203D2
:10458000002B03D0039B43F040030393BDF802309C
:1045900003F00403002B03D0039B43F480730393C5
:1045A000019B043318460399FDF77AF905B05DF8CD
:1045B00004FB00BFAFF30080AFF30080AFF30080D7
:1045C00000B587B00190019B5B6F0493049B9B89AE
:1045D000ADF80E30049B1B88ADF81630BDF81630D0
:1045E00003F48073002B14D0202383F31188FCF78D
:1045F0001FFA019B043318464FF40071FDF750F980
:10460000FCF736FA002383F31188049B4FF6FF6210
:104610001A80202383F31188FCF70AFA17E0BDF80B
:10462000163003F00F03002B05D0BDF816300198AB
:104630001946FFF785FF049B9B889BB2DBB201986C
:104640001946FEF7CDFA049B1B88ADF81630BDF86D
:10465000163003F02003002BE1D1FCF709FA002308
:1046600083F31188BDF80E3003F08003002B2ED0A9
:10467000BDF8163003F08003002B28D0202383F3ED
:104680001188FCF7D5F9019B30331846FDF768FB1C
:104690000290029B002B11DA019B0433184608217B
:1046A000FDF7FEF8BDF80E3023F0C0039BB243F0D7
:1046B00040039BB29AB2049B9A8103E0029B9AB298
:1046C000049B9A80FCF7D4F9002383F31188BDF88A
:1046D000163003F04003002B1AD0202383F31188F7
:1046E000FCF7A6F9019B043318461021FDF7D8F812
:1046F000FCF7BEF9002383F31188BDF80E3023F0D8
:10470000C0039AB2049B9A81049B4FF6BF721A8031
:1047100007B05DF804FB00BFAFF30080AFF300808B
:1047200082B001904FF48843C4F200034FF48842F2
:10473000C4F20002928992B242F0800292B29A814F
:1047400002B07047AFF30080AFF30080AFF300809A
:1047500008B5FCF7ADF941F28000C2F20000FFF7A6
:104760002FFFFCF7CDF9FBF73BFF08BDAFF300804F
:1047700008B541F28000C2F20000002144F221722B
:10478000C0F60002FEF7CCF941F28003C2F200034A
:104790004FF48842C4F200025A6708BDAFF30080AC
:1047A00000B583B001900091009B002B04D149F229
:1047B0003043C0F600030093019B1B7A012B16D1F6
:1047C000019A41F28003C2F200039A420FD14FF4E2
:1047D0006053C4F202034FF46052C4F20202126C3E
:1047E00042F400321A642620C021FBF781FF0198B1
:1047F0000099FFF755FE03B05DF804FBAFF30080AE
:1048000008B5FEF7BDFE08BDAFF30080AFF3008032
:1048100082B001900123184602B07047AFF30080C8
:1048200082B001900023184602B07047AFF30080B9
:10483000704700BFAFF30080AFF30080AFF300809C
:1048400000B585B003468DF807309DF80730002B82
:1048500021D100238DF80F3040F63463C2F20003FB
:104860001B79052B05D09DF80F3043F001038DF81F
:104870000F3040F63460C2F20000FFF7D1FF03466C
:10488000002B05D09DF80F3043F004038DF80F3056
:104890009DF80F3000E00223184605B05DF804FBD8
:1048A00000B585B003468DF807309DF80730002B22
:1048B00021D100238DF80F3040F63463C2F200039B
:1048C0001B79052B05D09DF80F3043F001038DF8BF
:1048D0000F3040F63460C2F20000FFF7A1FF03463C
:1048E000002B05D09DF80F3043F004038DF80F30F6
:1048F0009DF80F3000E00223184605B05DF804FB78
:1049000000B585B00291019202468DF80F208DF816
:104910000E309DF80F30002B19D140F63463C2F2EF
:1049200000031B79052B01D0032311E09DF80E3005
:1049300040F63460C2F200000199029AFDF7E8FEE9
:104940000346002B01D0012302E0002300E00423F2
:10495000184605B05DF804FBAFF30080AFF30080AC
:1049600000B585B00291019202468DF80F208DF8B6
:104970000E309DF80F30002B19D140F63463C2F28F
:1049800000031B79052B01D0032311E09DF80E30A5
:1049900040F63460C2F200000199029AFDF700FF70
:1049A0000346002B01D0012302E0002300E0042392
:1049B000184605B05DF804FBAFF30080AFF300804C
:1049C00000B583B00B46009202468DF807208DF8A3
:1049D00006309DF80730002B38D19DF80630042BA7
:1049E00032D801A252F823F0FD490008014A00081C
:1049F000134A00081F4A00082B4A0008002326E03B
:104A000040F63463C2F200039A6A009B1A600023E6
:104A10001DE0009B4FF400721A80002317E0009BFA
:104A20004FF480721A60002311E0009B1A68009B0B
:104A300004331B6840F63460C2F2000011461A4687
:104A4000FDF746FF002302E0042300E0042318469C
:104A500003B05DF804FB00BFAFF30080AFF300804C
:104A60004FF4041318467047AFF30080AFF3008093
:104A700000B583B0019000200199FDF7B1FA03461B
:104A8000184603B05DF804FBAFF30080AFF300807D
:104A900000B583B001900198FDF71AFB03B05DF8F3
:104AA00004FB00BFAFF30080AFF30080AFF30080E2
:104AB00086B0039002910192039B0593029B04939D
:104AC0000CE0049B1A68059B1A60059B0433059350
:104AD000049B04330493019B043B0193019B032B30
:104AE000EFD807E0059B5A1C0592049A511C0491CB
:104AF00012781A70019B5A1E0192002BF2D106B057
:104B0000704700BFAFF30080AFF30080AFF30080C9
:104B100086B0039002910192039B059305E0059BEB
:104B20005A1C0592029AD2B21A70019B5A1E019227
:104B3000002BF4D106B07047AFF30080AFF30080D4
:104B400088B0039002910192039B0793029B069306
:104B50000023059300BF019B5A1E0192002B0DD02C
:104B6000079B5A1C07921B781A46069B591C0691F4
:104B70001B78D31A0593059B002BECD0059B184698
:104B800008B07047AFF30080AFF30080AFF3008050
:104B900082B00190009102E0019B01330193019BDF
:104BA0001B78002B05D0019B1B781A46009B9A426C
:104BB000F2D1019B1B78184602B07047AFF300801A
:104BC00000B585B001900091019BDB6A0393039AC5
:104BD000009B9A424FD0019B1B79002B36D0019B42
:104BE0005A78019B303310461946039A0123FFF788
:104BF000B7FE0346002B01D001233DE0019B0022BC
:104C00001A71019B1A6A019BDB691A44039B9A4241
:104C10001CD9019BDB788DF80B3013E0019BDB691D
:104C2000039A13440393019B5A78019B3033104637
:104C30001946039A0123FFF793FE9DF80B30013BC1
:104C40008DF80B309DF80B30012BE7D8009B002B23
:104C500011D0019B5A78019B303310461946009AB7
:104C60000123FFF74DFE0346002B01D0012303E093
:104C7000019B009ADA620023184605B05DF804FB38
:104C800000B585B0019001980021FFF799FF034618
:104C90008DF80F309DF80F30002B51D1019B1B7800
:104CA000032B40D1019B5B79002B3CD0019B002260
:104CB000DA62019B3033184600214FF40072FFF78F
:104CC00027FF019B03F22E234AF655221A80019BEF
:104CD00003F1300245F25223C4F261131360019BC9
:104CE00003F5057247F27223C6F241131360019B6C
:104CF00003F50673019A12691A60019B03F50773A5
:104D0000019AD2681A60019B5978019B03F1300225
:104D1000019B5B69084611461A460123FFF720FEF6
:104D2000019B00225A71019B5B78184600210022EA
:104D3000FFF746FE0346002B02D001238DF80F300B
:104D40009DF80F30184605B05DF804FBAFF3008006
:104D500082B001900091009B023B0093019B9B69F4
:104D60009A1E009B9A4201D8002307E0019B9B7882
:104D7000009A02FB03F2019B9B6A1344184602B09F
:104D8000704700BFAFF30080AFF30080AFF3008047
:104D900000B587B001900091009B012B04D9019BC5
:104DA0009A69009B9A4201D801237EE0019B1B78FF
:104DB000022B46D0032B5CD0012B74D1009B0593B2
:104DC000059B5B08059A13440593019B1A6A059B92
:104DD0005B0A134401981946FFF7F2FE0346002BC5
:104DE00000D060E0059BC3F30803019A134493F8D5
:104DF00030300493059B01330593019B1A6A059B90
:104E00005B0A134401981946FFF7DAFE0346002BAC
:104E100000D048E0059BC3F30803019A134493F8BC
:104E200030301B02049A13430493009B03F00103E8
:104E3000002B02D0049B1B0902E0049BC3F30B036D
:104E400033E0019B1A6A009B1B0A13440198194620
:104E5000FFF7B6FE0346002B00D024E0009B5B006A
:104E600003F4FF733033019A13440393039B1B88AD
:104E70001BE0019B1A6A009BDB0913440198194649
:104E8000FFF79EFE0346002B00D00CE0009B9B002A
:104E900003F4FE733033019A13440393039B1B689E
:104EA00023F0704301E04FF0FF33184607B05DF880
:104EB00004FB00BFAFF30080AFF30080AFF30080CE
:104EC00000B589B0039002910192029B012B04D995
:104ED000039B9A69029B9A4203D802238DF81F30E4
:104EE000C0E0039B1B78022B74D0032B00F0908052
:104EF000012B40F0B180029B0693069B5B08069A4B
:104F000013440693039B1A6A069B5B0A1344039897
:104F10001946FFF755FE03468DF81F309DF81F30E8
:104F2000002B00D09BE0069BC3F308033033039AA9
:104F300013440593029B03F00103002B0DD0059B46
:104F40001B78DBB203F00F03DAB2019BDBB21B016B
:104F5000DBB21343DBB2DBB201E0019BDBB2059AAB
:104F60001370069B01330693039B01221A71039B66
:104F70001A6A069B5B0A134403981946FFF720FE42
:104F800003468DF81F309DF81F30002B00D066E0DF
:104F9000069BC3F308033033039A13440593029B23
:104FA00003F00103002B03D0019B1B09DBB20EE0D1
:104FB000059B1B78DBB223F00F03DAB2019B1B0ABF
:104FC000DBB203F00F03DBB21343DBB2DBB2059AB3
:104FD000137044E0039B1A6A029B1B0A1344039854
:104FE0001946FFF7EDFD03468DF81F309DF81F3081
:104FF000002B00D033E0029B5B0003F4FF733033DF
:10500000039A13440593019B9AB2059B1A8026E0EC
:10501000039B1A6A029BDB09134403981946FFF7A6
:10502000CFFD03468DF81F309DF81F30002B00D0B8
:1050300015E0029B9B0003F4FE733033039A134484
:105040000593059B1B6803F07043019A134301937A
:10505000059B019A1A6002E002238DF81F30039B22
:1050600001221A719DF81F30184609B05DF804FB43
:1050700000B589B001900091009B0693009B0593B9
:10508000009B012B04D9019B9A69009B9A4203D88B
:1050900002238DF81F3060E000238DF81F3057E0A9
:1050A00001980099FFF774FE0490049B002B00D137
:1050B00053E0049B012B03D102238DF81F304CE0F9
:1050C000049BB3F1FF3F03D101238DF81F3044E06F
:1050D000019800990022FFF7F3FE03468DF81F3078
:1050E0009DF81F30002B00D037E0019B1B69B3F106
:1050F000FF3F07D0019B1B695A1C019B1A61019B52
:1051000001225A71059B5A1C049B9A4202D1049BAE
:1051100005931BE001980699FFF71AFE03460293D8
:1051200001980599FFF714FE0246019B9B781344F2
:10513000013B0393019B5A7802AB104604211A46A7
:10514000FFF73EFC049B0593059B0693049B00938D
:10515000019B9A69009B9A42A2D89DF81F3018467D
:1051600009B05DF804FB00BFAFF30080AFF300802F
:1051700000B587B001900091009B002B0DD1019BE1
:10518000DB680493049B002B04D0019B9A69049B69
:105190009A4215D80123049312E001980099FFF771
:1051A000F7FD0290029B012B01D801236BE0019BCC
:1051B0009A69029B9A4201D9029B64E0009B049386
:1051C000049B0593059B01330593019B9A69059BFD
:1051D0009A4207D802230593059A049B9A4201D963
:1051E000002350E001980599FFF7D2FD0290029B41
:1051F000002B0ED100BF019805996FF07042FFF7A8
:105200005FFE03468DF80F309DF80F30002B1BD149
:105210000FE0029BB3F1FF3F02D0029B012B01D1B3
:10522000029B30E0059A049B9A4201D100232AE0B8
:10523000C8E7009B002B07D001980099059AFFF75B
:105240003FFE03468DF80F309DF80F30002B10D134
:10525000019B059ADA60019B1B69B3F1FF3F11D0F6
:10526000019B1B695A1E019B1A61019B01225A7105
:1052700008E09DF80F30012B02D14FF0FF3300E022
:1052800001230593059B184607B05DF804FB00BF9A
:1052900000B585B001900B46ADF80230019BBDF81A
:1052A0000220DA80019B9B680393039B012B05D0AE
:1052B000019B1B689A69039B9A4201D802236EE006
:1052C000039B002B08D1019B1B681B78032B03D188
:1052D000019B1B685B6A0393039B002B16D1019B08
:1052E000039ADA60019B1B681B89BDF802209A4271
:1052F00001D3022353E0019B1B685A6ABDF80230B8
:105300001B099BB21A44019B1A613CE0019B1B687C
:105310009B781B01ADF80A301EE0019B1B68184604
:105320000399FFF735FD0390039BB3F1FF3F01D1D4
:10533000012334E0039B012B05D9019B1B689A696B
:10534000039B9A4201D8022329E0BDF80220BDF850
:105350000A30D31AADF80230BDF80220BDF80A3089
:105360009A42DAD2019B039ADA60019B1B681846C5
:105370000399FFF7EDFC0246BDF802301B099BB212
:105380001A44019B1A61019B1A68BDF8023003F0B0
:105390000F035B0130331A44019B5A610023184606
:1053A00005B05DF804FB00BFAFF30080AFF30080F1
:1053B00010B584B001900091019BDB880133ADF8FA
:1053C0000830BDF80830002B03D0019B1B69002B6F
:1053D00001D10423C6E0BDF8083003F00F039BB2EF
:1053E000002B40F0AF80019B1B695A1C019B1A6186
:1053F000019BDB68002B09D1019B1B681B89BDF851
:1054000008209A42C0F09E800423ABE0BDF808302B
:105410001B099BB21A46019B1B689B78013B1340FA
:10542000002B40F08F80019B1A68019BDB681046BF
:105430001946FFF7ADFC0390039B012B01D8022313
:1054400090E0039BB3F1FF3F01D101238AE0019B70
:105450001B689A69039B9A4268D8009B002B01D174
:1054600004237FE0019B1A68019BDB681046194604
:10547000FFF77EFE0390039B002B01D1072371E011
:10548000039B012B01D102236CE0039BB3F1FF3F8F
:1054900001D1012366E0019B1B6818460021FFF73C
:1054A0008FFB0346002B01D001235BE0019B1B68AF
:1054B0003033184600214FF40072FFF729FB019B9F
:1054C0001C68019B1B6818460399FFF741FC0346C3
:1054D000E36200238DF80B3018E0019B1B6801226A
:1054E0001A71019B1B6818460021FFF769FB0346F0
:1054F000002B01D0012335E0019B1B68DA6A0132E1
:10550000DA629DF80B3001338DF80B30019B1B687C
:105510009B789DF80B209A42DFD3019B1B68019A70
:105520001268D16A9DF80B208A1ADA62019B039AED
:10553000DA60019B1B6818460399FFF709FC0246D5
:10554000019B1A61019BBDF80820DA80019B1A6853
:10555000BDF8083003F00F035B0130331A44019BA0
:105560005A610023184604B010BD00BFAFF300809D
:1055700000B587B001900091009B1B7823F0400399
:105580005A1E13465B0013449B00134405930023EB
:1055900004930123ADF80E3049F24053C0F60003E6
:1055A000049A13441B78009A13441B88ADF80C30FE
:1055B000BDF80E30002B1BD0BDF80C30184601F0A2
:1055C0005FFF0346ADF80E30059BFE2B0ED8059B02
:1055D0005A1C05925B00019A13441B88184601F07F
:1055E0004FFF0346BDF80E209A4209D0002321E068
:1055F000BDF80C204FF6FF739A4201D0002319E04A
:10560000049B01330493049B0C2BC5D9009B1B788E
:1056100003F04003002B0CD0BDF80E30002B08D057
:10562000059B5B00019A13441B88002B01D00023CB
:1056300000E00123184607B05DF804FBAFF30080DB
:1056400088B0039002918DF807208DF80630029BF8
:105650000D339DF806201A70029B0B330F221A702F
:10566000029B0C3300221A70029B1A3300221A800C
:105670009DF807305A1E13465B0013449B001344E9
:1056800007930023ADF8163000230693BDF81620CB
:105690004FF6FF739A4208D0079B5A1C07925B0093
:1056A000039A13441B88ADF8163049F24053C0F6F4
:1056B0000003069A13441B78029A1344BDF816207F
:1056C0001A80BDF81630002B03D14FF6FF73ADF8EA
:1056D0001630069B01330693069B0C2BD6D9BDF8DA
:1056E00016204FF6FF739A4206D0079B5B00039A81
:1056F00013441B88002B05D19DF8073043F040036D
:105700008DF80730029B9DF807201A7008B070478B
:1057100000B58BB0039002910192ADF8023003986E
:1057200002990B22FFF7C4F9BDF80230052B11D9FD
:10573000BDF802309AB25208DB0313439AB2019BC0
:10574000991C01911B881344ADF80230019B1B8802
:10575000002BEDD107230893BDF80230DBB203F034
:105760000F03DBB230338DF827309DF82730392B0B
:1057700004D99DF8273007338DF82730089B5A1E2F
:1057800008920AA90B449DF8272003F8142CBDF8B1
:1057900002301B09ADF80230BDF80230002BDBD11E
:1057A00005AA089B13447E221A700023079302E087
:1057B000079B01330793079A089B9A4205D2039AE5
:1057C000079B13441B78202BF2D1079B5A1C07928E
:1057D000039A1A44089B072B07D8089B591C089169
:1057E0000AA90B4413F8143C00E020231370079B14
:1057F000072BEAD90BB05DF804FB00BFAFF30080C4
:1058000084B0019000238DF80F300B2302939DF894
:105810000F30DAB25208DB011343DAB2019B591C94
:1058200001911B7813448DF80F30029B013B0293CA
:10583000029B002BEBD19DF80F30184604B0704747
:1058400000B587B0019001980021FFF721FD0346C4
:105850008DF817309DF81730002B02D09DF81730C7
:10586000B2E0FF238DF814309DF814308DF8153018
:10587000019B1A68019B1B6910461946FFF7A0F9A6
:1058800003468DF817309DF81730002B00D099E0B3
:10589000019B5B690493049B1B788DF816309DF87F
:1058A0001630002B03D104238DF817308AE0049BB7
:1058B0000B331B7803F03F038DF80F309DF8163043
:1058C000E52B09D09DF80F3003F00803002B07D01B
:1058D0009DF80F300F2B03D0FF238DF8153065E0B6
:1058E0009DF80F300F2B3AD1019BDB69002B5DD067
:1058F0009DF8163003F04003002B11D0049B5B7B16
:105900008DF814309DF8163023F040038DF81630D2
:105910009DF816308DF81530019BDA88019B1A84AA
:105920009DF816209DF815309A4214D1049B0D3332
:105930001B789DF814209A420DD1019BDB69184613
:105940000499FFF715FE0346002B04D09DF815308F
:10595000013BDBB200E0FF238DF8153026E09DF817
:105960001530002B08D10498FFF74AFF03469DF835
:1059700014209A4200D125E0FF238DF81530019BB9
:105980004FF6FF721A84019B9B690B331B7803F05F
:105990000103002B0AD1019B9B69049819460B2235
:1059A000FFF7CEF80346002B00D10BE00198002151
:1059B000FFF7FEFC03468DF817309DF81730002BDB
:1059C0003FF456AF9DF81730184607B05DF804FB5A
:1059D00000B58DB00190019B9B690993019BDB6928
:1059E000089303AB184609990C22FFF761F89DF85C
:1059F000173003F00103002B3BD0099B0B3300222F
:105A00001A70019B0022DA610123ADF82C3017E0F7
:105A100003AABDF82C3009981146089AFFF778FEC2
:105A20000198FFF70DFF03468DF82F309DF82F30BA
:105A3000002B00D008E0BDF82C300133ADF82C303D
:105A4000BDF82C30632BE3D9BDF82C30642B01D189
:105A5000072314E19DF82F30042B02D09DF82F303E
:105A60000DE1099B0B339DF817201A70019B089AD2
:105A7000DA619DF8173003F00203002B20D00023D9
:105A8000ADF82A3004E0BDF82A300133ADF82A30F1
:105A9000BDF82A305B00089A13441B88002BF2D112
:105AA000BDF82A3003F119024EF64F43C4F6C46321
:105AB00083FB02139910D317CB1AADF82A3002E0FA
:105AC0000123ADF82A3001980021FFF7E1FB0346DE
:105AD0008DF82F309DF82F30002B02D09DF82F30FD
