:020000040800F2
:100000000004002071020008B1030008B1030008D9
:10001000B1030008B1030008B1030008B1030008F0
:10002000B1030008B1030008B1030008E1030008B0
:10003000B1030008B1030008B1030008C1040008BF
:10004000B1030008B1030008B1030008B1030008C0
:10005000B1030008B1030008B1030008B1030008B0
:10006000B1030008B1030008B10300081113000830
:100070005113000891130008D1130008111400084F
:100080005114000891140008611C0008B103000815
:10009000B1030008B1030008B1030008B103000870
:1000A000B1030008B1030008B1030008B103000860
:1000B000B1030008B1030008B1030008B103000850
:1000C000B1030008B1030008B1030008B103000840
:1000D000B1030008B1030008B1030008B103000830
:1000E000B1030008B1030008B1030008B103000820
:1000F000B1030008B1030008B1030008D1140008DF
:10010000B1030008B1030008B1030008B1030008FF
:10011000B1030008B1030008B1030008B1030008EF
:10012000111500085115000891150008D115000897
:1001300011160008B1030008B1030008B10300085C
:10014000B1030008B1030008B1030008B1030008BF
:100150005116000891160008D1160008B1030008D6
:10016000B1030008B1030008B1030008B10300089F
:10017000B1030008B1030008B1030008B10300088F
:08018000B1030008B1030008FF
:1001900000B583B000F064FF00F012FA4FF4006085
:1001A000C4F202000621032201F08AFF002440F677
:1001B000A06042F2F113C0F60003402200944FF415
:1001C0009871C2F2000000F053FE40F60060214634
:1001D000C2F2000000F074FF01F07AFE40F6006009
:1001E00042F2E07140F6D872C0F60001C2F200029D
:1001F0000823C2F2000001F00BF84FF47A7000F00F
:100200006FFE40F6006042F6100140F6E872C2F25E
:100210000000C0F60001C2F20002102300F0A8FFA7
:10022000C4F2020403E04FF4FA7000F059FE2369AF
:10023000DB07F8D540F60060C2F2000000F0B0FF26
:1002400001F056FEEFE700BFAFF30080AFF3008090
:10025000704700BFAFF30080AFF30080AFF30080C2
:10026000FEE700BFAFF30080AFF30080AFF3008084
:1002700072B640F60000C2F2000080F30988022343
:1002800083F31488BFF36F8F40F2000340F2004203
:10029000C2F20003C2F2000293420BD2D9431144CE
:1002A00021F0030119444FF05532043B43F8042F69
:1002B0008B42FBD140F20043C2F2000383420CD2D6
:1002C00037491A1D891A21F0030119444FF055329C
:1002D000043B43F8042F8B42FBD101F059FF40F659
:1002E000000140F60003C2F20001C2F2000399428D
:1002F0000ED2CC431C4424F0030442F648000434DC
:10030000C0F600000023C258CA500433A342FAD1F9
:1003100040F6000341F2E802C2F20003C2F200021A
:1003200093420AD2D943114421F003011944002217
:10033000043B43F8042F8B42FBD1FFF789FF40F2C7
:10034000881540F28813C0F60005C0F600039D42F0
:100350000BD2EE431E44B6080136043D002401349E
:1003600055F8043F9847B442F9D1FFF711FF40F226
:10037000881540F28813C0F60005C0F600039D42C0
:100380000BD2EE431E44B6080136043D002401346E
:1003900055F8043F9847B442F9D1FFF761FF00BF19
:1003A00003080020AFF30080AFF30080AFF30080BC
:1003B000FEE700BFAFF30080AFF30080AFF3008033
:1003C00072B6FEE7AFF30080AFF30080AFF30080BA
:1003D00000F096F900F0ACFC00F0B2F900DF00BFCD
:1003E000EFF30983203383F30988002383F3118813
:1003F000704700BFAFF30080AFF30080AFF3008021
:1004000008B54FF46D43CEF200034FF44072C0F2D2
:10041000FA52002199600720DA60102100F0A8F854
:100420000A20202100F0A4F80B208021BDE808401C
:1004300000F09EB8AFF30080AFF30080AFF3008010
:10044000202383F311884FF46D43CEF200035B68E1
:1004500013F4006320D0EFF30982A2F1200383F3A9
:10046000098840F63453C2F200034FF08070996956
:1004700042F8040C91F8230088B118688B688168F1
:10048000994294BF0023012393B140F2D133C0F6C7
:10049000000342F8083C704783F3118870471868DE
:1004A0008B688168994234BF00230123002BECD173
:1004B00040F2DC33C0F6000342F8083C704700BF4E
:1004C00008B500F09DF9202383F3118800F058F956
:1004D00000F0BEF800F074F9002383F3118800F0F7
:1004E000B7F9BDE80840FFF7ABBF00BFAFF300802E
:1004F0002DE9F04FC1F80CD0D0F80CD0BDE8F08F4A
:1005000008B500F01DF9002383F311882846A047A1
:1005100000F026FD08BD00BFAFF30080AFF3008000
:1005200020F0030303F1604303F56143F0B400F0EE
:1005300003024409D3F80053D200FF26A4009640DA
:1005400004F1604404F5614425EA06050127914061
:1005500000F01F0007FA00F045EA0102C3F800238B
:10056000C4F880012060F0BC704700BFAFF300808A
:1005700020F0030303F1604303F56D4300F0030033
:1005800010B4C0009A69FF24844022EA040281402A
:100590000A439A615DF8044B704700BFAFF30080D7
:1005A00040F63452C2F2000242F230239269C0F6A1
:1005B00000039361FEE700BFAFF30080AFF300805C
:1005C00010B582B0FFF71CFF00F052FA00F0E8F916
:1005D00000F0E6FC00F034FD00F0A2F940F6000067
:1005E0004021C2F2000000F0B3FB40F2004240F6AE
:1005F00034530121C2F20002C2F2000380F820103D
:10060000C261986100F064F8002383F3118862B638
:1006100040F63453C2F2000342F2B0329C69C0F695
:100620000002002140F6500040F2A153A261C0F642
:10063000000300910122C021C2F2000000F018FC6A
:1006400002B010BDAFF30080AFF30080AFF30080C5
:10065000F8B500F025F940F63453C2F200039A6968
:1006600092F8233013B1013B82F82330516A40F6EF
:100670002453C2F2000301315162DA681C6801326E
:100680009C42DA601DD0A768013FA760CFB91E4623
:100690002268E568E76053601A6000F091F8002373
:1006A00083F311882069A847202383F3118800F081
:1006B00067F83468A26840F62453C2F20003002AA7
:1006C000E6D0F8BDAFF30080AFF30080AFF3008059
:1006D00040F61013C2F200031B682BB940F61C53FE
:1006E000C2F200031B6853B140F62053C2F200036C
:1006F00042F25022C0F600021A60FFF761BE704756
:1007000040F61013C2F2000310B51B6840F61C54EB
:10071000C2F200040BB9236853B140F62053C2F271
:10072000000342F25822C0F600021A60FFF748FEAA
:100730000123236010BD00BFAFF30080AFF3008042
:1007400040F61013C2F2000310B51B6840F61C54AB
:10075000C2F200042BB92368002B02DD00232360C2
:1007600010BD40F62053C2F2000342F26022C0F6F0
:1007700000021A60FFF724FE0023236010BD00BFB3
:1007800040F61013C2F2000310B51B6840F61C546B
:10079000002BC2F2000401DD236853B140F6205360
:1007A000C2F2000342F26822C0F600021A60FFF7AC
:1007B00007FE0123236010BDAFF30080AFF300807C
:1007C00040F61013C2F2000310B51B6840F61C542B
:1007D000002BC2F2000405DD2368002B02DD00239C
:1007E000236010BD40F62053C2F2000342F2702293
:1007F000C0F600021A60FFF7E3FD0023236010BD7E
:1008000010B5202383F3118840F61014C2F20004BF
:100810002268002A05DB40F61C53C2F200031B6865
:100820005BB140F62053C2F2000342F27822C0F6D8
:1008300000021A60FFF7C4FD226801322260002323
:1008400083F3118810BD00BFAFF30080AFF30080C9
:1008500010B5202383F3118840F61014C2F200046F
:100860002268002A05DD40F61C53C2F200031B6813
:100870005BB140F62053C2F2000342F28022C0F680
:1008800000021A60FFF79CFD2268013A22600023F3
:1008900083F3118810BD00BFAFF30080AFF3008079
:1008A00040F61013C2F200031B68002B07DB40F672
:1008B0001C53C2F200031B68002B00DD704740F69A
:1008C0002053C2F2000342F28822C0F600021A60EE
:1008D000FFF776BDAFF30080AFF30080AFF3008089
:1008E00040F61013C2F200031B683BB940F61C53DC
:1008F000C2F200031B68002B00DD704740F6205356
:10090000C2F2000342F29022C0F600021A60FFF722
:1009100057BD00BFAFF30080AFF30080AFF300809E
:1009200040F61413C2F200031A46402142F8081B95
:100930005A607047AFF30080AFF30080AFF30080E0
:1009400010B440F6141340F6245440F63451C2F269
:100950000003C2F20004C2F200015A68E468896927
:1009600014605160816A916090F8204002F110019A
:1009700003F58160814214732ABF03F108025960B4
:100980005A605DF8044B7047AFF30080AFF300800E
:1009900040F62053C2F200031860FFF711BD00BFFC
:1009A00040F62453C2F200034FF0FF3100225B6097
:1009B0001B609960DA607047AFF30080AFF300808E
:1009C000F8B5054616460C461F46FFF769FF002E90
:1009D00018BF002D1CD0DCB140F62451C2F200013A
:1009E0002F610B68EE609A68944204D91B68A41AC0
:1009F0009A68A242FAD35A682B606A608B425D60A3
:100A00001560AC601EBF9A68C4EB02049C60F8BD20
:100A100042F2A020C0F60000FFF7BAFFDCE700BFFB
:100A200010B50446FFF73CFF9CB1E368C3B12368EF
:100A300040F62452C2F2000293421FBF9968A26896
:100A400052189A6062681360236800215A60E1605E
:100A500010BD42F2B020C0F60000FFF799FFE4E7B6
:100A600042F2C020C0F60000FFF792FFDFE700BFB0
:100A700040F63453C2F2000300225B601B605B61EE
:100A80001B619A60704700BFAFF30080AFF3008036
:100A900010B50446FFF704FF94F82030002B18BF70
:100AA0000E2B12D0002240F63453A16884F8202087
:100AB000C2F200031B689A688A42FBD25A6823601C
:100AC000626020465C60146010BD42F2E020C0F617
:100AD0000000FFF75DFFE5E7AFF30080AFF30080B4
:100AE00010B52023044683F31188FFF749FE94F8DC
:100AF00020300D2B11D8DFE803F016101007100B73
:100B0000101010101010100BA36A9A6801329A602E
:100B100094E80C001A60226853604FF0FF33A36220
:100B20002046FFF7B5FFFFF74BFE002383F3118844
:100B300010BD00BFAFF30080AFF30080AFF30080C3
:100B400070B540F63454C2F200040646FFF7C8FE02
:100B50002368A5691A6885F820601420012185F8AA
:100B600023005460284683F820102260A361FFF719
:100B7000E7FEEB69ADF12402934205D942F2F4207D
:100B8000C0F60000FFF704FFA0692946BDE87040E9
:100B9000FFF7AEBCAFF30080AFF30080AFF300808F
:100BA00070B50D4686B00646FFF79AFE6B1C18D04E
:100BB00040F63454C2F2000440F6E122A36929460B
:100BC00001A8C0F60002FFF7FBFE3046FFF7B8FFB2
:100BD000049B13B101A8FFF723FFA369986A06B02D
:100BE00070BD40F63454C2F200043046FFF7A8FF4F
:100BF000A369986A06B070BDAFF30080AFF30080C0
:100C000070B540F63455C2F2000504460E46FFF7B3
:100C100067FEA869A3688268A662934213D9FFF7AA
:100C200037FF0123064684F82030AC61FFF788FEC9
:100C3000F369ADF1240293420AD820463146BDE85B
:100C40007040FFF755BC2046BDE87040FFF720BF5D
:100C500042F2F420C0F60000FFF79AFE204631462B
:100C6000BDE87040FFF744BCAFF30080AFF30080F5
:100C700070B540F63454C2F2000414212368A5690B
:100C80001A6801265460284683F8206085F82310EE
:100C90002260A361FFF7FCFE2846FFF751FEEB69D7
:100CA000ADF12402934205D942F2F420C0F60000CF
:100CB000FFF76EFEA0692946BDE87040FFF718BC3B
:100CC00070B540F63456C2F2000601203268B569AC
:100CD0001368AC68336000215E6082F82000134620
:100CE000B26185F8201000E01B689A68A242FBD828
:100CF0005A682B606A6028465D601560FFF720FE29
:100D0000EB69ADF12402934205D942F2F420C0F61A
:100D10000000FFF73DFEB0692946BDE87040FFF7CF
:100D2000E7BB00BFAFF30080AFF30080AFF30080FC
:100D300040F63453C2F200039B6993F823300BB1A1
:100D4000FFF7BEBFFFF794BFAFF30080AFF30080A3
:100D50002DE9F00740F63452C2F200020024556932
:100D600080F8214000F130064FF0020A4FF01409DC
:100D70004FF0010800F14C0700F12C0C45610261B5
:100D8000816080F820A080F8239080F8228004649D
:100D9000C46344628461416450612861C7614663F1
:100DA0000663C0F82CC0BDE8F0077047AFF30080C1
:100DB0002DE9F04F04460D4683B090469946FFF763
:100DC0006FFD002C18BFAF2D09D9D9F1010338BF31
:100DD0000023B8F17F0F88BF43F001032BB142F22B
:100DE0001030C0F60000FFF7D3FD40F63456C2F2D3
:100DF0000006A5F1240160187269E06004F12C037B
:100E000044F8019040F201570C9901930025C0F677
:100E100000074FF0020B4FF0140A4FF0010C416035
:100E200007626261C4F808802661C4F8448084F8CF
:100E300020B0746184F821502564E5636562A56182
:100E400084F823A084F822C01461019A04F13003CD
:100E500004F14C092046E26263632363C4F81C90EA
:100E600003B0BDE8F08F00BFAFF30080AFF30080A8
:100E70002DE9F04F83B080460C9F894693469A46F1
:100E800000F14C050446FF2604F8016BA542FBD196
:100E900008EB0904A54204D2552605F8016BA542CA
:100EA000FBD1202383F31188FFF72AFC53465A46CF
:100EB000494600974046FFF77BFF00210446FFF7B5
:100EC0009FFEFFF73DFC002383F31188204603B00B
:100ED000BDE8F08FAFF30080AFF30080AFF3008088
:100EE00010B5044628B942F25030C0F60000FFF7B2
:100EF0004FFD202383F31188FFF702FC21460620D3
:100F0000FFF74EFEFFF71CFC002383F3118810BD92
:100F100038B540F63453C2F200039C692546A062FE
:100F200055F82C0FA84206D00368E362FFF7B0FD26
:100F3000E06AA842F8D194F821309B0704D12269D5
:100F400063691A61226953610E20FFF7F9FD42F2CD
:100F50006030C0F60000BDE83840FFF719BD00BFA3
:100F600010B52023044683F31188FFF7C9FB204600
:100F7000BDE81040FFF7CCBFAFF30080AFF30080B7
:100F800010B5044620B1002364602460A36010BD46
:100F900042F2D030C0F60000FFF7FAFCF3E700BFE2
:100FA0004CF2000140F6505240F654530648C2F24B
:100FB0000101C2F20002C2F2000321F0070120F099
:100FC0000700116018607047EF100020AFF3008039
:100FD00010B50446FFF764FC40F6545340F65052F7
:100FE000C2F20003C2F2000219681268E01D20F08C
:100FF0000700521A90429DBF401818600846002012
:1010000010BD00BFAFF30080AFF30080AFF30080EE
:1010100010B52023044683F31188FFF771FB2046A7
:10102000FFF7D6FF0446FFF78BFB002383F31188FD
:10103000204610BDAFF30080AFF30080AFF3008017
:1010400040F65853C2F2000341F211020021C0F6EB
:10105000000203F110001A609960D960FFF790BF99
:1010600008B500F0E5FB00F02BF942F2E060C0F6B5
:10107000000000F04DFF00F00BF8BDE8084001F063
:101080008FB800BFAFF30080AFF30080AFF30080F4
:1010900000F0A6BCAFF30080AFF30080AFF3008098
:1010A00000230122027043608360C36003614361D7
:1010B0001830FFF765BF00BFAFF30080AFF30080CB
:1010C00038B504460D46D8B1202383F31188FFF7C5
:1010D00017FB2378013BDBB2012B05D942F290408C
:1010E000C0F60000FFF754FC2046656000F0C0FC2D
:1010F00002232370FFF724FB002383F3118838BDFC
:1011000042F28040C0F60000FFF742FCDCE700BF7F
:10111000F8B504460E4617461D46FFF7C1FB002EE4
:1011200018BF002C1BD0D7B1012D01D0EB0716D46E
:1011300023781A1FD2B2022B18BF012A05D942F216
:10114000D440C0F60000FFF723FC0323A760E5604E
:10115000266123702046BDE8F84000F019BD42F238
:10116000BC40C0F60000FFF713FCE1E7AFF30080DE
:10117000F8B51C4607460E461546202383F3118812
:10118000FFF7BEFA2346384631462A46FFF7C0FF2E
:10119000FFF7D6FA002383F31188F8BDAFF3008080
:1011A00010B5044630B3202383F31188FFF7A8FA63
:1011B00023789A1ED2B2012A06D942F20850C0F60C
:1011C0000000FFF7E5FB2378022B0DD0204600F04E
:1011D00027FD6069002302222361227020B1636130
:1011E0006FF00101FFF70CFDFFF7AAFA002383F36C
:1011F000118810BD42F2F040C0F60000FFF7C8FBB6
:10120000D1E700BFAFF30080AFF30080AFF3008001
:101210002DE9F0411E46054688461746202383F3F4
:101220001188FFF76DFA6B692BB142F25450C0F68A
:101230000000FFF7ADFB40F63454C2F20004414613
:101240003A4633462846FFF763FFA36902206B61E5
:10125000FFF776FCA3699C6AFFF772FA002383F319
:1012600011882046BDE8F081AFF30080AFF3008025
:101270004FF48053CEF200035B688360704700BF79
:101280004FF48053CEF2000340F67852C2F20002CF
:101290005B68816810B41468C2685B1A1B1B9342B8
:1012A000836088BFC36003D80269934238BF03617B
:1012B0005DF8044B704700BFAFF30080AFF30080D0
:1012C00010B540F6785486B0C2F200044FF4805353
:1012D0000022CEF200034FF0FF312260049205910C
:1012E000596841F2712241F28123C0F60002C0F632
:1012F000000301A8029303910192FFF7C1FF039B32
:10130000236006B010BD00BFAFF30080AFF30080D4
:1013100010B5FFF775FA4FF4C042C4F2020240F66E
:101320007C53C2F2000311681C6801F03D0191601A
:101330000CB15868A047FFF78BFABDE81040FFF7E3
:101340007FB800BFAFF30080AFF30080AFF3008041
:1013500010B5FFF755FA4FF4C042C4F2020240F64E
:101360007C531168C2F20003890901F03D019C68B9
:10137000880190600CB1D868A047FFF769FABDE812
:101380001040FFF75DB800BFAFF30080AFF30080FF
:1013900010B5FFF735FA4FF4C042C4F2020240F62E
:1013A0007C531168C2F20003090C01F03D011C6975
:1013B000080490600CB15869A047FFF749FABDE8EE
:1013C0001040FFF73DB800BFAFF30080AFF30080DF
:1013D00010B5FFF715FA4FF4C042C4F2020240F60E
:1013E0007C531168C2F20003890D01F03D019C6934
:1013F000880590600CB1D869A047FFF729FABDE8CD
:101400001040FFF71DB800BFAFF30080AFF30080BE
:1014100010B5FFF7F5F94FF4C042C4F2020240F6EE
:101420007C53C2F2000351681C6A01F03D01D16097
:101430000CB1586AA047FFF70BFABDE81040FEF761
:10144000FFBF00BFAFF30080AFF30080AFF30080B9
:1014500010B5FFF7D5F94FF4C042C4F2020240F6CE
:101460007C535168C2F20003890901F03D019C6A76
:101470008801D0600CB1D86AA047FFF7E9F9BDE850
:101480001040FEF7DDBF00BFAFF30080AFF3008078
:1014900010B5FFF7B5F94FF4C042C4F2020240F6AE
:1014A0007C535168C2F20003090C01F03D011C6B32
:1014B0000804D0600CB1586BA047FFF7C9F9BDE82C
:1014C0001040FEF7BDBF00BFAFF30080AFF3008058
:1014D00010B5FFF795F94FF4C042C4F2020240F68E
:1014E0007C535168C2F20003890D01F03D019C6BF1
:1014F0008805D0600CB1D86BA047FFF7A9F9BDE80B
:101500001040FEF79DBF00BFAFF30080AFF3008037
:1015100010B5FFF775F94FF4C842C4F2020240F665
:101520007C53C2F2000311681C6C01F03D01916014
:101530000CB1586CA047FFF78BF9BDE81040FEF7DF
:101540007FBF00BFAFF30080AFF30080AFF3008038
:1015500010B5FFF755F94FF4C842C4F2020240F645
:101560007C531168C2F20003890901F03D019C6CB3
:10157000880190600CB1D86CA047FFF769F9BDE80D
:101580001040FEF75DBF00BFAFF30080AFF30080F7
:1015900010B5FFF735F94FF4C842C4F2020240F625
:1015A0007C531168C2F20003090C01F03D011C6D6F
:1015B000080490600CB1586DA047FFF749F9BDE8E9
:1015C0001040FEF73DBF00BFAFF30080AFF30080D7
:1015D00010B5FFF715F94FF4C842C4F2020240F605
:1015E0007C531168C2F20003890D01F03D019C6D2E
:1015F000880590600CB1D86DA047FFF729F9BDE8C8
:101600001040FEF71DBF00BFAFF30080AFF30080B6
:1016100010B5FFF7F5F84FF4C842C4F2020240F6E5
:101620007C53C2F2000351681C6E01F03D01D16091
:101630000CB1586EA047FFF70BF9BDE81040FEF75C
:10164000FFBE00BFAFF30080AFF30080AFF30080B8
:1016500010B5FFF7D5F84FF4C842C4F2020240F6C5
:101660007C535168C2F20003890901F03D019C6E70
:101670008801D0600CB1D86EA047FFF7E9F8BDE84B
:101680001040FEF7DDBE00BFAFF30080AFF3008077
:1016900010B5FFF7B5F84FF4C842C4F2020240F6A5
:1016A0007C535168C2F20003090C01F03D011C6F2C
:1016B0000804D0600CB1586FA047FFF7C9F8BDE827
:1016C0001040FEF7BDBE00BFAFF30080AFF3008057
:1016D00010B5FFF795F84FF4C842C4F2020240F685
:1016E0007C535168C2F20003890D01F03D019C6FEB
:1016F0008805D0600CB1D86FA047FFF7A9F8BDE806
:101700001040FEF79DBE00BFAFF30080AFF3008036
:1017100040F6FC53C2F2000330B4002142F2E0551F
:1017200040F67C5419600A460B46C0F60005C2F22A
:101730000004E8580C33C02B0160A15002F10802EC
:10174000F7D14FF4C0414FF4C842C4F20201C4F2D1
:1017500002024FF0FF338B6030BCCB609360D360EC
:10176000704700BFAFF30080AFF30080AFF300809D
:101770002DE9F041064684B000284CD040F6FC54D8
:10178000C2F20004777A2068012505FA07F818EA02
:10179000000F18BF28463BD140F67C5CC2F2000C1B
:1017A00048EA00000CEBC70510F0FF0F4CF837209B
:1017B0006B601CBF4FF46053C4F2020320601EBF75
:1017C0001C6B44F400141C6310F47F4F1CBF4FF4D7
:1017D0006053C4F2020334681EBF186B40F48000EB
:1017E0001863236823F01F032360236813F00105A7
:1017F000FBD1307A73683D27874021201F60256028
:101800006061104622B1B07A0901FEF789FE2846D0
:1018100004B0BDE8F08142F29050C0F600000391A0
:1018200002920193FFF7B4F8019B029A0399A5E78E
:101830004FF46053C4F20203F0B400224FF0FF34BF
:1018400019691C611A6159695C615A611E6A4EF21C
:101850001001CEF2000166F0805649F23F054EF6C7
:10186000F0501E62CEF200001A62C0F20205072696
:101870005F6A5C625A624D608A600E60C4684FF4B1
:101880008051CEF2000144F08074C460086840F0DA
:1018900001000860186C4FF4E041C4F2000140F010
:1018A00080501864086840F480700860196F01F473
:1018B0004071B1F5007F1EBF4FF4803119671A6780
:1018C0004FF4E043C4F20003F0BC5A6822F4007203
:1018D0005A60FFF71DBF00BFAFF30080AFF3008079
:1018E0004FF460514FF4E043C4F20201C4F200032C
:1018F0004FF080504FF4404208641A600B6843F088
:1019000001030B600A684FF460539007C4F20203AE
:10191000F8D51968002201F0F901196019469A609A
:101920008A684FF4605312F00C0FC4F20203F7D12F
:101930001A6842F480321A6019460A684FF46053FC
:101940009203C4F20203F8D55A6F42F001025A67BB
:1019500019464A6F4FF460539007C4F20203F8D55A
:1019600045F20842C0F240725A6019684FF4E042F2
:1019700041F080711960C4F2000253685904FCD52B
:101980004FF46051C4F202010A684FF460539201AF
:10199000C4F20203F8D54FF47052C4F202024FF4BD
:1019A0001441C3F6080140F20570996010609A680E
:1019B00042F002029A6019468A6802F00C024FF463
:1019C0006053082AC4F20203F6D15A6C42F48042F2
:1019D0005A645A6E42F480425A667047AFF30080F0
:1019E000F8B540F60066C2F20006304640F63465AF
:1019F000FFF756FBC2F200051A4F4FF4005242F6B1
:101A00001643C4F20102C0F20203284640F668649D
:101A1000C2F20004B2623363F762FFF741FB4FF496
:101A2000045242F61643A7F11801C4F20102C0F2B3
:101A300002232046AA62E9622B63FFF731FB4FF4D1
:101A4000085242F61643243FC0F20243C4F2010298
:101A5000E762A262236312206021BDE8F840FEF72E
:101A60005FBD00BF70260008AFF30080AFF30080B9
:101A700038B50378012B044600D038BD40F6006528
:101A8000C2F20005A8421CD040F63465C2F200053F
:101A9000A84231D040F66865C2F20005A84245D0A0
:101AA0004FF40C52C4F20102A36A546804F44004D7
:101AB000002144F48034012054605960996098609A
:101AC00038BD41F6F152C0F60002C06A0621234635
:101AD000FFF74EFE002843D1EB6A42F24C02196830
:101AE0004FF46053C4F20102C4F202038A605A6CDC
:101AF00042F480725A64D3E741F6F152C0F6000214
:101B0000C06A06212346FFF733FE80BBEB6A42F230
:101B10004C1219684FF46053C4F20102C4F202037C
:101B20008A605A6C42F400725A64B9E741F6F15285
:101B3000C0F60002C06A06212346FFF719FEE8B985
:101B4000EB6A42F24C2219684FF46053C4F201026E
:101B5000C4F202038A605A6C42F480625A649FE7BE
:101B600042F2A060C0F60000FEF712FFB4E742F2B6
:101B7000B460C0F60000FEF70BFFC7E742F2C86092
:101B8000C0F60000FEF704FFDAE700BFAFF3008005
:101B90000369026B19782DE9F003C56829B1012D9D
:101BA00094BF42F4807242F48472C16A5E88846891
:101BB0000968D3F80C80CC6006FB05F44C609F6983
:101BC0000A60DE691D6A5C6AD3F814C01B69D1F82B
:101BD0000090826A13F0804F48F0806043F44073B5
:101BE00049F001094FF0000840F4807014BF43F041
:101BF000030343F00103C1F80090C2F80080C2F86B
:101C00000CC01761D662156354635060BDE8F003E1
:101C100093607047AFF30080AFF30080AFF30080B4
:101C2000C16A0A68136823F01F0310B413601368B5
:101C300013F00103FBD10C7A826A48683D2101FA56
:101C400004F40121046053605DF8044B93609160DB
:101C5000704700BFAFF30080AFF30080AFF30080A8
:101C600010B5FEF7CDFD4FF40053C4F2010300217F
:101C70001A681960910609D540F60064C2F20004A2
:101C8000E36A1B685B68002B40F081804FF40453CB
:101C9000C4F2010300211A681960920608D540F6C3
:101CA0003464C2F20004E36A1B685B68002B41D114
:101CB0004FF40853C4F2010300211A681960930617
:101CC00032D540F66864C2F20004E36A1B685B68C0
:101CD00053B3236943B32046FFF7A2FF23699B68F0
:101CE0004BB1052222702046012198472378052B0D
:101CF00004BF0223237000232361202383F3118870
:101D0000FEF73EFD40F66863C2F20003586930B149
:101D10004FF0FF32826200225A61FEF7B9FEFEF7F1
:101D20004FFD002383F31188FEF792FDBDE81040BC
:101D3000FEF786BB2369002BBAD02046FFF770FF61
:101D400023699B684BB105222270204601219847E8
:101D50002378052B04BF0223237000232361202353
:101D600083F31188FEF70CFD40F63463C2F20003E2
:101D7000586930B14FF0FF32826200225A61FEF79B
:101D800087FEFEF71DFD002383F3118890E723698A
:101D9000002B3FF47BAF2046FFF742FF23699B688F
:101DA0004BB1052222702046012198472378052B4C
:101DB00004BF0223237000232361202383F31188AF
:101DC000FEF7DEFC40F60063C2F20003586930B152
:101DD0004FF0FF32826200225A61FEF759FEFEF791
:101DE000EFFC002383F3118850E700BFAFF30080BE
:101DF00011F00C0F38B504461ED10369DBB18A0619
:101E000011D51D78002D3DD05D68A5B1C268012AAD
:101E100085BF598883688168520884BF514303EBAA
:101E20004101A84738BDCD0605D55B681BB1C26826
:101E300081685208984738BDFFF7F2FE23699B6816
:101E40004BB1052222702046002198472378052BAC
:101E500004BF0223237000232361202383F311880E
:101E6000FEF78EFC63693BB100214FF0FF326161E8
:101E700018469A62FEF70CFEFEF7A2FC002383F3DD
:101E8000118838BDFFF7CCFE23695B68D3B104220B
:101E900022702046A168E26898472378042B02BF8D
:101EA000022325612370202383F31188FEF768FC49
:101EB0006369002BE0D00022626118469A62FEF747
:101EC000E7FDD9E7022223612270ECE7AFF300803F
:101ED0004FF40C53C4F201035A6842F400025A60F2
:101EE000704700BFAFF30080AFF30080AFF3008016
:101EF0004FF40C53C4F201035A6822F400025A60F2
:101F0000704700BFAFF30080AFF30080AFF30080F5
:101F10004FF46053C4F202031A6B6FEA52226FEA65
:101F200042221A631A6D6FEA52226FEA42221A6540
:101F300000234168C4F202034FF480625960816853
:101F40009960C168D9600169596141691962816903
:101F5000596201681960016AC4F202024FF4006319
:101F60005160416A9160816AD160C16A5161016BBF
:101F70001162416B5162C1691160C4F20203C16B0D
:101F80005960016C9960416CD960816C5961C16C78
:101F90001962016D5962816B4FF440621960816D65
:101FA000C4F202024FF480535160C16D9160016E22
:101FB000D160416E5161816E1162C16E5162416D9D
:101FC0001160C4F20203416F5960816F9960C16F63
:101FD000D960D0F880105961D0F884101962D0F817
:101FE00088105962016F4FF4A0521960D0F8901018
:101FF000C4F202024FF4C0535160D0F894109160C3
:10200000D0F89810D160D0F89C105161D0F8A01091
:102010001162D0F8A4105162D0F88C101160D0F881
:10202000AC10C4F202034FF4E0525960D0F8B01083
:102030009960D0F8B410D960D0F8B8105961D0F8D0
:10204000BC101962D0F8C0105962D0F8A810C4F2C0
:1020500002021960D0F8C8305360D0F8CC309360D9
:10206000D0F8D030D360D0F8D4305361D0F8D83025
:102070001362D0F8DC305362D0F8C4104FF4005330
:102080001160D0F8E420C4F202035A60D0F8E820CE
:102090009A60D0F8EC20DA60D0F8F0205A61D0F8DD
:1020A000F4201A62D0F8F8205A62D0F8E0201A60C2
:1020B000704700BFAFF30080AFF30080AFF3008044
:1020C0002DE9F00F002302F00307C2F38006C2F3EC
:1020D000C105C2F341144FF00F09C2F3C3124FF010
:1020E000010A04E07600AD00A400BF00013303F054
:1020F000070C4FEA8C0C11F0010F02FA0CF809FAE8
:102100000CFC3CD0072B95BFD0F820B0D0F824B001
:102110002BEA0C0C2BEA0C0C95BF4CEA08084CEA95
:102120000808C0F82080C0F82480D0F804C00AFA5B
:1021300003F82CEA080C4CEA060CC0F804C04FF077
:10214000030B4FEA430CD0F808800BFA0CFC6FEA43
:102150000C0C0CEA080848EA0508C0F80880D0F81A
:102160000C800CEA080848EA0408C0F80C80D0F893
:1021700000800CEA080C4CEA070CC0F800C04908C3
:10218000B0D1BDE8F00F7047AFF30080AFF300802F
:10219000FFF7A6BBAFF30080AFF30080AFF3008082
:1021A000704700BFAFF30080AFF30080AFF3008053
:1021B00040F6E873C2F200038B420BBF40F6D073C7
:1021C00040F6D473C2F20003C2F2000319680A4455
:1021D0001A607047AFF30080AFF30080AFF3008068
:1021E000704700BFAFF30080AFF30080AFF3008013
:1021F00040F63452C2F2000208B5926942F640033A
:10220000C0F600034FF440644FF480459361C4F27C
:1022100002042E4626834FF4FA70FEF761FE6583B2
:102220004FF4FA70FEF75CFEF4E700BFAFF30080F6
:1022300069646C6500000000000000000000000000
:102240005356233100000000535623320000000093
:10225000535623330000000053562334000000007F
:10226000535623350000000053562336000000006B
:102270005356233700000000535623380000000057
:10228000535623390000000053562331300000001C
:102290005356233131000000000000000000000010
:1022A00022636856545365744922282900000000AF
:1022B00022636856545265736574492228290000C8
:1022C0006368565452657365744928292C2023315C
:1022D00000000000000000000000000000000000FE
:1022E000636853636852656164794928292C202307
:1022F00031000000737461636B206F766572666CE9
:102300006F770000000000000000000000000000E7
:1023100022636854686443726561746549222829A0
:102320000000000022636854686453657450726949
:102330006F7269747922282900000000636854686C
:1023400064526573756D6528292C202331000000C7
:10235000226368546864536C656570222829000004
:102360006368546864457869745328292C202331A4
:102370000000000022636854686457616974222871
:102380002900000063685468645761697428292C27
:102390002023310063685468645761697428292CCC
:1023A00020233200000000000000000000000000B8
:1023B0006D61696E0016831104044C080C1014182A
:1023C0001C20212223240000000000000000000047
:1023D0002263684D7478496E6974222829000000D0
:1023E0002263684D74784C6F636B53222829000078
:1023F00063684D74784C6F636B5328292C2023310C
:102400000000000063684D74784C6F636B5328299B
:102410002C202332000000002263684D747854722F
:10242000794C6F636B5322282900000063684D7458
:1024300078556E6C6F636B28292C202331000000C7
:1024400063684D7478556E6C6F636B28292C20235C
:102450003200000063684D7478556E6C6F636B5387
:1024600028292C202331000063684D7478556E6C48
:102470006F636B5328292C202332000000000000DA
:102480002261646353746172742228290000000081
:10249000616463537461727428292C202331000015
:1024A0002261646353746F7022282900616463534E
:1024B000746F7028292C202331000000226164638E
:1024C0005374617274436F6E76657273696F6E498F
:1024D000222829006164635374617274436F6E76BD
:1024E000657273696F6E4928292C20233100000022
:1024F0002261646353746F70436F6E7665727369A3
:102500006F6E22282900000061646353746F70436A
:102510006F6E76657273696F6E28292C20233100E7
:102520002261646353746F70436F6E766572736972
:102530006F6E49222829000061646353746F7043F1
:102540006F6E76657273696F6E4928292C2023316E
:1025500000000000616463436F6E76657274282921
:102560002C202331000000002261646341637175F7
:102570006972654275732228290000002261646334
:1025800052656C65617365427573222829000000ED
:1025900022646D6153747265616D416C6C6F63612F
:1025A000746522282900000022646D6153747265ED
:1025B000616D52656C656173652228290000000019
:1025C000646D6153747265616D52656C65617365AC
:1025D00028292C202331000000000000000000000A
:1025E000106002400860024000000B0028600240BA
:1025F0000860024006010C00406002400860024092
:1026000010020D00586002400860024016030E00E0
:10261000706002400C60024000040F0088600240BD
:102620000C60024006051000A06002400C600240F1
:1026300010061100B86002400C60024016072F001F
:102640001064024008640240000838002864024018
:1026500008640240060939004064024008640240F0
:10266000100A3A005864024008640240160B3B000E
:10267000706402400C640240000C3C00886402401C
:102680000C640240060D4400A06402400C64024049
:10269000100E4500B86402400C640240160F46005C
:1026A0006164635F6C6C645F737461727428292C5D
:1026B000202331006164635F6C6C645F73746172CA
:1026C0007428292C202332006164635F6C6C645F82
:1026D000737461727428292C2023330000000000D9
:1026E00000AAA02A00000000FFABFFFF5400014039
:1026F000FFFF00000000565500AA0A0080200800D5
:1027000040020000FFFFFFFF15455155FFFF00008D
:1027100000000004400000000180200200000000D2
:10272000FFFFFFFF54154554FFFF0000000000604D
:10273000000606000001005500000000FFFFFFFF3B
:1027400055505500FF0F0000000000000000000081
:102750004000000000000000FFFFFFFF000000003D
:10276000FFFF00000000000000000000000000006B
:1027700000000000FFFFFFFF00000000FFFF00005F
:102780000000000000000000000000000000000049
:10279000FFFFFFFF00000000FFFF0000000000003F
:1027A000000000000000000000000000FFFFFFFF2D
:1027B00000000000FFFF000000000000000000001B
:1027C0000000000000000000FFFFFFFF000000000D
:1027D000FFFF0000000000000000000000000000FB
:1027E0000000010000000000E121000800000000DE
:1027F0000000004000000000000000000000000099
:10280000000000000B0000000000000000000000BD
:1028100001000800B1210008E121000800000000CB
:1028200000000040D800D800000000000000700048
:10283000110200008B2DB6180000000000000000FF
:08284000626C696E6B657200A9
:04000005080002717C
:00000001FF
