:020000040800F2
:100000000004002051020008910300089103000839
:100010009103000891030008910300089103000870
:10002000910300089103000891030008C103000830
:10003000910300089103000891030008A10400083F
:100040009103000891030008910300089103000840
:100050009103000891030008910300089103000830
:100060009103000891030008910300083113000870
:1000700071130008B1130008F113000831140008CF
:1000800071140008B11400089103000891030008DE
:1000900091030008910300089103000891030008F0
:1000A00091030008910300089103000891030008E0
:1000B00091030008910300089103000891030008D0
:1000C00091030008910300089103000891030008C0
:1000D00091030008211E0008411E0008910300083A
:1000E00091030008910300089103000891030008A0
:1000F000910300089103000891030008F11400081F
:10010000910300089103000891030008910300087F
:10011000910300089103000891030008910300086F
:100120003115000871150008B1150008F115000817
:10013000311600089103000891030008910300089C
:10014000910300089103000891030008910300083F
:1001500071160008B1160008F11600089103000896
:10016000910300089103000891030008910300081F
:10017000910300089103000891030008910300080F
:0801800091030008910300083F
:1001900008B500F055FF00F003FA40F63C6040F669
:1001A0000001C2F20000C2F2000100F0C1FF002015
:1001B000C4F20200042140F2823201F0F9FC002076
:1001C000C4F20200082140F28232002401F0F0FC67
:1001D000C4F2020403E04FF4FA7000F071FE2369E8
:1001E000DB07F8D540F63C60C2F2000001F070F881
:1001F00040F63C60C2F2000001F002F840F63C60BC
:1002000040F69462C2F20000C2F20002102101F036
:1002100027F840F63C6042F68012C2F20000C0F6B9
:100220000002102100F0B4FFD5E700BFAFF300805B
:10023000704700BFAFF30080AFF30080AFF30080E2
:10024000FEE700BFAFF30080AFF30080AFF30080A4
:1002500072B640F60000C2F2000080F30988022363
:1002600083F31488BFF36F8F40F2000340F2004223
:10027000C2F20003C2F2000293420BD2D9431144EE
:1002800021F0030119444FF05532043B43F8042F89
:100290008B42FBD140F20043C2F2000383420CD2F6
:1002A00037491A1D891A21F0030119444FF05532BC
:1002B000043B43F8042F8B42FBD101F051FF40F681
:1002C000000140F62003C2F20001C2F2000399428D
:1002D0000ED2CC431C4424F0030442F6981004349C
:1002E000C0F600000023C258CA500433A342FAD11A
:1002F00040F6200340F6A462C2F20003C2F20002FC
:1003000093420AD2D943114421F003011944002237
:10031000043B43F8042F8B42FBD1FFF789FF40F2E7
:10032000881540F28813C0F60005C0F600039D4210
:100330000BD2EE431E44B6080136043D00240134BE
:1003400055F8043F9847B442F9D1FFF721FF40F236
:10035000881540F28813C0F60005C0F600039D42E0
:100360000BD2EE431E44B6080136043D002401348E
:1003700055F8043F9847B442F9D1FFF761FF00BF39
:1003800003080020AFF30080AFF30080AFF30080DC
:10039000FEE700BFAFF30080AFF30080AFF3008053
:1003A00072B6FEE7AFF30080AFF30080AFF30080DA
:1003B00000F096F900F0ACFC00F0B2F900DF00BFED
:1003C000EFF30983203383F30988002383F3118833
:1003D000704700BFAFF30080AFF30080AFF3008041
:1003E00008B54FF46D43CEF200034FF44072C0F2F3
:1003F000FA52002199600720DA60102100F0A8F875
:100400000A20202100F0A4F80B208021BDE808403C
:1004100000F09EB8AFF30080AFF30080AFF3008030
:10042000202383F311884FF46D43CEF200035B6801
:1004300013F4006320D0EFF30982A2F1200383F3C9
:10044000098840F65453C2F200034FF08070996956
:1004500042F8040C91F8230088B118688B68816811
:10046000994294BF0023012393B140F2B133C0F607
:10047000000342F8083C704783F3118870471868FE
:100480008B688168994234BF00230123002BECD193
:1004900040F2BC33C0F6000342F8083C704700BF8E
:1004A00008B500F09DF9202383F3118800F058F976
:1004B00000F0BEF800F074F9002383F3118800F017
:1004C000B7F9BDE80840FFF7ABBF00BFAFF300804E
:1004D0002DE9F04FC1F80CD0D0F80CD0BDE8F08F6A
:1004E00008B500F01DF9002383F311882846A047C2
:1004F00000F026FD08BD00BFAFF30080AFF3008021
:1005000020F0030303F1604303F56143F0B400F00E
:1005100003024409D3F80053D200FF26A4009640FA
:1005200004F1604404F5614425EA06050127914081
:1005300000F01F0007FA00F045EA0102C3F80023AB
:10054000C4F880012060F0BC704700BFAFF30080AA
:1005500020F0030303F1604303F56D4300F0030053
:1005600010B4C0009A69FF24844022EA040281404A
:100570000A439A615DF8044B704700BFAFF30080F7
:1005800040F65452C2F2000242F2C0239269C0F611
:1005900000039361FEE700BFAFF30080AFF300807C
:1005A00010B582B0FFF71CFF00F052FA00F0E8F936
:1005B00000F0E6FC00F034FD00F0A2F940F6200067
:1005C0004021C2F2000000F0B3FB40F2004240F6CE
:1005D00054530121C2F20002C2F2000380F820103D
:1005E000C261986100F064F8002383F3118862B659
:1005F00040F65453C2F2000342F240429C69C0F6F6
:100600000002002140F6700040F28153A261C0F662
:10061000000300910122C021C2F2000000F018FC8A
:1006200002B010BDAFF30080AFF30080AFF30080E5
:10063000F8B500F025F940F65453C2F200039A6968
:1006400092F8233013B1013B82F82330516A40F60F
:100650004453C2F2000301315162DA681C6801326E
:100660009C42DA601DD0A768013FA760CFB91E4643
:100670002268E568E76053601A6000F091F8002393
:1006800083F311882069A847202383F3118800F0A1
:1006900067F83468A26840F64453C2F20003002AA7
:1006A000E6D0F8BDAFF30080AFF30080AFF3008079
:1006B00040F63013C2F200031B682BB940F63C53DE
:1006C000C2F200031B6853B140F64053C2F200036C
:1006D00042F2E022C0F600021A60FFF761BE7047E6
:1006E00040F63013C2F2000310B51B6840F63C54CC
:1006F000C2F200040BB9236853B140F64053C2F272
:10070000000342F2E822C0F600021A60FFF748FE3A
:100710000123236010BD00BFAFF30080AFF3008062
:1007200040F63013C2F2000310B51B6840F63C548B
:10073000C2F200042BB92368002B02DD00232360E2
:1007400010BD40F64053C2F2000342F2F022C0F660
:1007500000021A60FFF724FE0023236010BD00BFD3
:1007600040F63013C2F2000310B51B6840F63C544B
:10077000002BC2F2000401DD236853B140F6405360
:10078000C2F2000342F2F822C0F600021A60FFF73C
:1007900007FE0123236010BDAFF30080AFF300809C
:1007A00040F63013C2F2000310B51B6840F63C540B
:1007B000002BC2F2000405DD2368002B02DD0023BC
:1007C000236010BD40F64053C2F2000342F20032F3
:1007D000C0F600021A60FFF7E3FD0023236010BD9E
:1007E00010B5202383F3118840F63014C2F20004C0
:1007F0002268002A05DB40F63C53C2F200031B6866
:100800005BB140F64053C2F2000342F20832C0F638
:1008100000021A60FFF7C4FD226801322260002343
:1008200083F3118810BD00BFAFF30080AFF30080E9
:1008300010B5202383F3118840F63014C2F200046F
:100840002268002A05DD40F63C53C2F200031B6813
:100850005BB140F64053C2F2000342F21032C0F6E0
:1008600000021A60FFF79CFD2268013A2260002313
:1008700083F3118810BD00BFAFF30080AFF3008099
:1008800040F63013C2F200031B68002B07DB40F672
:100890003C53C2F200031B68002B00DD704740F69A
:1008A0004053C2F2000342F21832C0F600021A604E
:1008B000FFF776BDAFF30080AFF30080AFF30080A9
:1008C00040F63013C2F200031B683BB940F63C53BC
:1008D000C2F200031B68002B00DD704740F6405356
:1008E000C2F2000342F22032C0F600021A60FFF7A3
:1008F00057BD00BFAFF30080AFF30080AFF30080BF
:1009000040F63413C2F200031A46402142F8081B95
:100910005A607047AFF30080AFF30080AFF3008000
:1009200010B440F6341340F6445440F65451C2F229
:100930000003C2F20004C2F200015A68E468896947
:1009400014605160816A916090F8204002F11001BA
:1009500003F58160814214732ABF03F108025960D4
:100960005A605DF8044B7047AFF30080AFF300802E
:1009700040F64053C2F200031860FFF711BD00BFFC
:1009800040F64453C2F200034FF0FF3100225B6097
:100990001B609960DA607047AFF30080AFF30080AE
:1009A000F8B5054616460C461F46FFF769FF002EB0
:1009B00018BF002D1CD0DCB140F64451C2F200013A
:1009C0002F610B68EE609A68944204D91B68A41AE0
:1009D0009A68A242FAD35A682B606A608B425D60C3
:1009E0001560AC601EBF9A68C4EB02049C60F8BD41
:1009F00042F23030C0F60000FFF7BAFFDCE700BF7C
:100A000010B50446FFF73CFF9CB1E368C3B123680F
:100A100040F64452C2F2000293421FBF9968A26896
:100A200052189A6062681360236800215A60E1607E
:100A300010BD42F24030C0F60000FFF799FFE4E736
:100A400042F25030C0F60000FFF792FFDFE700BF30
:100A500040F65453C2F2000300225B601B605B61EE
:100A60001B619A60704700BFAFF30080AFF3008056
:100A700010B50446FFF704FF94F82030002B18BF90
:100A80000E2B12D0002240F65453A16884F8202087
:100A9000C2F200031B689A688A42FBD25A6823603C
:100AA000626020465C60146010BD42F27030C0F697
:100AB0000000FFF75DFFE5E7AFF30080AFF30080D4
:100AC00010B52023044683F31188FFF749FE94F8FC
:100AD00020300D2B11D8DFE803F016101007100B93
:100AE000101010101010100BA36A9A6801329A604F
:100AF00094E80C001A60226853604FF0FF33A36241
:100B00002046FFF7B5FFFFF74BFE002383F3118864
:100B100010BD00BFAFF30080AFF30080AFF30080E3
:100B200070B540F65454C2F200040646FFF7C8FE02
:100B30002368A5691A6885F820601420012185F8CA
:100B400023005460284683F820102260A361FFF739
:100B5000E7FEEB69ADF12402934205D942F28430FD
:100B6000C0F60000FFF704FFA0692946BDE8704009
:100B7000FFF7AEBCAFF30080AFF30080AFF30080AF
:100B800070B50D4686B00646FFF79AFE6B1C18D06E
:100B900040F65454C2F2000440F6C122A36929462B
:100BA00001A8C0F60002FFF7FBFE3046FFF7B8FFD2
:100BB000049B13B101A8FFF723FFA369986A06B04D
:100BC00070BD40F65454C2F200043046FFF7A8FF4F
:100BD000A369986A06B070BDAFF30080AFF30080E0
:100BE00070B540F65455C2F2000504460E46FFF7B4
:100BF00067FEA869A3688268A662934213D9FFF7CB
:100C000037FF0123064684F82030AC61FFF788FEE9
:100C1000F369ADF1240293420AD820463146BDE87B
:100C20007040FFF755BC2046BDE87040FFF720BF7D
:100C300042F28430C0F60000FFF79AFE20463146AB
:100C4000BDE87040FFF744BCAFF30080AFF3008015
:100C500070B540F65454C2F2000414212368A5690B
:100C60001A6801265460284683F8206085F823100E
:100C70002260A361FFF7FCFE2846FFF751FEEB69F7
:100C8000ADF12402934205D942F28430C0F600004F
:100C9000FFF76EFEA0692946BDE87040FFF718BC5B
:100CA00070B540F65456C2F2000601203268B569AC
:100CB0001368AC68336000215E6082F82000134640
:100CC000B26185F8201000E01B689A68A242FBD848
:100CD0005A682B606A6028465D601560FFF720FE49
:100CE000EB69ADF12402934205D942F28430C0F69B
:100CF0000000FFF73DFEB0692946BDE87040FFF7F0
:100D0000E7BB00BFAFF30080AFF30080AFF300801C
:100D100040F65453C2F200039B6993F823300BB1A1
:100D2000FFF7BEBFFFF794BFAFF30080AFF30080C3
:100D30002DE9F00740F65452C2F200020024556932
:100D400080F8214000F130064FF0020A4FF01409FC
:100D50004FF0010800F14C0700F12C0C45610261D5
:100D6000816080F820A080F8239080F822800464BD
:100D7000C46344628461416450612861C761466311
:100D80000663C0F82CC0BDE8F0077047AFF30080E1
:100D90002DE9F04F04460D4683B090469946FFF783
:100DA0006FFD002C18BFAF2D09D9D9F1010338BF51
:100DB0000023B8F17F0F88BF43F001032BB142F24B
:100DC000A030C0F60000FFF7D3FD40F65456C2F243
:100DD0000006A5F1240160187269E06004F12C039B
:100DE00044F8019040F2E1470C9901930025C0F6C8
:100DF00000074FF0020B4FF0140A4FF0010C416056
:100E000007626261C4F808802661C4F8448084F8EF
:100E100020B0746184F821502564E5636562A561A2
:100E200084F823A084F822C01461019A04F13003ED
:100E300004F14C092046E26263632363C4F81C900A
:100E400003B0BDE8F08F00BFAFF30080AFF30080C8
:100E50002DE9F04F83B080460C9F894693469A4611
:100E600000F14C050446FF2604F8016BA542FBD1B6
:100E700008EB0904A54204D2552605F8016BA542EA
:100E8000FBD1202383F31188FFF72AFC53465A46EF
:100E9000494600974046FFF77BFF00210446FFF7D5
:100EA0009FFEFFF73DFC002383F31188204603B02B
:100EB000BDE8F08FAFF30080AFF30080AFF30080A8
:100EC00010B5044628B942F2E030C0F60000FFF742
:100ED0004FFD202383F31188FFF702FC21460620F3
:100EE000FFF74EFEFFF71CFC002383F3118810BDB3
:100EF00038B540F65453C2F200039C692546A062FF
:100F000055F82C0FA84206D00368E362FFF7B0FD46
:100F1000E06AA842F8D194F821309B0704D12269F5
:100F200063691A61226953610E20FFF7F9FD42F2ED
:100F3000F030C0F60000BDE83840FFF719BD00BF33
:100F400010B52023044683F31188FFF7C9FB204620
:100F5000BDE81040FFF7CCBFAFF30080AFF30080D7
:100F600010B5044620B1002364602460A36010BD66
:100F700042F26040C0F60000FFF7FAFCF3E700BF62
:100F80004CF2000140F6705240F674530648C2F22B
:100F90000101C2F20002C2F2000321F0070120F0B9
:100FA0000700116018607047AB0E0020AFF300809F
:100FB00010B50446FFF764FC40F6745340F67052D7
:100FC000C2F20003C2F2000219681268E01D20F0AC
:100FD0000700521A90429DBF401818600846002032
:100FE00010BD00BFAFF30080AFF30080AFF300800F
:100FF00010B52023044683F31188FFF771FB2046C8
:10100000FFF7D6FF0446FFF78BFB002383F311881D
:10101000204610BDAFF30080AFF30080AFF3008037
:1010200040F67853C2F2000340F6F1720021C0F698
:10103000000203F110001A609960D960FFF790BFB9
:1010400008B500F005FC00F03BF842F68000C0F661
:10105000000000F0D5FC00F05BF8BDE8084001F0AE
:1010600087B800BFAFF30080AFF30080AFF300801C
:101070004FF48053CEF200035B688360704700BF7B
:101080004FF48053CEF2000340F69852C2F20002B1
:101090005B68816810B41468C2685B1A1B1B9342BA
:1010A000836088BFC36003D80269934238BF03617D
:1010B0005DF8044B704700BFAFF30080AFF30080D2
:1010C00010B540F6985486B0C2F200044FF4805335
:1010D0000022CEF200034FF0FF312260049205910E
:1010E000596841F2710241F28103C0F60002C0F674
:1010F000000301A8029303910192FFF7C1FF039B34
:10110000236006B010BD00BFAFF30080AFF30080D6
:1011100000F0A6BEAFF30080AFF30080AFF3008015
:10112000002301220270437083704360704700BF48
:10113000002918BF002838B504460D461BD02023CF
:1011400083F31188FFF7CCFA2378013BDBB2012B44
:1011500005D942F22050C0F60000FFF709FC2046F6
:10116000656000F0ADFE02232370FFF7D9FA00237B
:1011700083F3118838BD42F21050C0F60000FFF72B
:10118000F7FBDCE7AFF30080AFF30080AFF3008044
:10119000002918BF002870B504460D4616461ED01B
:1011A000EAB1202383F31188FFF79AFA2378022B00
:1011B00005D042F26450C0F60000FFF7D9FB637817
:1011C000012B13D029463246204600F061FF01234F
:1011D0006370FFF7A5FA002383F3118870BD42F214
:1011E0005050C0F60000FFF7C3FBDAE742F2785038
:1011F000C0F60000FFF7BCFBE4E700BFAFF30080E0
:1012000038B5044600B3202383F31188FFF768FA4A
:101210002378022B05D042F2E450C0F60000FFF71D
:10122000A7FB6378012B18BF002506D0FFF778FADB
:10123000002383F31188284638BD204600F038FF8C
:10124000002305466370F1E742F2D050C0F600007B
:10125000FFF78EFBD7E700BFAFF30080AFF300804E
:10126000002918BF002870B504460D4616461ED04A
:10127000EAB1202383F31188FFF732FA2378022B97
:1012800005D042F23860C0F60000FFF771FBA3788A
:10129000012B13D029463246204600F019FF0123C6
:1012A000A370FFF73DFA002383F3118870BD42F26B
:1012B0002060C0F60000FFF75BFBDAE742F2506007
:1012C000C0F60000FFF754FBE4E700BFAFF3008077
:1012D00038B5044600B3202383F31188FFF700FAE2
:1012E0002378022B05D042F2C460C0F60000FFF75D
:1012F0003FFBA378012B18BF002506D0FFF710FA9B
:10130000002383F31188284638BD204600F000FFF3
:1013100000230546A370F1E742F2B060C0F600007A
:10132000FFF726FBD7E700BFAFF30080AFF30080E5
:1013300010B5FFF755FA4FF4C042C4F2020240F66E
:101340009C53C2F2000311681C6801F03D019160DA
:101350000CB15868A047FFF76BFABDE81040FFF7E3
:101360005FB800BFAFF30080AFF30080AFF3008041
:1013700010B5FFF735FA4FF4C042C4F2020240F64E
:101380009C531168C2F20003890901F03D019C6879
:10139000880190600CB1D868A047FFF749FABDE812
:1013A0001040FFF73DB800BFAFF30080AFF30080FF
:1013B00010B5FFF715FA4FF4C042C4F2020240F62E
:1013C0009C531168C2F20003090C01F03D011C6935
:1013D000080490600CB15869A047FFF729FABDE8EE
:1013E0001040FFF71DB800BFAFF30080AFF30080DF
:1013F00010B5FFF7F5F94FF4C042C4F2020240F60F
:101400009C531168C2F20003890D01F03D019C69F3
:10141000880590600CB1D869A047FFF709FABDE8CC
:101420001040FEF7FDBF00BFAFF30080AFF30080B8
:1014300010B5FFF7D5F94FF4C042C4F2020240F6EE
:101440009C53C2F2000351681C6A01F03D01D16057
:101450000CB1586AA047FFF7EBF9BDE81040FEF762
:10146000DFBF00BFAFF30080AFF30080AFF30080B9
:1014700010B5FFF7B5F94FF4C042C4F2020240F6CE
:101480009C535168C2F20003890901F03D019C6A36
:101490008801D0600CB1D86AA047FFF7C9F9BDE850
:1014A0001040FEF7BDBF00BFAFF30080AFF3008078
:1014B00010B5FFF795F94FF4C042C4F2020240F6AE
:1014C0009C535168C2F20003090C01F03D011C6BF2
:1014D0000804D0600CB1586BA047FFF7A9F9BDE82C
:1014E0001040FEF79DBF00BFAFF30080AFF3008058
:1014F00010B5FFF775F94FF4C042C4F2020240F68E
:101500009C535168C2F20003890D01F03D019C6BB0
:101510008805D0600CB1D86BA047FFF789F9BDE80A
:101520001040FEF77DBF00BFAFF30080AFF3008037
:1015300010B5FFF755F94FF4C842C4F2020240F665
:101540009C53C2F2000311681C6C01F03D019160D4
:101550000CB1586CA047FFF76BF9BDE81040FEF7DF
:101560005FBF00BFAFF30080AFF30080AFF3008038
:1015700010B5FFF735F94FF4C842C4F2020240F645
:101580009C531168C2F20003890901F03D019C6C73
:10159000880190600CB1D86CA047FFF749F9BDE80D
:1015A0001040FEF73DBF00BFAFF30080AFF30080F7
:1015B00010B5FFF715F94FF4C842C4F2020240F625
:1015C0009C531168C2F20003090C01F03D011C6D2F
:1015D000080490600CB1586DA047FFF729F9BDE8E9
:1015E0001040FEF71DBF00BFAFF30080AFF30080D7
:1015F00010B5FFF7F5F84FF4C842C4F2020240F606
:101600009C531168C2F20003890D01F03D019C6DED
:10161000880590600CB1D86DA047FFF709F9BDE8C7
:101620001040FEF7FDBE00BFAFF30080AFF30080B7
:1016300010B5FFF7D5F84FF4C842C4F2020240F6E5
:101640009C53C2F2000351681C6E01F03D01D16051
:101650000CB1586EA047FFF7EBF8BDE81040FEF75D
:10166000DFBE00BFAFF30080AFF30080AFF30080B8
:1016700010B5FFF7B5F84FF4C842C4F2020240F6C5
:101680009C535168C2F20003890901F03D019C6E30
:101690008801D0600CB1D86EA047FFF7C9F8BDE84B
:1016A0001040FEF7BDBE00BFAFF30080AFF3008077
:1016B00010B5FFF795F84FF4C842C4F2020240F6A5
:1016C0009C535168C2F20003090C01F03D011C6FEC
:1016D0000804D0600CB1586FA047FFF7A9F8BDE827
:1016E0001040FEF79DBE00BFAFF30080AFF3008057
:1016F00010B5FFF775F84FF4C842C4F2020240F685
:101700009C535168C2F20003890D01F03D019C6FAA
:101710008805D0600CB1D86FA047FFF789F8BDE805
:101720001040FEF77DBE00BFAFF30080AFF3008036
:1017300040F61C63C2F2000330B4002142F260752F
:1017400040F69C5419600A460B46C0F60005C2F2EA
:101750000004E8580C33C02B0160A15002F10802CC
:10176000F7D14FF4C0414FF4C842C4F20201C4F2B1
:1017700002024FF0FF338B6030BCCB609360D360CC
:10178000704700BFAFF30080AFF30080AFF300807D
:101790002DE9F041064684B000284CD040F61C6488
:1017A000C2F20004777A2068012505FA07F818EAE2
:1017B000000F18BF28463BD140F69C5CC2F2000CDB
:1017C00048EA00000CEBC70510F0FF0F4CF837207B
:1017D0006B601CBF4FF46053C4F2020320601EBF55
:1017E0001C6B44F400141C6310F47F4F1CBF4FF4B7
:1017F0006053C4F2020334681EBF186B40F48000CB
:101800001863236823F01F032360236813F0010586
:10181000FBD1307A73683D27874021201F60256007
:101820006061104622B1B07A0901FEF769FE2846D0
:1018300004B0BDE8F08142F21070C0F600000391E0
:1018400002920193FFF794F8019B029A0399A5E78E
:101850004FF46053C4F20203F0B400224FF0FF349F
:1018600019691C611A6159695C615A611E6A4EF2FC
:101870001001CEF2000166F0805649F23F054EF6A7
:10188000F0501E62CEF200001A62C0F20205072676
:101890005F6A5C625A624D608A600E60C4684FF491
:1018A0008051CEF2000144F08074C460086840F0BA
:1018B00001000860186C4FF4E041C4F2000140F0F0
:1018C00080501864086840F480700860196F01F453
:1018D0004071B1F5007F1EBF4FF4803119671A6760
:1018E0004FF4E043C4F20003F0BC5A6822F40072E3
:1018F0005A60FFF71DBF00BFAFF30080AFF3008059
:101900004FF460514FF4E043C4F20201C4F200030B
:101910004FF080504FF4404208641A600B6843F067
:1019200001030B600A684FF460539007C4F202038E
:10193000F8D51968002201F0F901196019469A607A
:101940008A684FF4605312F00C0FC4F20203F7D10F
:101950001A6842F480321A6019460A684FF46053DC
:101960009203C4F20203F8D55A6F42F001025A679B
:1019700019464A6F4FF460539007C4F20203F8D53A
:1019800045F20842C0F240725A6019684FF4E042D2
:1019900041F080711960C4F2000253685904FCD50B
:1019A0004FF46051C4F202010A684FF4605392018F
:1019B000C4F20203F8D54FF47052C4F202024FF49D
:1019C0001441C3F6080140F20570996010609A68EE
:1019D00042F002029A6019468A6802F00C024FF443
:1019E0006053082AC4F20203F6D15A6C42F48042D2
:1019F0005A645A6E42F480425A667047AFF30080D0
:101A00004FF46053C4F202031A6B6FEA52226FEA7A
:101A100042221A631A6D6FEA52226FEA42221A6555
:101A200000234168C4F202034FF480625960816868
:101A30009960C168D9600169596141691962816918
:101A4000596201681960016AC4F202024FF400632E
:101A50005160416A9160816AD160C16A5161016BD4
:101A60001162416B5162C1691160C4F20203C16B22
:101A70005960016C9960416CD960816C5961C16C8D
:101A80001962016D5962816B4FF440621960816D7A
:101A9000C4F202024FF480535160C16D9160016E37
:101AA000D160416E5161816E1162C16E5162416DB2
:101AB0001160C4F20203416F5960816F9960C16F78
:101AC000D960D0F880105961D0F884101962D0F82C
:101AD00088105962016F4FF4A0521960D0F890102D
:101AE000C4F202024FF4C0535160D0F894109160D8
:101AF000D0F89810D160D0F89C105161D0F8A010A7
:101B00001162D0F8A4105162D0F88C101160D0F896
:101B1000AC10C4F202034FF4E0525960D0F8B01098
:101B20009960D0F8B410D960D0F8B8105961D0F8E5
:101B3000BC101962D0F8C0105962D0F8A810C4F2D5
:101B400002021960D0F8C8305360D0F8CC309360EE
:101B5000D0F8D030D360D0F8D4305361D0F8D8303A
:101B60001362D0F8DC305362D0F8C4104FF4005345
:101B70001160D0F8E420C4F202035A60D0F8E820E3
:101B80009A60D0F8EC20DA60D0F8F0205A61D0F8F2
:101B9000F4201A62D0F8F8205A62D0F8E0201A60D7
:101BA000704700BFAFF30080AFF30080AFF3008059
:101BB0002DE9F00F002302F00307C2F38006C2F301
:101BC000C105C2F341144FF00F09C2F3C3124FF025
:101BD000010A04E07600AD00A400BF00013303F069
:101BE000070C4FEA8C0C11F0010F02FA0CF809FAFD
:101BF0000CFC3CD0072B95BFD0F820B0D0F824B017
:101C00002BEA0C0C2BEA0C0C95BF4CEA08084CEAAA
:101C10000808C0F82080C0F82480D0F804C00AFA70
:101C200003F82CEA080C4CEA060CC0F804C04FF08C
:101C3000030B4FEA430CD0F808800BFA0CFC6FEA58
:101C40000C0C0CEA080848EA0508C0F80880D0F82F
:101C50000C800CEA080848EA0408C0F80C80D0F8A8
:101C600000800CEA080C4CEA070CC0F800C04908D8
:101C7000B0D1BDE8F00F7047AFF30080AFF3008044
:101C800030B404692268136823F01F0313601368DB
:101C9000DB07FCD4257A416963680A683D24AC40BF
:101CA0001C60136823F01F031360136813F0010313
:101CB000FBD10C7A826849683D20A040086030BCA6
:101CC0009381138293827047AFF30080AFF300805B
:101CD00070B585682C88AA8840F20F13A4B22340FF
:101CE0000646E3B143681B694FF6FF622A80B3B131
:101CF00014F0080F14BF10210021E20748BF41F083
:101D00000401A00748BF41F00801620748BF41F045
:101D10002001E00548BF41F0400130469847620687
:101D200007D573685B684FF6BF722A800BB13046E7
:101D3000984770BDAFF30080AFF30080AFF3008031
:101D400011F00C0F10B504461BD161690A681368C5
:101D500023F01F0313601368D807FCD463680A7A62
:101D60001B6849683D2090400222086062702BB1D8
:101D7000204698476378022B00D010BD0023637083
:101D800010BDFEF70DFBE0E7AFF30080AFF300807E
:101D900011F00C0F70B504463BD1A37843B96368CA
:101DA000DB68002B34D0218B204689B2984770BD68
:101DB00021690A68136823F01F0313601368DD07A5
:101DC000FCD460680E7A4D6883683D2101FA06F6FE
:101DD00002212E60A1703BB120469847A378022BC8
:101DE00016D1236960681A68C168E368002914BFC6
:101DF0004FF488714FF480710B430025012104F1E9
:101E00001800A570D0605160136013680B43136015
:101E100070BDFEF7C5FAC0E7AFF30080AFF30080F6
:101E200008B5FEF7DDFC40F62060C2F20000FFF7C7
:101E30004FFFFEF7FDFCBDE80840FEF7F1BA00BF1A
:101E400008B5FEF7CDFC40F63C60C2F20000FFF79B
:101E50003FFFFEF7EDFCBDE80840FEF7E1BA00BF2A
:101E6000F8B540F62065C2F20005114E284640F64E
:101E70003C64FFF755F9C2F200044FF4805306F1B9
:101E80001802C4F2010306272046AB602E616A6186
:101E9000EF60FFF745F94FF48843A6F16002C4F202
:101EA0000003543EE760A36022616661F8BD00BF95
:101EB000FC270008AFF30080AFF30080AFF3008091
:101EC0002DE9F8430378012B044659D08568002397
:101ED000A37063702046FFF7D3FEA2684FF4A051B1
:101EE0004FF48053C4F20101C4F201039A4218BFB7
:101EF0008A42636806BF4FF43D4259695969D3F875
:101F0000049016BF4DF68062C0F20152C0F28022EA
:101F1000B2FBF1F292B221692A81DA68B3F8188033
:101F20005F8B9E8B0B682988A98842F24C1042F285
:101F30000C11B9F1000F08BF0846002A14BF4FF476
:101F400088714FF48071E26847F0400746F0C1069F
:101F500040EA0800BFB241EA02084FF0000C01213C
:101F6000B6B21834A5F800C02F82AE82A881DC601A
:101F70005960C3F800801A680A431A60BDE8F88304
:101F800040F62065C2F20005A8421BD040F63C6531
:101F9000C2F20005A8423ED0636822691B8BA56887
:101FA000106803F4A053B3F5805F02BFE36843F405
:101FB0002053E3606369196800222B1D83608B60E6
:101FC000228384E741F69152C0F6000200690C2199
:101FD0002346FFF7DDFB002845D141F6415240F68C
:101FE0002063C0F60002C2F2000368690C21FFF70B
:101FF000CFFB88BB4FF46053C4F2020325205A6C18
:1020000042F010025A64C021FEF77AFAEB6843F0FE
:102010000063EB60C0E741F69152C0F60002006930
:102020000C212346FFF7B4FB58BB41F6415240F662
:102030003C63C0F60002C2F2000368690C21FFF79E
:10204000A7FBB8B94FF46053C4F2020326201A6C00
:1020500042F400321A64D6E742F63800C0F60000B7
:10206000FEF786FCC6E742F62000C0F60000FEF749
:102070007FFCB2E742F66800C0F60000FEF778FC8D
:10208000E0E742F65000C0F60000FEF771FCCCE736
:102090004369C0681B6840F48A60DA605960186060
:1020A0001A6842F001021A60704700BFAFF3008067
:1020B00041690A68136823F01F0313601368DB0784
:1020C000FCD4087A4B683D21814019605068704704
:1020D00070B405692C68236823F01F03236023680C
:1020E000DE07FCD42E7A6B683D25B5401D60C368C1
:1020F000E26043F4826361602360236843F001037C
:10210000236070BC704700BFAFF30080AFF3008066
:10211000014600690268136823F01F0330B413609E
:102120001368DB07FCD4047A4B6840683D2505FA48
:1021300004F40460DC68CB685068002C14BF4FF4D2
:1021400088744FF48074234318310124D1605460A3
:10215000136013682343136030BC7047AFF30080F3
:10216000FFF7CEBBAFF30080AFF30080AFF300808A
:10217000704700BFAFF30080AFF30080AFF3008083
:102180004FF44063C4F202034FF400525A83704785
:102190004FF44063C4F202034FF480525A837047F5
:1021A0004FF44063C4F202034FF480425A837047F5
:1021B000704700BFAFF30080AFF30080AFF3008043
:1021C000704700BFAFF30080AFF30080AFF3008033
:1021D00008B54FF44063C4F202034FF480521A83EF
:1021E000202383F31188FEF7BBFA40F66C60C2F23D
:1021F0000000C3680BB1FEF703FC40F66C6042F2CE
:102200009112C2F20000C0F60002C8210023FEF7BE
:10221000C7FBFEF7C5FA002383F3118808BD00BF92
:1022200008B54FF44063C4F202034FF400521A831E
:10223000202383F31188FEF793FA40F65860C2F228
:102240000000C3680BB1FEF7DBFB40F6586042F2BA
:102250008112C2F20000C0F60002C8210023FEF77E
:102260009FFBFEF79DFA002383F3118808BD00BF92
:1022700008B54FF44063C4F202034FF480421A835E
:10228000202383F31188FEF76BFA40F68060C2F2D8
:102290000000C3680BB1FEF7B3FB40F6806042F26A
:1022A000A112C2F20000C0F60002C8210023FEF70E
:1022B00077FBFEF775FA002383F3118808BD00BF92
:1022C00069646C6500000000000000000000000070
:1022D0005356233100000000535623320000000003
:1022E00053562333000000005356233400000000EF
:1022F00053562335000000005356233600000000DB
:1023000053562337000000005356233800000000C6
:10231000535623390000000053562331300000008B
:10232000535623313100000000000000000000007F
:10233000226368565453657449222829000000001E
:102340002263685654526573657449222829000037
:102350006368565452657365744928292C202331CB
:10236000000000000000000000000000000000006D
:10237000636853636852656164794928292C202376
:1023800031000000737461636B206F766572666C58
:102390006F77000000000000000000000000000057
:1023A0002263685468644372656174654922282910
:1023B00000000000226368546864536574507269B9
:1023C0006F726974792228290000000063685468DC
:1023D00064526573756D6528292C20233100000037
:1023E000226368546864536C656570222829000074
:1023F0006368546864457869745328292C20233114
:1024000000000000226368546864576169742228E0
:102410002900000063685468645761697428292C96
:102420002023310063685468645761697428292C3B
:102430002023320000000000000000000000000027
:102440006D61696E0016831104044C080C10141899
:102450001C202122232400000000000000000000B6
:102460002263684D7478496E69742228290000003F
:102470002263684D74784C6F636B532228290000E7
:1024800063684D74784C6F636B5328292C2023317B
:102490000000000063684D74784C6F636B5328290B
:1024A0002C202332000000002263684D747854729F
:1024B000794C6F636B5322282900000063684D74C8
:1024C00078556E6C6F636B28292C20233100000037
:1024D00063684D7478556E6C6F636B28292C2023CC
:1024E0003200000063684D7478556E6C6F636B53F7
:1024F00028292C202331000063684D7478556E6CB8
:102500006F636B5328292C20233200000000000049
:10251000227561727453746172742228290000005C
:1025200075617274537461727428292C20233100F0
:10253000227561727453746F7022282900000000A4
:102540007561727453746F7028292C202331000038
:102550002275617274537461727453656E642228BB
:102560002900000075617274537461727453656E52
:102570006428292C202331007561727453746172B0
:102580007453656E6428292C2023320022756172F1
:1025900074537461727453656E6449222829000073
:1025A00075617274537461727453656E644928293D
:1025B0002C20233100000000756172745374617225
:1025C0007453656E644928292C20233200000000D2
:1025D000227561727453746F7053656E642228297A
:1025E000000000007561727453746F7053656E64FF
:1025F00028292C2023310000227561727453746FD6
:102600007053656E64492228290000007561727458
:1026100053746F7053656E644928292C2023310050
:102620002275617274537461727452656365697660
:10263000652228290000000075617274537461726C
:10264000745265636569766528292C202331000062
:1026500075617274537461727452656365697665ED
:1026600028292C2023320000227561727453746172
:1026700072745265636569766549222829000000F5
:1026800075617274537461727452656365697665BD
:102690004928292C202331007561727453746172AA
:1026A00074526563656976654928292C20233200B8
:1026B000227561727453746F7052656365697665D3
:1026C000222829007561727453746F7052656365B6
:1026D00069766528292C202331000000227561725B
:1026E0007453746F70526563656976654922282951
:1026F000000000007561727453746F7052656365F9
:102700006976654928292C2023310000000000004B
:1027100022646D6153747265616D416C6C6F6361AD
:10272000746522282900000022646D61537472656B
:10273000616D52656C656173652228290000000097
:10274000646D6153747265616D52656C656173652A
:1027500028292C2023310000000000000000000088
:10276000106002400860024000000B002860024038
:102770000860024006010C00406002400860024010
:1027800010020D00586002400860024016030E005F
:10279000706002400C60024000040F00886002403C
:1027A0000C60024006051000A06002400C60024070
:1027B00010061100B86002400C60024016072F009E
:1027C0001064024008640240000838002864024097
:1027D000086402400609390040640240086402406F
:1027E000100A3A005864024008640240160B3B008D
:1027F000706402400C640240000C3C00886402409B
:102800000C640240060D4400A06402400C640240C7
:10281000100E4500B86402400C640240160F4600DA
:10282000756172745F6C6C645F7374617274282973
:102830002C20233100000000756172745F6C6C64A1
:102840005F737461727428292C2023320000000009
:10285000756172745F6C6C645F7374617274282943
:102860002C20233300000000756172745F6C6C646F
:102870005F737461727428292C20233400000000D7
:1028800000AAA02A00000000FFABFFFF5400014097
:10289000FFFF00000000565500AA0A008020080033
:1028A00040020000FFFFFFFF15455155FFFF0000EC
:1028B0000000000440000000018020020000000031
:1028C000FFFFFFFF54154554FFFF000000000060AC
:1028D000000606000001005500000000FFFFFFFF9A
:1028E00055505500FF0F00000000000000000000E0
:1028F0004000000000000000FFFFFFFF000000009C
:10290000FFFF0000000000000000000000000000C9
:1029100000000000FFFFFFFF00000000FFFF0000BD
:1029200000000000000000000000000000000000A7
:10293000FFFFFFFF00000000FFFF0000000000009D
:10294000000000000000000000000000FFFFFFFF8B
:1029500000000000FFFF0000000000000000000079
:102960000000000000000000FFFFFFFF000000006B
:10297000FFFF000000000000000000000000000059
:1029800030313233343536373839414243444546A5
:042990000000000043
:10299800B12100087122000821220008D121000875
:1029A800C12100080096000000000040000000005F
:04000005080002519C
:00000001FF
